{
  "contractName": "Coursable",
  "abi": [
    {
      "inputs": [
        {
          "internalType": "address",
          "name": "",
          "type": "address"
        }
      ],
      "name": "total",
      "outputs": [
        {
          "internalType": "uint256",
          "name": "",
          "type": "uint256"
        }
      ],
      "stateMutability": "view",
      "type": "function"
    },
    {
      "inputs": [],
      "name": "getTotal",
      "outputs": [
        {
          "internalType": "uint256",
          "name": "",
          "type": "uint256"
        }
      ],
      "stateMutability": "view",
      "type": "function"
    }
  ],
  "bytecode": "0x608060405234801561001057600080fd5b5060016000819055506101e2806100286000396000f3fe608060405234801561001057600080fd5b50600436106100365760003560e01c8063775a25e31461003b578063d2514e8414610059575b600080fd5b610043610089565b6040516100509190610101565b60405180910390f35b610073600480360381019061006e919061017f565b6100d0565b6040516100809190610101565b60405180910390f35b6000600160003373ffffffffffffffffffffffffffffffffffffffff1673ffffffffffffffffffffffffffffffffffffffff16815260200190815260200160002054905090565b60016020528060005260406000206000915090505481565b6000819050919050565b6100fb816100e8565b82525050565b600060208201905061011660008301846100f2565b92915050565b600080fd5b600073ffffffffffffffffffffffffffffffffffffffff82169050919050565b600061014c82610121565b9050919050565b61015c81610141565b811461016757600080fd5b50565b60008135905061017981610153565b92915050565b6000602082840312156101955761019461011c565b5b60006101a38482850161016a565b9150509291505056fea2646970667358221220a3d3c4a41427ee631bee31348979590eec9781921b246221dac669236938b57764736f6c634300080b0033",
  "immutableReferences": {},
  "source": "// SPDX-License-Identifier: MIT\npragma solidity >=0.8.0 <0.9.0;\n\nimport \"@openzeppelin/contracts/security/ReentrancyGuard.sol\";\n\n\ncontract Coursable is ReentrancyGuard {\n\n    mapping (address => uint) public total;\n\n    function addToTotal(address _address, uint _amount) nonReentrant internal {\n        uint balance = total[_address];\n        balance += _amount;\n        total[_address] = balance;\n    }\n\n    function getTotal() public view returns (uint) {\n        return total[msg.sender];\n    }\n}",
  "sourcePath": "/Users/iman/smartlearn/smartcontract/contracts/Coursable.sol",
  "compiler": {
    "name": "solc",
    "version": "0.8.11+commit.d7f03943.Emscripten.clang"
  },
  "schemaVersion": "3.4.7",
  "updatedAt": "2022-07-03T01:20:42.447Z",
  "devdoc": {
    "kind": "dev",
    "methods": {},
    "version": 1
  },
  "userdoc": {
    "kind": "user",
    "methods": {},
    "version": 1
  }
}