{
  "contractName": "CourseFactory",
  "abi": [
    {
      "anonymous": false,
      "inputs": [],
      "name": "LogCoursesUpdated",
      "type": "event"
    },
    {
      "anonymous": false,
      "inputs": [
        {
          "indexed": false,
          "internalType": "address",
          "name": "account",
          "type": "address"
        }
      ],
      "name": "Paused",
      "type": "event"
    },
    {
      "anonymous": false,
      "inputs": [
        {
          "indexed": false,
          "internalType": "address",
          "name": "account",
          "type": "address"
        }
      ],
      "name": "Unpaused",
      "type": "event"
    },
    {
      "stateMutability": "payable",
      "type": "fallback"
    },
    {
      "inputs": [],
      "name": "WAGE",
      "outputs": [
        {
          "internalType": "uint256",
          "name": "",
          "type": "uint256"
        }
      ],
      "stateMutability": "view",
      "type": "function"
    },
    {
      "inputs": [
        {
          "internalType": "address",
          "name": "",
          "type": "address"
        },
        {
          "internalType": "uint256",
          "name": "",
          "type": "uint256"
        }
      ],
      "name": "courses",
      "outputs": [
        {
          "internalType": "string",
          "name": "description",
          "type": "string"
        },
        {
          "internalType": "uint256",
          "name": "createdAt",
          "type": "uint256"
        },
        {
          "internalType": "uint256",
          "name": "finishedAt",
          "type": "uint256"
        },
        {
          "internalType": "uint256",
          "name": "value",
          "type": "uint256"
        },
        {
          "internalType": "uint256",
          "name": "deadline",
          "type": "uint256"
        },
        {
          "internalType": "bool",
          "name": "completed",
          "type": "bool"
        },
        {
          "internalType": "bool",
          "name": "killed",
          "type": "bool"
        }
      ],
      "stateMutability": "view",
      "type": "function"
    },
    {
      "inputs": [],
      "name": "paused",
      "outputs": [
        {
          "internalType": "bool",
          "name": "",
          "type": "bool"
        }
      ],
      "stateMutability": "view",
      "type": "function"
    },
    {
      "stateMutability": "payable",
      "type": "receive"
    }
  ],
  "bytecode": "0x608060405234801561001057600080fd5b5060016000819055506000600160006101000a81548160ff0219169083151502179055506104e3806100436000396000f3fe6080604052600436106100385760003560e01c80635c975abb14610047578063c1e478cb14610072578063d1b8c87b146100b557610042565b3661004257600080fd5b600080fd5b34801561005357600080fd5b5061005c6100e0565b604051610069919061021f565b60405180910390f35b34801561007e57600080fd5b50610099600480360381019061009491906102d3565b6100f7565b6040516100ac97969594939291906103bb565b60405180910390f35b3480156100c157600080fd5b506100ca6101f8565b6040516100d79190610431565b60405180910390f35b6000600160009054906101000a900460ff16905090565b6002602052816000526040600020818154811061011357600080fd5b9060005260206000209060060201600091509150508060000180546101379061047b565b80601f01602080910402602001604051908101604052809291908181526020018280546101639061047b565b80156101b05780601f10610185576101008083540402835291602001916101b0565b820191906000526020600020905b81548152906001019060200180831161019357829003601f168201915b5050505050908060010154908060020154908060030154908060040154908060050160009054906101000a900460ff16908060050160019054906101000a900460ff16905087565b67016345785d8a000081565b60008115159050919050565b61021981610204565b82525050565b60006020820190506102346000830184610210565b92915050565b600080fd5b600073ffffffffffffffffffffffffffffffffffffffff82169050919050565b600061026a8261023f565b9050919050565b61027a8161025f565b811461028557600080fd5b50565b60008135905061029781610271565b92915050565b6000819050919050565b6102b08161029d565b81146102bb57600080fd5b50565b6000813590506102cd816102a7565b92915050565b600080604083850312156102ea576102e961023a565b5b60006102f885828601610288565b9250506020610309858286016102be565b9150509250929050565b600081519050919050565b600082825260208201905092915050565b60005b8381101561034d578082015181840152602081019050610332565b8381111561035c576000848401525b50505050565b6000601f19601f8301169050919050565b600061037e82610313565b610388818561031e565b935061039881856020860161032f565b6103a181610362565b840191505092915050565b6103b58161029d565b82525050565b600060e08201905081810360008301526103d5818a610373565b90506103e460208301896103ac565b6103f160408301886103ac565b6103fe60608301876103ac565b61040b60808301866103ac565b61041860a0830185610210565b61042560c0830184610210565b98975050505050505050565b600060208201905061044660008301846103ac565b92915050565b7f4e487b7100000000000000000000000000000000000000000000000000000000600052602260045260246000fd5b6000600282049050600182168061049357607f821691505b602082108114156104a7576104a661044c565b5b5091905056fea2646970667358221220383c13d4043897d059745b3d8afd9ad53b7c9faea31a4b7ae6c8633800f5ba5764736f6c634300080b0033",
  "immutableReferences": {},
  "source": "// SPDX-License-Identifier: MIT\npragma solidity >=0.8.0 <0.9.0;\n\nimport \"./Financable.sol\";\nimport \"@openzeppelin/contracts/security/Pausable.sol\";\n\ncontract CourseFactory is Financable, Pausable{\n  /*\n   * Constant variables\n   */\n  \n\n  uint constant public WAGE = 100000000000000000 wei;\n\n\n  /*\n   * State variables\n   */\n  \n  // Course structure\n  struct Course {\n    string description;\n    uint createdAt;\n    uint finishedAt;\n    uint value;\n    uint deadline;\n    bool completed;\n    bool killed;\n  }\n\n  // Courses\n  mapping (address => Course[]) public courses;\n\n\n  /* \n   * Event\n   */\n\n  // Courses updated event\n  event LogCoursesUpdated ();\n\n\n  /* \n   * Modifiers\n   */\n\n  // Due date should be after current block timestamp\n  modifier validDeadline (uint _deadline) {\n    require(_deadline > block.timestamp);\n    _;\n  }\n\n  modifier validPrize (uint _value) {\n    require(_value >= WAGE);\n    _;\n  }\n\n  modifier validToRemove (uint _id){\n    require(getCourse(_id).completed || getCourse(_id).killed);\n    _;\n  }\n\n\n  // If a course is not completed\n  modifier incomplete (uint _id) {\n    require(!getCourse(_id).completed);\n    _;\n  }\n\n  /* \n   * Functions\n   */\n\n  // Add course\n  function _add(string memory _description, uint _deadline)\n    internal validDeadline(_deadline) validPrize(msg.value) \n  {\n    // Create a course instance\n    Course memory course = Course({\n      // Input parameters\n      description: _description,\n      deadline: _deadline,\n      // Autofill course creation timestamp\n      createdAt: block.timestamp,\n      finishedAt: 100,\n      // Default values\n      value: msg.value,\n      completed: false,\n      killed: false\n    });\n\n    // Push created course to user's courses\n    courses[msg.sender].push(course);\n\n    // Log courses are updated\n    emit LogCoursesUpdated();\n  }\n\n  // Set complete\n  function _setComplete(uint _id)\n    internal\n    incomplete(_id)\n  {\n    require(!isExpired(_id), \"due date is expired\");\n    Course memory course = getCourse(_id);\n\n    course.completed = true;\n    course.finishedAt = block.timestamp;\n    uint valueBack = course.value - WAGE ;\n    payOwn(WAGE);\n    payUser(valueBack);\n    replace(_id, course);\n    //addPrize(msg.sender, course.value);\n   \n  }\n\n  // Remove course\n  function _remove(uint _id)\n   internal\n   validToRemove(_id)\n  {\n    uint userCoursesLength = courses[msg.sender].length;\n\n    require(_id < userCoursesLength);\n\n    courses[msg.sender][_id] = courses[msg.sender][userCoursesLength - 1];\n    courses[msg.sender].pop();\n\n    emit LogCoursesUpdated();\n  }\n  \n\n  // Kill a course\n  function _kill(uint _id) internal {\n    Course memory course = getCourse(_id);\n    require(isExpired(_id), \"due date is expired\");\n    course.killed = true;\n    payOwn(course.value);\n    replace(_id, course);\n  }\n\n  // Replace course\n  function replace(uint _id, Course memory _course) private {\n    courses[msg.sender][_id] = _course;\n\n    emit LogCoursesUpdated();\n  }\n\n\n  // Is course overdue\n  function isExpired(uint _id) private view returns (bool) {\n    Course memory course = getCourse(_id);\n    if (course.deadline == 0) {\n      return false;\n    }\n    return (course.deadline < block.timestamp);\n  }\n\n\n  // Get current user courses\n  function _getCourses() internal view returns(Course[] memory) {\n    return courses[msg.sender];\n  }\n\n\n  // Get course\n  function getCourse(uint _id) private view returns(Course memory) {\n    require(courses[msg.sender].length>_id);\n    return courses[msg.sender][_id];\n  }\n  \n\n}",
  "sourcePath": "/Users/iman/smartlearn/smartcontract/contracts/CourseFactory.sol",
  "compiler": {
    "name": "solc",
    "version": "0.8.11+commit.d7f03943.Emscripten.clang"
  },
  "schemaVersion": "3.4.7",
  "updatedAt": "2022-06-24T17:16:29.980Z",
  "devdoc": {
    "kind": "dev",
    "methods": {
      "paused()": {
        "details": "Returns true if the contract is paused, and false otherwise."
      }
    },
    "version": 1
  },
  "userdoc": {
    "kind": "user",
    "methods": {},
    "version": 1
  }
}