{
  "contractName": "Coursable",
  "abi": [
    {
      "inputs": [
        {
          "internalType": "address",
          "name": "",
          "type": "address"
        }
      ],
      "name": "arrived",
      "outputs": [
        {
          "internalType": "uint256",
          "name": "",
          "type": "uint256"
        }
      ],
      "stateMutability": "view",
      "type": "function"
    },
    {
      "inputs": [
        {
          "internalType": "address",
          "name": "",
          "type": "address"
        }
      ],
      "name": "courseCount",
      "outputs": [
        {
          "internalType": "uint256",
          "name": "",
          "type": "uint256"
        }
      ],
      "stateMutability": "view",
      "type": "function"
    },
    {
      "inputs": [],
      "name": "target",
      "outputs": [
        {
          "internalType": "uint256",
          "name": "",
          "type": "uint256"
        }
      ],
      "stateMutability": "view",
      "type": "function"
    },
    {
      "inputs": [
        {
          "internalType": "address",
          "name": "",
          "type": "address"
        }
      ],
      "name": "total",
      "outputs": [
        {
          "internalType": "uint256",
          "name": "",
          "type": "uint256"
        }
      ],
      "stateMutability": "view",
      "type": "function"
    },
    {
      "inputs": [
        {
          "internalType": "uint256",
          "name": "_arrived",
          "type": "uint256"
        }
      ],
      "name": "addToReachTotal",
      "outputs": [],
      "stateMutability": "nonpayable",
      "type": "function"
    },
    {
      "inputs": [],
      "name": "reachTotal",
      "outputs": [
        {
          "internalType": "uint256",
          "name": "",
          "type": "uint256"
        }
      ],
      "stateMutability": "view",
      "type": "function"
    },
    {
      "inputs": [
        {
          "internalType": "uint256",
          "name": "count",
          "type": "uint256"
        }
      ],
      "name": "decreaseCount",
      "outputs": [],
      "stateMutability": "nonpayable",
      "type": "function"
    },
    {
      "inputs": [],
      "name": "getTotal",
      "outputs": [
        {
          "internalType": "uint256",
          "name": "",
          "type": "uint256"
        }
      ],
      "stateMutability": "view",
      "type": "function"
    }
  ],
  "bytecode": "0x608060405234801561001057600080fd5b506001600081905550610655806100286000396000f3fe608060405234801561001057600080fd5b50600436106100885760003560e01c8063775a25e31161005b578063775a25e314610127578063b80dda3c14610145578063d2514e8414610161578063d4b839921461019157610088565b806328f176fe1461008d57806329e07322146100bd57806346d824ee146100d95780634f72048414610109575b600080fd5b6100a760048036038101906100a291906104ac565b6101af565b6040516100b491906104f2565b60405180910390f35b6100d760048036038101906100d29190610539565b6101c7565b005b6100f360048036038101906100ee91906104ac565b61021d565b60405161010091906104f2565b60405180910390f35b610111610235565b60405161011e91906104f2565b60405180910390f35b61012f61027c565b60405161013c91906104f2565b60405180910390f35b61015f600480360381019061015a9190610539565b6102c3565b005b61017b600480360381019061017691906104ac565b610425565b60405161018891906104f2565b60405180910390f35b61019961043d565b6040516101a691906104f2565b60405180910390f35b60026020528060005260406000206000915090505481565b6001816101d49190610595565b905080600260003373ffffffffffffffffffffffffffffffffffffffff1673ffffffffffffffffffffffffffffffffffffffff1681526020019081526020016000208190555050565b60036020528060005260406000206000915090505481565b6000600260003373ffffffffffffffffffffffffffffffffffffffff1673ffffffffffffffffffffffffffffffffffffffff16815260200190815260200160002054905090565b6000600160003373ffffffffffffffffffffffffffffffffffffffff1673ffffffffffffffffffffffffffffffffffffffff16815260200190815260200160002054905090565b80600360003373ffffffffffffffffffffffffffffffffffffffff1673ffffffffffffffffffffffffffffffffffffffff168152602001908152602001600020600082825461031291906105c9565b925050819055505b670de0b6b3a7640000600360003373ffffffffffffffffffffffffffffffffffffffff1673ffffffffffffffffffffffffffffffffffffffff1681526020019081526020016000205410610422576001600260003373ffffffffffffffffffffffffffffffffffffffff1673ffffffffffffffffffffffffffffffffffffffff16815260200190815260200160002060008282546103b891906105c9565b92505081905550670de0b6b3a7640000600360003373ffffffffffffffffffffffffffffffffffffffff1673ffffffffffffffffffffffffffffffffffffffff16815260200190815260200160002060008282546104169190610595565b9250508190555061031a565b50565b60016020528060005260406000206000915090505481565b670de0b6b3a764000081565b600080fd5b600073ffffffffffffffffffffffffffffffffffffffff82169050919050565b60006104798261044e565b9050919050565b6104898161046e565b811461049457600080fd5b50565b6000813590506104a681610480565b92915050565b6000602082840312156104c2576104c1610449565b5b60006104d084828501610497565b91505092915050565b6000819050919050565b6104ec816104d9565b82525050565b600060208201905061050760008301846104e3565b92915050565b610516816104d9565b811461052157600080fd5b50565b6000813590506105338161050d565b92915050565b60006020828403121561054f5761054e610449565b5b600061055d84828501610524565b91505092915050565b7f4e487b7100000000000000000000000000000000000000000000000000000000600052601160045260246000fd5b60006105a0826104d9565b91506105ab836104d9565b9250828210156105be576105bd610566565b5b828203905092915050565b60006105d4826104d9565b91506105df836104d9565b9250827fffffffffffffffffffffffffffffffffffffffffffffffffffffffffffffffff0382111561061457610613610566565b5b82820190509291505056fea2646970667358221220e2062e0093385f581a98a3fc1937292599f227e50c16bfe7d25f182bbe3974a164736f6c634300080b0033",
  "immutableReferences": {},
  "source": "// SPDX-License-Identifier: MIT\npragma solidity >=0.8.0 <0.9.0;\n\nimport \"@openzeppelin/contracts/security/ReentrancyGuard.sol\";\n\ncontract Coursable is ReentrancyGuard {\n    mapping(address => uint256) public total;\n    mapping(address => uint256) public courseCount;\n    mapping(address => uint256) public arrived;\n\n    uint256 constant public target = 1000000000000000000;\n    // uint256 public arrived = 0;\n    function addToTotal(address _address, uint256 _amount)\n        internal\n        nonReentrant\n    {\n        uint256 balance = total[_address];\n        balance += _amount;\n        total[_address] = balance;\n        addToReachTotal(_amount);\n    }\n\n    function addToReachTotal(uint256 _arrived) public {\n        arrived[msg.sender] += _arrived;\n        while(arrived[msg.sender] >= target){\n            courseCount[msg.sender] += 1;\n            arrived[msg.sender] -=target;\n        }\n        // if (total[msg.sender] >= target) {\n        //     courseCount[msg.sender] += 1;\n        //     target += target;\n        // }\n    }\n\n    function reachTotal() public view returns (uint256) {\n        // if(total[msg.sender] >= target){\n        //     courseCount[msg.sender]+=1;\n        //     target+=target;\n        // }\n        // courseCount[msg.sender] = 0;\n        return courseCount[msg.sender];\n    }\n\n    function decreaseCount(uint256 count) public {\n        count -= 1;\n        courseCount[msg.sender] = count;\n    }\n\n    function getTotal() public view returns (uint256) {\n        return total[msg.sender];\n    }\n}\n",
  "sourcePath": "/Users/iman/smartlearn/smartcontract/contracts/Coursable.sol",
  "compiler": {
    "name": "solc",
    "version": "0.8.11+commit.d7f03943.Emscripten.clang"
  },
  "schemaVersion": "3.4.7",
  "updatedAt": "2022-07-06T06:54:00.859Z",
  "devdoc": {
    "kind": "dev",
    "methods": {},
    "version": 1
  },
  "userdoc": {
    "kind": "user",
    "methods": {},
    "version": 1
  }
}