{
  "contractName": "CourseFactory",
  "abi": [
    {
      "anonymous": false,
      "inputs": [],
      "name": "LogCoursesUpdated",
      "type": "event"
    },
    {
      "anonymous": false,
      "inputs": [
        {
          "indexed": false,
          "internalType": "address",
          "name": "account",
          "type": "address"
        }
      ],
      "name": "Paused",
      "type": "event"
    },
    {
      "anonymous": false,
      "inputs": [
        {
          "indexed": false,
          "internalType": "address",
          "name": "account",
          "type": "address"
        }
      ],
      "name": "Unpaused",
      "type": "event"
    },
    {
      "stateMutability": "payable",
      "type": "fallback"
    },
    {
      "inputs": [],
      "name": "WAGE",
      "outputs": [
        {
          "internalType": "uint256",
          "name": "",
          "type": "uint256"
        }
      ],
      "stateMutability": "view",
      "type": "function"
    },
    {
      "inputs": [
        {
          "internalType": "address",
          "name": "",
          "type": "address"
        },
        {
          "internalType": "uint256",
          "name": "",
          "type": "uint256"
        }
      ],
      "name": "courses",
      "outputs": [
        {
          "internalType": "string",
          "name": "description",
          "type": "string"
        },
        {
          "internalType": "uint256",
          "name": "createdAt",
          "type": "uint256"
        },
        {
          "internalType": "uint256",
          "name": "finishedAt",
          "type": "uint256"
        },
        {
          "internalType": "uint256",
          "name": "value",
          "type": "uint256"
        },
        {
          "internalType": "uint256",
          "name": "deadline",
          "type": "uint256"
        },
        {
          "internalType": "bool",
          "name": "completed",
          "type": "bool"
        },
        {
          "internalType": "bool",
          "name": "killed",
          "type": "bool"
        }
      ],
      "stateMutability": "view",
      "type": "function"
    },
    {
      "inputs": [],
      "name": "getTotal",
      "outputs": [
        {
          "internalType": "uint256",
          "name": "",
          "type": "uint256"
        }
      ],
      "stateMutability": "view",
      "type": "function"
    },
    {
      "inputs": [],
      "name": "paused",
      "outputs": [
        {
          "internalType": "bool",
          "name": "",
          "type": "bool"
        }
      ],
      "stateMutability": "view",
      "type": "function"
    },
    {
      "inputs": [
        {
          "internalType": "address",
          "name": "",
          "type": "address"
        }
      ],
      "name": "total",
      "outputs": [
        {
          "internalType": "uint256",
          "name": "",
          "type": "uint256"
        }
      ],
      "stateMutability": "view",
      "type": "function"
    },
    {
      "stateMutability": "payable",
      "type": "receive"
    }
  ],
  "bytecode": "0x608060405234801561001057600080fd5b5060016000819055506000600260006101000a81548160ff0219169083151502179055506105ed806100436000396000f3fe60806040526004361061004e5760003560e01c80635c975abb1461005d578063775a25e314610088578063c1e478cb146100b3578063d1b8c87b146100f6578063d2514e841461012157610058565b3661005857600080fd5b600080fd5b34801561006957600080fd5b5061007261015e565b60405161007f91906102fc565b60405180910390f35b34801561009457600080fd5b5061009d610175565b6040516100aa9190610330565b60405180910390f35b3480156100bf57600080fd5b506100da60048036038101906100d591906103da565b6101bc565b6040516100ed97969594939291906104b3565b60405180910390f35b34801561010257600080fd5b5061010b6102bd565b6040516101189190610330565b60405180910390f35b34801561012d57600080fd5b5061014860048036038101906101439190610529565b6102c9565b6040516101559190610330565b60405180910390f35b6000600260009054906101000a900460ff16905090565b6000600160003373ffffffffffffffffffffffffffffffffffffffff1673ffffffffffffffffffffffffffffffffffffffff16815260200190815260200160002054905090565b600360205281600052604060002081815481106101d857600080fd5b9060005260206000209060060201600091509150508060000180546101fc90610585565b80601f016020809104026020016040519081016040528092919081815260200182805461022890610585565b80156102755780601f1061024a57610100808354040283529160200191610275565b820191906000526020600020905b81548152906001019060200180831161025857829003601f168201915b5050505050908060010154908060020154908060030154908060040154908060050160009054906101000a900460ff16908060050160019054906101000a900460ff16905087565b67016345785d8a000081565b60016020528060005260406000206000915090505481565b60008115159050919050565b6102f6816102e1565b82525050565b600060208201905061031160008301846102ed565b92915050565b6000819050919050565b61032a81610317565b82525050565b60006020820190506103456000830184610321565b92915050565b600080fd5b600073ffffffffffffffffffffffffffffffffffffffff82169050919050565b600061037b82610350565b9050919050565b61038b81610370565b811461039657600080fd5b50565b6000813590506103a881610382565b92915050565b6103b781610317565b81146103c257600080fd5b50565b6000813590506103d4816103ae565b92915050565b600080604083850312156103f1576103f061034b565b5b60006103ff85828601610399565b9250506020610410858286016103c5565b9150509250929050565b600081519050919050565b600082825260208201905092915050565b60005b83811015610454578082015181840152602081019050610439565b83811115610463576000848401525b50505050565b6000601f19601f8301169050919050565b60006104858261041a565b61048f8185610425565b935061049f818560208601610436565b6104a881610469565b840191505092915050565b600060e08201905081810360008301526104cd818a61047a565b90506104dc6020830189610321565b6104e96040830188610321565b6104f66060830187610321565b6105036080830186610321565b61051060a08301856102ed565b61051d60c08301846102ed565b98975050505050505050565b60006020828403121561053f5761053e61034b565b5b600061054d84828501610399565b91505092915050565b7f4e487b7100000000000000000000000000000000000000000000000000000000600052602260045260246000fd5b6000600282049050600182168061059d57607f821691505b602082108114156105b1576105b0610556565b5b5091905056fea264697066735822122033fa273636ee1faff602c293535622693e4fb947c748f3246ea5eeb11957dc2464736f6c634300080b0033",
  "immutableReferences": {},
  "source": "// SPDX-License-Identifier: MIT\npragma solidity >=0.8.0 <0.9.0;\n\nimport \"./Financable.sol\";\nimport \"./Coursable.sol\";\nimport \"@openzeppelin/contracts/security/Pausable.sol\";\n\ncontract CourseFactory is Coursable, Financable, Pausable{\n  /*\n   * Constant variables\n   */\n  \n\n  uint constant public WAGE = 100000000000000000 wei;\n\n\n  /*\n   * State variables\n   */\n  \n  // Course structure\n  struct Course {\n    string description;\n    // address anotherWallet;\n    uint createdAt;\n    uint finishedAt;\n    uint value;\n    uint deadline;\n    bool completed;\n    bool killed;\n  }\n\n  // Courses\n  mapping (address => Course[]) public courses;\n\n\n  /* \n   * Event\n   */\n\n  // Courses updated event\n  event LogCoursesUpdated ();\n\n\n  /* \n   * Modifiers\n   */\n\n  // Due date should be after current block timestamp\n  modifier validDeadline (uint _deadline) {\n    require(_deadline > block.timestamp);\n    _;\n  }\n\n  modifier validPrize (uint _value) {\n    require(_value >= WAGE);\n    _;\n  }\n\n  modifier validToRemove (uint _id){\n    require(getCourse(_id).completed || getCourse(_id).killed);\n    _;\n  }\n\n\n  // If a course is not completed\n  modifier incomplete (uint _id) {\n    require(!getCourse(_id).completed);\n    _;\n  }\n\n  /* \n   * Functions\n   */\n\n  // Add course\n  function _add(string memory _description, uint _deadline)\n    internal validDeadline(_deadline) validPrize(msg.value) \n  {\n    // Create a course instance\n    Course memory course = Course({\n      // Input parameters\n      description: _description,\n      deadline: _deadline,\n      // another: _anotherWallet,\n      // Autofill course creation timestamp\n      createdAt: block.timestamp,\n      finishedAt: 100,\n      // Default values\n      value: msg.value,\n      completed: false,\n      killed: false\n    });\n\n    // Push created course to user's courses\n    courses[msg.sender].push(course);\n\n    // Log courses are updated\n    emit LogCoursesUpdated();\n  }\n\n    function _donate() internal {\n    require(msg.value != 0);\n    payOwn(msg.value);\n    addToTotal(msg.sender,msg.value);\n  }\n\n  // Set complete\n  function _setComplete(uint _id)\n    internal\n    incomplete(_id)\n  {\n    require(!isExpired(_id), \"due date is expired\");\n    Course memory course = getCourse(_id);\n\n    course.completed = true;\n    course.finishedAt = block.timestamp;\n    uint valueBack = course.value - WAGE ;\n    payOwn(WAGE);\n    payUser(valueBack);\n    replace(_id, course);\n    addToTotal(msg.sender,WAGE);\n    //addPrize(msg.sender, course.value);\n   \n  }\n\n  // Remove course\n  function _remove(uint _id)\n   internal\n   validToRemove(_id)\n  {\n    uint userCoursesLength = courses[msg.sender].length;\n\n    require(_id < userCoursesLength);\n\n    courses[msg.sender][_id] = courses[msg.sender][userCoursesLength - 1];\n    courses[msg.sender].pop();\n\n    emit LogCoursesUpdated();\n  }\n  \n\n  // Kill a course\n  function _kill(uint _id) internal {\n    Course memory course = getCourse(_id);\n    require(isExpired(_id), \"due date is expired\");\n    course.killed = true;\n    payOwn(course.value);\n    replace(_id, course);\n    // addToTotal(msg.sender,course.value);\n  }\n\n  // Replace course\n  function replace(uint _id, Course memory _course) private {\n    courses[msg.sender][_id] = _course;\n\n    emit LogCoursesUpdated();\n  }\n\n\n  // Is course overdue\n  function isExpired(uint _id) private view returns (bool) {\n    Course memory course = getCourse(_id);\n    if (course.deadline == 0) {\n      return false;\n    }\n    return (course.deadline < block.timestamp);\n  }\n\n\n  // Get current user courses\n  function _getCourses() internal view returns(Course[] memory) {\n    return courses[msg.sender];\n  }\n\n\n  // Get course\n  function getCourse(uint _id) private view returns(Course memory) {\n    require(courses[msg.sender].length>_id);\n    return courses[msg.sender][_id];\n  }\n  \n\n}",
  "sourcePath": "/Users/iman/smartlearn/smartcontract/contracts/CourseFactory.sol",
  "compiler": {
    "name": "solc",
    "version": "0.8.11+commit.d7f03943.Emscripten.clang"
  },
  "schemaVersion": "3.4.7",
  "updatedAt": "2022-07-03T01:20:42.448Z",
  "devdoc": {
    "kind": "dev",
    "methods": {
      "paused()": {
        "details": "Returns true if the contract is paused, and false otherwise."
      }
    },
    "version": 1
  },
  "userdoc": {
    "kind": "user",
    "methods": {},
    "version": 1
  }
}