{
  "contractName": "CourseFactory",
  "abi": [
    {
      "anonymous": false,
      "inputs": [],
      "name": "LogCoursesUpdated",
      "type": "event"
    },
    {
      "anonymous": false,
      "inputs": [
        {
          "indexed": false,
          "internalType": "address",
          "name": "account",
          "type": "address"
        }
      ],
      "name": "Paused",
      "type": "event"
    },
    {
      "anonymous": false,
      "inputs": [
        {
          "indexed": false,
          "internalType": "address",
          "name": "account",
          "type": "address"
        }
      ],
      "name": "Unpaused",
      "type": "event"
    },
    {
      "stateMutability": "payable",
      "type": "fallback"
    },
    {
      "inputs": [],
      "name": "WAGE",
      "outputs": [
        {
          "internalType": "uint256",
          "name": "",
          "type": "uint256"
        }
      ],
      "stateMutability": "view",
      "type": "function"
    },
    {
      "inputs": [
        {
          "internalType": "uint256",
          "name": "_arrived",
          "type": "uint256"
        }
      ],
      "name": "addToReachTotal",
      "outputs": [],
      "stateMutability": "nonpayable",
      "type": "function"
    },
    {
      "inputs": [
        {
          "internalType": "address",
          "name": "",
          "type": "address"
        }
      ],
      "name": "arrived",
      "outputs": [
        {
          "internalType": "uint256",
          "name": "",
          "type": "uint256"
        }
      ],
      "stateMutability": "view",
      "type": "function"
    },
    {
      "inputs": [
        {
          "internalType": "address",
          "name": "",
          "type": "address"
        }
      ],
      "name": "courseCount",
      "outputs": [
        {
          "internalType": "uint256",
          "name": "",
          "type": "uint256"
        }
      ],
      "stateMutability": "view",
      "type": "function"
    },
    {
      "inputs": [
        {
          "internalType": "address",
          "name": "",
          "type": "address"
        },
        {
          "internalType": "uint256",
          "name": "",
          "type": "uint256"
        }
      ],
      "name": "courses",
      "outputs": [
        {
          "internalType": "string",
          "name": "description",
          "type": "string"
        },
        {
          "internalType": "address",
          "name": "anotherWallet",
          "type": "address"
        },
        {
          "internalType": "uint256",
          "name": "createdAt",
          "type": "uint256"
        },
        {
          "internalType": "uint256",
          "name": "finishedAt",
          "type": "uint256"
        },
        {
          "internalType": "uint256",
          "name": "value",
          "type": "uint256"
        },
        {
          "internalType": "uint256",
          "name": "deadline",
          "type": "uint256"
        },
        {
          "internalType": "bool",
          "name": "completed",
          "type": "bool"
        },
        {
          "internalType": "bool",
          "name": "killed",
          "type": "bool"
        },
        {
          "internalType": "bool",
          "name": "punishMe",
          "type": "bool"
        },
        {
          "internalType": "bool",
          "name": "toAnother",
          "type": "bool"
        }
      ],
      "stateMutability": "view",
      "type": "function"
    },
    {
      "inputs": [
        {
          "internalType": "uint256",
          "name": "count",
          "type": "uint256"
        }
      ],
      "name": "decreaseCount",
      "outputs": [],
      "stateMutability": "nonpayable",
      "type": "function"
    },
    {
      "inputs": [],
      "name": "getTotal",
      "outputs": [
        {
          "internalType": "uint256",
          "name": "",
          "type": "uint256"
        }
      ],
      "stateMutability": "view",
      "type": "function"
    },
    {
      "inputs": [],
      "name": "paused",
      "outputs": [
        {
          "internalType": "bool",
          "name": "",
          "type": "bool"
        }
      ],
      "stateMutability": "view",
      "type": "function"
    },
    {
      "inputs": [],
      "name": "reachTotal",
      "outputs": [
        {
          "internalType": "uint256",
          "name": "",
          "type": "uint256"
        }
      ],
      "stateMutability": "view",
      "type": "function"
    },
    {
      "inputs": [],
      "name": "target",
      "outputs": [
        {
          "internalType": "uint256",
          "name": "",
          "type": "uint256"
        }
      ],
      "stateMutability": "view",
      "type": "function"
    },
    {
      "inputs": [
        {
          "internalType": "address",
          "name": "",
          "type": "address"
        }
      ],
      "name": "total",
      "outputs": [
        {
          "internalType": "uint256",
          "name": "",
          "type": "uint256"
        }
      ],
      "stateMutability": "view",
      "type": "function"
    },
    {
      "stateMutability": "payable",
      "type": "receive"
    }
  ],
  "bytecode": "0x608060405234801561001057600080fd5b5060016000819055506000600460006101000a81548160ff021916908315150217905550610b0d806100436000396000f3fe6080604052600436106100a05760003560e01c8063775a25e311610064578063775a25e3146101a8578063b80dda3c146101d3578063c1e478cb146101fc578063d1b8c87b14610242578063d2514e841461026d578063d4b83992146102aa576100aa565b806328f176fe146100af57806329e07322146100ec57806346d824ee146101155780634f720484146101525780635c975abb1461017d576100aa565b366100aa57600080fd5b600080fd5b3480156100bb57600080fd5b506100d660048036038101906100d19190610742565b6102d5565b6040516100e39190610788565b60405180910390f35b3480156100f857600080fd5b50610113600480360381019061010e91906107cf565b6102ed565b005b34801561012157600080fd5b5061013c60048036038101906101379190610742565b610343565b6040516101499190610788565b60405180910390f35b34801561015e57600080fd5b5061016761035b565b6040516101749190610788565b60405180910390f35b34801561018957600080fd5b506101926103a2565b60405161019f9190610817565b60405180910390f35b3480156101b457600080fd5b506101bd6103b9565b6040516101ca9190610788565b60405180910390f35b3480156101df57600080fd5b506101fa60048036038101906101f591906107cf565b610400565b005b34801561020857600080fd5b50610223600480360381019061021e9190610832565b610562565b6040516102399a9998979695949392919061091a565b60405180910390f35b34801561024e57600080fd5b506102576106af565b6040516102649190610788565b60405180910390f35b34801561027957600080fd5b50610294600480360381019061028f9190610742565b6106bb565b6040516102a19190610788565b60405180910390f35b3480156102b657600080fd5b506102bf6106d3565b6040516102cc9190610788565b60405180910390f35b60026020528060005260406000206000915090505481565b6001816102fa91906109ec565b905080600260003373ffffffffffffffffffffffffffffffffffffffff1673ffffffffffffffffffffffffffffffffffffffff1681526020019081526020016000208190555050565b60036020528060005260406000206000915090505481565b6000600260003373ffffffffffffffffffffffffffffffffffffffff1673ffffffffffffffffffffffffffffffffffffffff16815260200190815260200160002054905090565b6000600460009054906101000a900460ff16905090565b6000600160003373ffffffffffffffffffffffffffffffffffffffff1673ffffffffffffffffffffffffffffffffffffffff16815260200190815260200160002054905090565b80600360003373ffffffffffffffffffffffffffffffffffffffff1673ffffffffffffffffffffffffffffffffffffffff168152602001908152602001600020600082825461044f9190610a20565b925050819055505b670de0b6b3a7640000600360003373ffffffffffffffffffffffffffffffffffffffff1673ffffffffffffffffffffffffffffffffffffffff168152602001908152602001600020541061055f576001600260003373ffffffffffffffffffffffffffffffffffffffff1673ffffffffffffffffffffffffffffffffffffffff16815260200190815260200160002060008282546104f59190610a20565b92505081905550670de0b6b3a7640000600360003373ffffffffffffffffffffffffffffffffffffffff1673ffffffffffffffffffffffffffffffffffffffff168152602001908152602001600020600082825461055391906109ec565b92505081905550610457565b50565b6005602052816000526040600020818154811061057e57600080fd5b9060005260206000209060070201600091509150508060000180546105a290610aa5565b80601f01602080910402602001604051908101604052809291908181526020018280546105ce90610aa5565b801561061b5780601f106105f05761010080835404028352916020019161061b565b820191906000526020600020905b8154815290600101906020018083116105fe57829003601f168201915b5050505050908060010160009054906101000a900473ffffffffffffffffffffffffffffffffffffffff16908060020154908060030154908060040154908060050154908060060160009054906101000a900460ff16908060060160019054906101000a900460ff16908060060160029054906101000a900460ff16908060060160039054906101000a900460ff1690508a565b67016345785d8a000081565b60016020528060005260406000206000915090505481565b670de0b6b3a764000081565b600080fd5b600073ffffffffffffffffffffffffffffffffffffffff82169050919050565b600061070f826106e4565b9050919050565b61071f81610704565b811461072a57600080fd5b50565b60008135905061073c81610716565b92915050565b600060208284031215610758576107576106df565b5b60006107668482850161072d565b91505092915050565b6000819050919050565b6107828161076f565b82525050565b600060208201905061079d6000830184610779565b92915050565b6107ac8161076f565b81146107b757600080fd5b50565b6000813590506107c9816107a3565b92915050565b6000602082840312156107e5576107e46106df565b5b60006107f3848285016107ba565b91505092915050565b60008115159050919050565b610811816107fc565b82525050565b600060208201905061082c6000830184610808565b92915050565b60008060408385031215610849576108486106df565b5b60006108578582860161072d565b9250506020610868858286016107ba565b9150509250929050565b600081519050919050565b600082825260208201905092915050565b60005b838110156108ac578082015181840152602081019050610891565b838111156108bb576000848401525b50505050565b6000601f19601f8301169050919050565b60006108dd82610872565b6108e7818561087d565b93506108f781856020860161088e565b610900816108c1565b840191505092915050565b61091481610704565b82525050565b6000610140820190508181036000830152610935818d6108d2565b9050610944602083018c61090b565b610951604083018b610779565b61095e606083018a610779565b61096b6080830189610779565b61097860a0830188610779565b61098560c0830187610808565b61099260e0830186610808565b6109a0610100830185610808565b6109ae610120830184610808565b9b9a5050505050505050505050565b7f4e487b7100000000000000000000000000000000000000000000000000000000600052601160045260246000fd5b60006109f78261076f565b9150610a028361076f565b925082821015610a1557610a146109bd565b5b828203905092915050565b6000610a2b8261076f565b9150610a368361076f565b9250827fffffffffffffffffffffffffffffffffffffffffffffffffffffffffffffffff03821115610a6b57610a6a6109bd565b5b828201905092915050565b7f4e487b7100000000000000000000000000000000000000000000000000000000600052602260045260246000fd5b60006002820490506001821680610abd57607f821691505b60208210811415610ad157610ad0610a76565b5b5091905056fea264697066735822122049e380abcc42462a315cf1c7e3a1483c9f1c8d4f7c1ee43b913a6724e39c582f64736f6c634300080b0033",
  "immutableReferences": {},
  "source": "// SPDX-License-Identifier: MIT\npragma solidity >=0.8.0 <0.9.0;\n\nimport \"./Financable.sol\";\nimport \"./Coursable.sol\";\nimport \"@openzeppelin/contracts/security/Pausable.sol\";\n\ncontract CourseFactory is Coursable, Financable, Pausable{\n  /*\n   * Constant variables\n   */\n  \n\n  uint constant public WAGE = 100000000000000000 wei;\n\n\n  /*\n   * State variables\n   */\n  \n  // Course structure\n  struct Course {\n    string description;\n    address anotherWallet;\n    uint createdAt;\n    uint finishedAt;\n    uint value;\n    uint deadline;\n    bool completed;\n    bool killed;\n    bool punishMe;\n    bool toAnother;\n  }\n\n  // Courses\n  mapping (address => Course[]) public courses;\n\n\n  /* \n   * Event\n   */\n\n  // Courses updated event\n  event LogCoursesUpdated ();\n\n\n  /* \n   * Modifiers\n   */\n\n  // Due date should be after current block timestamp\n  modifier validDeadline (uint _deadline) {\n    require(_deadline > block.timestamp);\n    _;\n  }\n\n  modifier validPrize (uint _value) {\n    require(_value > WAGE);\n    _;\n  }\n\n  modifier validToRemove (uint _id){\n    require(getCourse(_id).completed || getCourse(_id).killed);\n    _;\n  }\n\n\n  // If a course is not completed\n  modifier incomplete (uint _id) {\n    require(!getCourse(_id).completed);\n    _;\n  }\n\n  modifier validAnotherAddress (address _anotherWallet , bool _toAnother) {\n    require( (_anotherWallet != address(0) && _toAnother) || (_anotherWallet == address(0) &&  !_toAnother));\n    _;\n  }\n\n  /* \n   * Functions\n   */\n\n  // Add course\n  function _add(string memory _description, uint _deadline, address _anotherWallet, bool _punishMe, bool _toAnother)\n    internal validDeadline(_deadline) validPrize(msg.value) validAnotherAddress(_anotherWallet,_toAnother)\n  {\n    // Create a course instance\n    Course memory course = Course({\n      // Input parameters\n      description: _description,\n      deadline: _deadline,\n      anotherWallet: _anotherWallet,\n      // Autofill course creation timestamp\n      createdAt: block.timestamp,\n      finishedAt: 100,\n      // Default values\n      value: msg.value,\n      completed: false,\n      killed: false,\n      punishMe: _punishMe,\n      toAnother: _toAnother\n    });\n\n    // Push created course to user's courses\n    courses[msg.sender].push(course);\n\n    // Log courses are updated\n    emit LogCoursesUpdated();\n  }\n\n    function _donate() internal {\n    require(msg.value != 0);\n    payOwn(msg.value);\n    addToTotal(msg.sender,msg.value);\n  }\n\n  // Set complete\n  function _setComplete(uint _id)\n    internal\n    incomplete(_id)\n  {\n    require(!isExpired(_id), \"due date is expired\");\n    Course memory course = getCourse(_id);\n\n    course.completed = true;\n    course.finishedAt = block.timestamp;\n    uint valueBack = course.value - WAGE ;\n    payOwn(WAGE);\n    if(course.toAnother == true){\n      payAnother(course.anotherWallet ,valueBack );\n    }else{\n    payUser(valueBack);\n    }\n    replace(_id, course);\n    addToTotal(msg.sender,WAGE);\n    //addPrize(msg.sender, course.value);  \n  }\n\n  // Remove course\n  function _remove(uint _id)\n   internal\n   validToRemove(_id)\n  {\n    uint userCoursesLength = courses[msg.sender].length;\n\n    require(_id < userCoursesLength);\n\n    courses[msg.sender][_id] = courses[msg.sender][userCoursesLength - 1];\n    courses[msg.sender].pop();\n\n    emit LogCoursesUpdated();\n  }\n  \n\n  // Kill a course\n  function _kill(uint _id) internal {\n    Course memory course = getCourse(_id);\n    uint valueBack = course.value - WAGE;\n    require(isExpired(_id), \"due date is expired\");\n    course.killed = true;\n    if (course.punishMe == false) {\n      payOwn(WAGE);\n      payUser(valueBack);\n      addToTotal(msg.sender,WAGE);\n    }else{\n      payOwn(course.value);\n      addToTotal(msg.sender,course.value);\n    }\n    replace(_id, course);\n    // addToTotal(msg.sender,course.value);\n  }\n\n  // Replace course\n  function replace(uint _id, Course memory _course) private {\n    courses[msg.sender][_id] = _course;\n\n    emit LogCoursesUpdated();\n  }\n\n\n  // Is course overdue\n  function isExpired(uint _id) private view returns (bool) {\n    Course memory course = getCourse(_id);\n    if (course.deadline == 0) {\n      return false;\n    }\n    return (course.deadline < block.timestamp);\n  }\n\n\n  // Get current user courses\n  function _getCourses() internal view returns(Course[] memory) {\n    return courses[msg.sender];\n  }\n\n\n  // Get course\n  function getCourse(uint _id) private view returns(Course memory) {\n    require(courses[msg.sender].length>_id);\n    return courses[msg.sender][_id];\n  }\n  \n\n}",
  "sourcePath": "/Users/iman/smartlearn/smartcontract/contracts/CourseFactory.sol",
  "compiler": {
    "name": "solc",
    "version": "0.8.11+commit.d7f03943.Emscripten.clang"
  },
  "schemaVersion": "3.4.7",
  "updatedAt": "2022-07-06T02:47:17.184Z",
  "devdoc": {
    "kind": "dev",
    "methods": {
      "paused()": {
        "details": "Returns true if the contract is paused, and false otherwise."
      }
    },
    "version": 1
  },
  "userdoc": {
    "kind": "user",
    "methods": {},
    "version": 1
  }
}