{
  "contractName": "CourseFactory",
  "abi": [
    {
      "anonymous": false,
      "inputs": [],
      "name": "LogCoursesUpdated",
      "type": "event"
    },
    {
      "anonymous": false,
      "inputs": [
        {
          "indexed": false,
          "internalType": "address",
          "name": "account",
          "type": "address"
        }
      ],
      "name": "Paused",
      "type": "event"
    },
    {
      "anonymous": false,
      "inputs": [
        {
          "indexed": false,
          "internalType": "address",
          "name": "account",
          "type": "address"
        }
      ],
      "name": "Unpaused",
      "type": "event"
    },
    {
      "stateMutability": "payable",
      "type": "fallback"
    },
    {
      "inputs": [],
      "name": "WAGE",
      "outputs": [
        {
          "internalType": "uint256",
          "name": "",
          "type": "uint256"
        }
      ],
      "stateMutability": "view",
      "type": "function"
    },
    {
      "inputs": [],
      "name": "addToReachTotal",
      "outputs": [],
      "stateMutability": "nonpayable",
      "type": "function"
    },
    {
      "inputs": [
        {
          "internalType": "address",
          "name": "",
          "type": "address"
        }
      ],
      "name": "courseCount",
      "outputs": [
        {
          "internalType": "uint256",
          "name": "",
          "type": "uint256"
        }
      ],
      "stateMutability": "view",
      "type": "function"
    },
    {
      "inputs": [
        {
          "internalType": "address",
          "name": "",
          "type": "address"
        },
        {
          "internalType": "uint256",
          "name": "",
          "type": "uint256"
        }
      ],
      "name": "courses",
      "outputs": [
        {
          "internalType": "string",
          "name": "description",
          "type": "string"
        },
        {
          "internalType": "address",
          "name": "anotherWallet",
          "type": "address"
        },
        {
          "internalType": "uint256",
          "name": "createdAt",
          "type": "uint256"
        },
        {
          "internalType": "uint256",
          "name": "finishedAt",
          "type": "uint256"
        },
        {
          "internalType": "uint256",
          "name": "value",
          "type": "uint256"
        },
        {
          "internalType": "uint256",
          "name": "deadline",
          "type": "uint256"
        },
        {
          "internalType": "bool",
          "name": "completed",
          "type": "bool"
        },
        {
          "internalType": "bool",
          "name": "killed",
          "type": "bool"
        },
        {
          "internalType": "bool",
          "name": "punishMe",
          "type": "bool"
        },
        {
          "internalType": "bool",
          "name": "toAnother",
          "type": "bool"
        }
      ],
      "stateMutability": "view",
      "type": "function"
    },
    {
      "inputs": [
        {
          "internalType": "uint256",
          "name": "count",
          "type": "uint256"
        }
      ],
      "name": "decreaseCount",
      "outputs": [],
      "stateMutability": "nonpayable",
      "type": "function"
    },
    {
      "inputs": [],
      "name": "getTotal",
      "outputs": [
        {
          "internalType": "uint256",
          "name": "",
          "type": "uint256"
        }
      ],
      "stateMutability": "view",
      "type": "function"
    },
    {
      "inputs": [],
      "name": "paused",
      "outputs": [
        {
          "internalType": "bool",
          "name": "",
          "type": "bool"
        }
      ],
      "stateMutability": "view",
      "type": "function"
    },
    {
      "inputs": [],
      "name": "reachTotal",
      "outputs": [
        {
          "internalType": "uint256",
          "name": "",
          "type": "uint256"
        }
      ],
      "stateMutability": "view",
      "type": "function"
    },
    {
      "inputs": [],
      "name": "target",
      "outputs": [
        {
          "internalType": "uint256",
          "name": "",
          "type": "uint256"
        }
      ],
      "stateMutability": "view",
      "type": "function"
    },
    {
      "inputs": [
        {
          "internalType": "address",
          "name": "",
          "type": "address"
        }
      ],
      "name": "total",
      "outputs": [
        {
          "internalType": "uint256",
          "name": "",
          "type": "uint256"
        }
      ],
      "stateMutability": "view",
      "type": "function"
    },
    {
      "stateMutability": "payable",
      "type": "receive"
    }
  ],
  "bytecode": "0x608060405267016345785d8a000060035534801561001c57600080fd5b5060016000819055506000600460006101000a81548160ff0219169083151502179055506109f08061004f6000396000f3fe6080604052600436106100955760003560e01c8063775a25e311610059578063775a25e314610177578063c1e478cb146101a2578063d1b8c87b146101e8578063d2514e8414610213578063d4b83992146102505761009f565b806328f176fe146100a4578063299f28e4146100e157806329e07322146100f85780634f720484146101215780635c975abb1461014c5761009f565b3661009f57600080fd5b600080fd5b3480156100b057600080fd5b506100cb60048036038101906100c69190610625565b61027b565b6040516100d8919061066b565b60405180910390f35b3480156100ed57600080fd5b506100f6610293565b005b34801561010457600080fd5b5061011f600480360381019061011a91906106b2565b610350565b005b34801561012d57600080fd5b506101366103a6565b604051610143919061066b565b60405180910390f35b34801561015857600080fd5b506101616103ed565b60405161016e91906106fa565b60405180910390f35b34801561018357600080fd5b5061018c610404565b604051610199919061066b565b60405180910390f35b3480156101ae57600080fd5b506101c960048036038101906101c49190610715565b61044b565b6040516101df9a999897969594939291906107fd565b60405180910390f35b3480156101f457600080fd5b506101fd610598565b60405161020a919061066b565b60405180910390f35b34801561021f57600080fd5b5061023a60048036038101906102359190610625565b6105a4565b604051610247919061066b565b60405180910390f35b34801561025c57600080fd5b506102656105bc565b604051610272919061066b565b60405180910390f35b60026020528060005260406000206000915090505481565b600354600160003373ffffffffffffffffffffffffffffffffffffffff1673ffffffffffffffffffffffffffffffffffffffff168152602001908152602001600020541061034e576001600260003373ffffffffffffffffffffffffffffffffffffffff1673ffffffffffffffffffffffffffffffffffffffff168152602001908152602001600020600082825461032b91906108cf565b925050819055506003546003600082825461034691906108cf565b925050819055505b565b60018161035d9190610925565b905080600260003373ffffffffffffffffffffffffffffffffffffffff1673ffffffffffffffffffffffffffffffffffffffff1681526020019081526020016000208190555050565b6000600260003373ffffffffffffffffffffffffffffffffffffffff1673ffffffffffffffffffffffffffffffffffffffff16815260200190815260200160002054905090565b6000600460009054906101000a900460ff16905090565b6000600160003373ffffffffffffffffffffffffffffffffffffffff1673ffffffffffffffffffffffffffffffffffffffff16815260200190815260200160002054905090565b6005602052816000526040600020818154811061046757600080fd5b90600052602060002090600702016000915091505080600001805461048b90610988565b80601f01602080910402602001604051908101604052809291908181526020018280546104b790610988565b80156105045780601f106104d957610100808354040283529160200191610504565b820191906000526020600020905b8154815290600101906020018083116104e757829003601f168201915b5050505050908060010160009054906101000a900473ffffffffffffffffffffffffffffffffffffffff16908060020154908060030154908060040154908060050154908060060160009054906101000a900460ff16908060060160019054906101000a900460ff16908060060160029054906101000a900460ff16908060060160039054906101000a900460ff1690508a565b67016345785d8a000081565b60016020528060005260406000206000915090505481565b60035481565b600080fd5b600073ffffffffffffffffffffffffffffffffffffffff82169050919050565b60006105f2826105c7565b9050919050565b610602816105e7565b811461060d57600080fd5b50565b60008135905061061f816105f9565b92915050565b60006020828403121561063b5761063a6105c2565b5b600061064984828501610610565b91505092915050565b6000819050919050565b61066581610652565b82525050565b6000602082019050610680600083018461065c565b92915050565b61068f81610652565b811461069a57600080fd5b50565b6000813590506106ac81610686565b92915050565b6000602082840312156106c8576106c76105c2565b5b60006106d68482850161069d565b91505092915050565b60008115159050919050565b6106f4816106df565b82525050565b600060208201905061070f60008301846106eb565b92915050565b6000806040838503121561072c5761072b6105c2565b5b600061073a85828601610610565b925050602061074b8582860161069d565b9150509250929050565b600081519050919050565b600082825260208201905092915050565b60005b8381101561078f578082015181840152602081019050610774565b8381111561079e576000848401525b50505050565b6000601f19601f8301169050919050565b60006107c082610755565b6107ca8185610760565b93506107da818560208601610771565b6107e3816107a4565b840191505092915050565b6107f7816105e7565b82525050565b6000610140820190508181036000830152610818818d6107b5565b9050610827602083018c6107ee565b610834604083018b61065c565b610841606083018a61065c565b61084e608083018961065c565b61085b60a083018861065c565b61086860c08301876106eb565b61087560e08301866106eb565b6108836101008301856106eb565b6108916101208301846106eb565b9b9a5050505050505050505050565b7f4e487b7100000000000000000000000000000000000000000000000000000000600052601160045260246000fd5b60006108da82610652565b91506108e583610652565b9250827fffffffffffffffffffffffffffffffffffffffffffffffffffffffffffffffff0382111561091a576109196108a0565b5b828201905092915050565b600061093082610652565b915061093b83610652565b92508282101561094e5761094d6108a0565b5b828203905092915050565b7f4e487b7100000000000000000000000000000000000000000000000000000000600052602260045260246000fd5b600060028204905060018216806109a057607f821691505b602082108114156109b4576109b3610959565b5b5091905056fea2646970667358221220beab446989f8e182014ebfd6f1b295d416a0eb2e6bed95c57ee39d02d0ad8bf064736f6c634300080b0033",
  "immutableReferences": {},
  "source": "// SPDX-License-Identifier: MIT\npragma solidity >=0.8.0 <0.9.0;\n\nimport \"./Financable.sol\";\nimport \"./Coursable.sol\";\nimport \"@openzeppelin/contracts/security/Pausable.sol\";\n\ncontract CourseFactory is Coursable, Financable, Pausable{\n  /*\n   * Constant variables\n   */\n  \n\n  uint constant public WAGE = 100000000000000000 wei;\n\n\n  /*\n   * State variables\n   */\n  \n  // Course structure\n  struct Course {\n    string description;\n    address anotherWallet;\n    uint createdAt;\n    uint finishedAt;\n    uint value;\n    uint deadline;\n    bool completed;\n    bool killed;\n    bool punishMe;\n    bool toAnother;\n  }\n\n  // Courses\n  mapping (address => Course[]) public courses;\n\n\n  /* \n   * Event\n   */\n\n  // Courses updated event\n  event LogCoursesUpdated ();\n\n\n  /* \n   * Modifiers\n   */\n\n  // Due date should be after current block timestamp\n  modifier validDeadline (uint _deadline) {\n    require(_deadline > block.timestamp);\n    _;\n  }\n\n  modifier validPrize (uint _value) {\n    require(_value > WAGE);\n    _;\n  }\n\n  modifier validToRemove (uint _id){\n    require(getCourse(_id).completed || getCourse(_id).killed);\n    _;\n  }\n\n\n  // If a course is not completed\n  modifier incomplete (uint _id) {\n    require(!getCourse(_id).completed);\n    _;\n  }\n\n  modifier validAnotherAddress (address _anotherWallet , bool _toAnother) {\n    require( (_anotherWallet != address(0) && _toAnother) || (_anotherWallet == address(0) &&  !_toAnother));\n    _;\n  }\n\n  /* \n   * Functions\n   */\n\n  // Add course\n  function _add(string memory _description, uint _deadline, address _anotherWallet, bool _punishMe, bool _toAnother)\n    internal validDeadline(_deadline) validPrize(msg.value) validAnotherAddress(_anotherWallet,_toAnother)\n  {\n    // Create a course instance\n    Course memory course = Course({\n      // Input parameters\n      description: _description,\n      deadline: _deadline,\n      anotherWallet: _anotherWallet,\n      // Autofill course creation timestamp\n      createdAt: block.timestamp,\n      finishedAt: 100,\n      // Default values\n      value: msg.value,\n      completed: false,\n      killed: false,\n      punishMe: _punishMe,\n      toAnother: _toAnother\n    });\n\n    // Push created course to user's courses\n    courses[msg.sender].push(course);\n\n    // Log courses are updated\n    emit LogCoursesUpdated();\n  }\n\n    function _donate() internal {\n    require(msg.value != 0);\n    payOwn(msg.value);\n    addToTotal(msg.sender,msg.value);\n  }\n\n  // Set complete\n  function _setComplete(uint _id)\n    internal\n    incomplete(_id)\n  {\n    require(!isExpired(_id), \"due date is expired\");\n    Course memory course = getCourse(_id);\n\n    course.completed = true;\n    course.finishedAt = block.timestamp;\n    uint valueBack = course.value - WAGE ;\n    payOwn(WAGE);\n    if(course.toAnother == true){\n      payAnother(course.anotherWallet ,valueBack );\n    }else{\n    payUser(valueBack);\n    }\n    replace(_id, course);\n    addToTotal(msg.sender,WAGE);\n    //addPrize(msg.sender, course.value);  \n  }\n\n  // Remove course\n  function _remove(uint _id)\n   internal\n   validToRemove(_id)\n  {\n    uint userCoursesLength = courses[msg.sender].length;\n\n    require(_id < userCoursesLength);\n\n    courses[msg.sender][_id] = courses[msg.sender][userCoursesLength - 1];\n    courses[msg.sender].pop();\n\n    emit LogCoursesUpdated();\n  }\n  \n\n  // Kill a course\n  function _kill(uint _id) internal {\n    Course memory course = getCourse(_id);\n    uint valueBack = course.value - WAGE;\n    require(isExpired(_id), \"due date is expired\");\n    course.killed = true;\n    if (course.punishMe == false) {\n      payOwn(WAGE);\n      payUser(valueBack);\n      addToTotal(msg.sender,WAGE);\n    }else{\n      payOwn(course.value);\n      addToTotal(msg.sender,course.value);\n    }\n    replace(_id, course);\n    // addToTotal(msg.sender,course.value);\n  }\n\n  // Replace course\n  function replace(uint _id, Course memory _course) private {\n    courses[msg.sender][_id] = _course;\n\n    emit LogCoursesUpdated();\n  }\n\n\n  // Is course overdue\n  function isExpired(uint _id) private view returns (bool) {\n    Course memory course = getCourse(_id);\n    if (course.deadline == 0) {\n      return false;\n    }\n    return (course.deadline < block.timestamp);\n  }\n\n\n  // Get current user courses\n  function _getCourses() internal view returns(Course[] memory) {\n    return courses[msg.sender];\n  }\n\n\n  // Get course\n  function getCourse(uint _id) private view returns(Course memory) {\n    require(courses[msg.sender].length>_id);\n    return courses[msg.sender][_id];\n  }\n  \n\n}",
  "sourcePath": "/Users/iman/smartlearn/smartcontract/contracts/CourseFactory.sol",
  "compiler": {
    "name": "solc",
    "version": "0.8.11+commit.d7f03943.Emscripten.clang"
  },
  "schemaVersion": "3.4.7",
  "updatedAt": "2022-07-04T22:52:01.937Z",
  "devdoc": {
    "kind": "dev",
    "methods": {
      "paused()": {
        "details": "Returns true if the contract is paused, and false otherwise."
      }
    },
    "version": 1
  },
  "userdoc": {
    "kind": "user",
    "methods": {},
    "version": 1
  }
}