{
  "contractName": "Coursable",
  "abi": [
    {
      "inputs": [
        {
          "internalType": "address",
          "name": "",
          "type": "address"
        }
      ],
      "name": "courseCount",
      "outputs": [
        {
          "internalType": "uint256",
          "name": "",
          "type": "uint256"
        }
      ],
      "stateMutability": "view",
      "type": "function"
    },
    {
      "inputs": [],
      "name": "target",
      "outputs": [
        {
          "internalType": "uint256",
          "name": "",
          "type": "uint256"
        }
      ],
      "stateMutability": "view",
      "type": "function"
    },
    {
      "inputs": [
        {
          "internalType": "address",
          "name": "",
          "type": "address"
        }
      ],
      "name": "total",
      "outputs": [
        {
          "internalType": "uint256",
          "name": "",
          "type": "uint256"
        }
      ],
      "stateMutability": "view",
      "type": "function"
    },
    {
      "inputs": [],
      "name": "addToReachTotal",
      "outputs": [],
      "stateMutability": "nonpayable",
      "type": "function"
    },
    {
      "inputs": [],
      "name": "reachTotal",
      "outputs": [
        {
          "internalType": "uint256",
          "name": "",
          "type": "uint256"
        }
      ],
      "stateMutability": "view",
      "type": "function"
    },
    {
      "inputs": [
        {
          "internalType": "uint256",
          "name": "count",
          "type": "uint256"
        }
      ],
      "name": "decreaseCount",
      "outputs": [],
      "stateMutability": "nonpayable",
      "type": "function"
    },
    {
      "inputs": [],
      "name": "getTotal",
      "outputs": [
        {
          "internalType": "uint256",
          "name": "",
          "type": "uint256"
        }
      ],
      "stateMutability": "view",
      "type": "function"
    }
  ],
  "bytecode": "0x608060405267016345785d8a000060035534801561001c57600080fd5b506001600081905550610545806100346000396000f3fe608060405234801561001057600080fd5b506004361061007d5760003560e01c80634f7204841161005b5780634f720484146100d8578063775a25e3146100f6578063d2514e8414610114578063d4b83992146101445761007d565b806328f176fe14610082578063299f28e4146100b257806329e07322146100bc575b600080fd5b61009c6004803603810190610097919061039c565b610162565b6040516100a991906103e2565b60405180910390f35b6100ba61017a565b005b6100d660048036038101906100d19190610429565b610237565b005b6100e061028d565b6040516100ed91906103e2565b60405180910390f35b6100fe6102d4565b60405161010b91906103e2565b60405180910390f35b61012e6004803603810190610129919061039c565b61031b565b60405161013b91906103e2565b60405180910390f35b61014c610333565b60405161015991906103e2565b60405180910390f35b60026020528060005260406000206000915090505481565b600354600160003373ffffffffffffffffffffffffffffffffffffffff1673ffffffffffffffffffffffffffffffffffffffff1681526020019081526020016000205410610235576001600260003373ffffffffffffffffffffffffffffffffffffffff1673ffffffffffffffffffffffffffffffffffffffff16815260200190815260200160002060008282546102129190610485565b925050819055506003546003600082825461022d9190610485565b925050819055505b565b60018161024491906104db565b905080600260003373ffffffffffffffffffffffffffffffffffffffff1673ffffffffffffffffffffffffffffffffffffffff1681526020019081526020016000208190555050565b6000600260003373ffffffffffffffffffffffffffffffffffffffff1673ffffffffffffffffffffffffffffffffffffffff16815260200190815260200160002054905090565b6000600160003373ffffffffffffffffffffffffffffffffffffffff1673ffffffffffffffffffffffffffffffffffffffff16815260200190815260200160002054905090565b60016020528060005260406000206000915090505481565b60035481565b600080fd5b600073ffffffffffffffffffffffffffffffffffffffff82169050919050565b60006103698261033e565b9050919050565b6103798161035e565b811461038457600080fd5b50565b60008135905061039681610370565b92915050565b6000602082840312156103b2576103b1610339565b5b60006103c084828501610387565b91505092915050565b6000819050919050565b6103dc816103c9565b82525050565b60006020820190506103f760008301846103d3565b92915050565b610406816103c9565b811461041157600080fd5b50565b600081359050610423816103fd565b92915050565b60006020828403121561043f5761043e610339565b5b600061044d84828501610414565b91505092915050565b7f4e487b7100000000000000000000000000000000000000000000000000000000600052601160045260246000fd5b6000610490826103c9565b915061049b836103c9565b9250827fffffffffffffffffffffffffffffffffffffffffffffffffffffffffffffffff038211156104d0576104cf610456565b5b828201905092915050565b60006104e6826103c9565b91506104f1836103c9565b92508282101561050457610503610456565b5b82820390509291505056fea2646970667358221220958b6d444132c8dc34e4a1e36e447a57916a1a1c7f511eb77550b83501c2914d64736f6c634300080b0033",
  "immutableReferences": {},
  "source": "// SPDX-License-Identifier: MIT\npragma solidity >=0.8.0 <0.9.0;\n\nimport \"@openzeppelin/contracts/security/ReentrancyGuard.sol\";\n\ncontract Coursable is ReentrancyGuard {\n    mapping(address => uint256) public total;\n    mapping(address => uint256) public courseCount;\n\n    uint256 public target = 100000000000000000;\n\n    function addToTotal(address _address, uint256 _amount)\n        internal\n        nonReentrant\n    {\n        uint256 balance = total[_address];\n        balance += _amount;\n        total[_address] = balance;\n        addToReachTotal();\n    }\n\n    function addToReachTotal() public {\n        if (total[msg.sender] >= target) {\n            courseCount[msg.sender] += 1;\n            target += target;\n        }\n    }\n\n    function reachTotal() public view returns (uint256) {\n        // if(total[msg.sender] >= target){\n        //     courseCount[msg.sender]+=1;\n        //     target+=target;\n        // }\n        // courseCount[msg.sender] = 0;\n        return courseCount[msg.sender];\n    }\n\n    function decreaseCount(uint256 count) public {\n        count -= 1;\n        courseCount[msg.sender] = count;\n    }\n\n    function getTotal() public view returns (uint256) {\n        return total[msg.sender];\n    }\n}\n",
  "sourcePath": "/Users/iman/smartlearn/smartcontract/contracts/Coursable.sol",
  "compiler": {
    "name": "solc",
    "version": "0.8.11+commit.d7f03943.Emscripten.clang"
  },
  "schemaVersion": "3.4.7",
  "updatedAt": "2022-07-04T22:52:01.935Z",
  "devdoc": {
    "kind": "dev",
    "methods": {},
    "version": 1
  },
  "userdoc": {
    "kind": "user",
    "methods": {},
    "version": 1
  }
}