{
  "contractName": "Financable",
  "abi": [
    {
      "stateMutability": "payable",
      "type": "fallback",
      "payable": true
    },
    {
      "inputs": [
        {
          "internalType": "address",
          "name": "",
          "type": "address"
        }
      ],
      "name": "prizes",
      "outputs": [
        {
          "internalType": "uint256",
          "name": "",
          "type": "uint256"
        }
      ],
      "stateMutability": "view",
      "type": "function",
      "constant": true
    },
    {
      "stateMutability": "payable",
      "type": "receive",
      "payable": true
    },
    {
      "inputs": [],
      "name": "getPrize",
      "outputs": [
        {
          "internalType": "uint256",
          "name": "",
          "type": "uint256"
        }
      ],
      "stateMutability": "view",
      "type": "function",
      "constant": true
    },
    {
      "inputs": [
        {
          "internalType": "uint256",
          "name": "withdrawAmount",
          "type": "uint256"
        }
      ],
      "name": "withdrawPrize",
      "outputs": [
        {
          "internalType": "uint256",
          "name": "",
          "type": "uint256"
        }
      ],
      "stateMutability": "nonpayable",
      "type": "function"
    }
  ],
  "bytecode": "0x608060405234801561001057600080fd5b506103c1806100206000396000f3fe6080604052600436106100385760003560e01c8063b35d11bf14610047578063c20eec7b14610084578063c34f6b0d146100c157610042565b3661004257600080fd5b600080fd5b34801561005357600080fd5b5061006e6004803603810190610069919061026e565b6100ec565b60405161007b91906102b4565b60405180910390f35b34801561009057600080fd5b506100ab60048036038101906100a691906102fb565b610104565b6040516100b891906102b4565b60405180910390f35b3480156100cd57600080fd5b506100d66101c5565b6040516100e391906102b4565b60405180910390f35b60006020528060005260406000206000915090505481565b60008161010f6101c5565b101561011a57600080fd5b816000803373ffffffffffffffffffffffffffffffffffffffff1673ffffffffffffffffffffffffffffffffffffffff16815260200190815260200160002060008282546101689190610357565b925050819055503373ffffffffffffffffffffffffffffffffffffffff166108fc839081150290604051600060405180830381858888f193505050501580156101b5573d6000803e3d6000fd5b506101be6101c5565b9050919050565b60008060003373ffffffffffffffffffffffffffffffffffffffff1673ffffffffffffffffffffffffffffffffffffffff16815260200190815260200160002054905090565b600080fd5b600073ffffffffffffffffffffffffffffffffffffffff82169050919050565b600061023b82610210565b9050919050565b61024b81610230565b811461025657600080fd5b50565b60008135905061026881610242565b92915050565b6000602082840312156102845761028361020b565b5b600061029284828501610259565b91505092915050565b6000819050919050565b6102ae8161029b565b82525050565b60006020820190506102c960008301846102a5565b92915050565b6102d88161029b565b81146102e357600080fd5b50565b6000813590506102f5816102cf565b92915050565b6000602082840312156103115761031061020b565b5b600061031f848285016102e6565b91505092915050565b7f4e487b7100000000000000000000000000000000000000000000000000000000600052601160045260246000fd5b60006103628261029b565b915061036d8361029b565b9250828210156103805761037f610328565b5b82820390509291505056fea2646970667358221220a89011ef2130d293e81b6cde81f871adc5daa45ed60cbafc62188438e299944964736f6c634300080b0033",
  "immutableReferences": {},
  "source": "// SPDX-License-Identifier: MIT\npragma solidity >=0.8.0 <0.9.0;\n\ncontract Financable {\n\n    // Prizes\n    mapping (address => uint) public prizes;\n\n    // Fallback funciton\n    // No direct payment allowed\n    fallback() external payable {\n        revert();\n    }\n    receive() external payable {\n        revert();\n    }\n\n    function addPrize(address _address, uint _amount) internal {\n        uint balance = prizes[_address];\n        balance += _amount;\n        prizes[_address] = balance;\n    }\n\n    function getPrize() public view returns (uint) {\n        return prizes[msg.sender];\n    }\n    \n\n    function withdrawPrize(uint withdrawAmount) public returns (uint) {\n      // If the sender's balance is at least the amount they want to withdraw,\n      // Subtract the amount from the sender's balance, and try to send that amount of ether\n      // to the user attempting to withdraw. \n      // return the user's balance.\n\n      // 1. Use a require expression to guard/ensure sender has enough funds\n      require(getPrize() >= withdrawAmount);\n  \n      // 2. Transfer Eth to the sender and decrement the withdrawal amount from\n      //    sender's balance\n      prizes[msg.sender] -= withdrawAmount;\n      payable(msg.sender).transfer(withdrawAmount); // TODO\n\n      // 3. Emit the appropriate event for this message\n      //    emit LogWithdrawal(msg.sender, withdrawAmount, getBalance());\n\n      return getPrize();\n    }\n\n\n    function payUser(uint amount) internal {\n        payable(msg.sender).transfer(amount);\n    }\n    \n}",
  "sourcePath": "/home/faman/smartlearn/contracts/Financable.sol",
  "compiler": {
    "name": "solc",
    "version": "0.8.11+commit.d7f03943.Emscripten.clang"
  },
  "schemaVersion": "3.4.4",
  "updatedAt": "2022-05-04T11:00:23.941Z",
  "networkType": "ethereum",
  "devdoc": {
    "kind": "dev",
    "methods": {},
    "version": 1
  },
  "userdoc": {
    "kind": "user",
    "methods": {},
    "version": 1
  }
}