{
  "contractName": "SmartLearn",
  "abi": [
    {
      "anonymous": false,
      "inputs": [],
      "name": "LogCoursesUpdated",
      "type": "event"
    },
    {
      "anonymous": false,
      "inputs": [
        {
          "indexed": true,
          "internalType": "address",
          "name": "previousOwner",
          "type": "address"
        },
        {
          "indexed": true,
          "internalType": "address",
          "name": "newOwner",
          "type": "address"
        }
      ],
      "name": "OwnershipTransferred",
      "type": "event"
    },
    {
      "anonymous": false,
      "inputs": [
        {
          "indexed": false,
          "internalType": "address",
          "name": "account",
          "type": "address"
        }
      ],
      "name": "Paused",
      "type": "event"
    },
    {
      "anonymous": false,
      "inputs": [
        {
          "indexed": false,
          "internalType": "address",
          "name": "account",
          "type": "address"
        }
      ],
      "name": "Unpaused",
      "type": "event"
    },
    {
      "stateMutability": "payable",
      "type": "fallback",
      "payable": true
    },
    {
      "inputs": [],
      "name": "WAGE",
      "outputs": [
        {
          "internalType": "uint256",
          "name": "",
          "type": "uint256"
        }
      ],
      "stateMutability": "view",
      "type": "function",
      "constant": true
    },
    {
      "inputs": [
        {
          "internalType": "uint256",
          "name": "_arrived",
          "type": "uint256"
        }
      ],
      "name": "addToReachTotal",
      "outputs": [],
      "stateMutability": "nonpayable",
      "type": "function"
    },
    {
      "inputs": [
        {
          "internalType": "address",
          "name": "",
          "type": "address"
        }
      ],
      "name": "arrived",
      "outputs": [
        {
          "internalType": "uint256",
          "name": "",
          "type": "uint256"
        }
      ],
      "stateMutability": "view",
      "type": "function",
      "constant": true
    },
    {
      "inputs": [
        {
          "internalType": "address",
          "name": "",
          "type": "address"
        }
      ],
      "name": "courseCount",
      "outputs": [
        {
          "internalType": "uint256",
          "name": "",
          "type": "uint256"
        }
      ],
      "stateMutability": "view",
      "type": "function",
      "constant": true
    },
    {
      "inputs": [
        {
          "internalType": "address",
          "name": "",
          "type": "address"
        },
        {
          "internalType": "uint256",
          "name": "",
          "type": "uint256"
        }
      ],
      "name": "courses",
      "outputs": [
        {
          "internalType": "string",
          "name": "description",
          "type": "string"
        },
        {
          "internalType": "address",
          "name": "anotherWallet",
          "type": "address"
        },
        {
          "internalType": "uint256",
          "name": "createdAt",
          "type": "uint256"
        },
        {
          "internalType": "uint256",
          "name": "finishedAt",
          "type": "uint256"
        },
        {
          "internalType": "uint256",
          "name": "value",
          "type": "uint256"
        },
        {
          "internalType": "uint256",
          "name": "deadline",
          "type": "uint256"
        },
        {
          "internalType": "bool",
          "name": "completed",
          "type": "bool"
        },
        {
          "internalType": "bool",
          "name": "killed",
          "type": "bool"
        },
        {
          "internalType": "bool",
          "name": "punishMe",
          "type": "bool"
        },
        {
          "internalType": "bool",
          "name": "toAnother",
          "type": "bool"
        }
      ],
      "stateMutability": "view",
      "type": "function",
      "constant": true
    },
    {
      "inputs": [
        {
          "internalType": "uint256",
          "name": "count",
          "type": "uint256"
        }
      ],
      "name": "decreaseCount",
      "outputs": [],
      "stateMutability": "nonpayable",
      "type": "function"
    },
    {
      "inputs": [],
      "name": "getTotal",
      "outputs": [
        {
          "internalType": "uint256",
          "name": "",
          "type": "uint256"
        }
      ],
      "stateMutability": "view",
      "type": "function",
      "constant": true
    },
    {
      "inputs": [],
      "name": "owner",
      "outputs": [
        {
          "internalType": "address",
          "name": "",
          "type": "address"
        }
      ],
      "stateMutability": "view",
      "type": "function",
      "constant": true
    },
    {
      "inputs": [],
      "name": "paused",
      "outputs": [
        {
          "internalType": "bool",
          "name": "",
          "type": "bool"
        }
      ],
      "stateMutability": "view",
      "type": "function",
      "constant": true
    },
    {
      "inputs": [],
      "name": "reachTotal",
      "outputs": [
        {
          "internalType": "uint256",
          "name": "",
          "type": "uint256"
        }
      ],
      "stateMutability": "view",
      "type": "function",
      "constant": true
    },
    {
      "inputs": [],
      "name": "renounceOwnership",
      "outputs": [],
      "stateMutability": "nonpayable",
      "type": "function"
    },
    {
      "inputs": [],
      "name": "target",
      "outputs": [
        {
          "internalType": "uint256",
          "name": "",
          "type": "uint256"
        }
      ],
      "stateMutability": "view",
      "type": "function",
      "constant": true
    },
    {
      "inputs": [
        {
          "internalType": "address",
          "name": "",
          "type": "address"
        }
      ],
      "name": "total",
      "outputs": [
        {
          "internalType": "uint256",
          "name": "",
          "type": "uint256"
        }
      ],
      "stateMutability": "view",
      "type": "function",
      "constant": true
    },
    {
      "inputs": [
        {
          "internalType": "address",
          "name": "newOwner",
          "type": "address"
        }
      ],
      "name": "transferOwnership",
      "outputs": [],
      "stateMutability": "nonpayable",
      "type": "function"
    },
    {
      "stateMutability": "payable",
      "type": "receive",
      "payable": true
    },
    {
      "inputs": [],
      "name": "donate",
      "outputs": [],
      "stateMutability": "payable",
      "type": "function",
      "payable": true
    },
    {
      "inputs": [],
      "name": "getCourses",
      "outputs": [
        {
          "components": [
            {
              "internalType": "string",
              "name": "description",
              "type": "string"
            },
            {
              "internalType": "address",
              "name": "anotherWallet",
              "type": "address"
            },
            {
              "internalType": "uint256",
              "name": "createdAt",
              "type": "uint256"
            },
            {
              "internalType": "uint256",
              "name": "finishedAt",
              "type": "uint256"
            },
            {
              "internalType": "uint256",
              "name": "value",
              "type": "uint256"
            },
            {
              "internalType": "uint256",
              "name": "deadline",
              "type": "uint256"
            },
            {
              "internalType": "bool",
              "name": "completed",
              "type": "bool"
            },
            {
              "internalType": "bool",
              "name": "killed",
              "type": "bool"
            },
            {
              "internalType": "bool",
              "name": "punishMe",
              "type": "bool"
            },
            {
              "internalType": "bool",
              "name": "toAnother",
              "type": "bool"
            }
          ],
          "internalType": "struct CourseFactory.Course[]",
          "name": "",
          "type": "tuple[]"
        }
      ],
      "stateMutability": "view",
      "type": "function",
      "constant": true
    },
    {
      "inputs": [
        {
          "internalType": "string",
          "name": "_description",
          "type": "string"
        },
        {
          "internalType": "uint256",
          "name": "_deadline",
          "type": "uint256"
        },
        {
          "internalType": "address",
          "name": "_anotherWallet",
          "type": "address"
        },
        {
          "internalType": "bool",
          "name": "_dontPunishMe",
          "type": "bool"
        },
        {
          "internalType": "bool",
          "name": "_toAnother",
          "type": "bool"
        }
      ],
      "name": "add",
      "outputs": [],
      "stateMutability": "payable",
      "type": "function",
      "payable": true
    },
    {
      "inputs": [
        {
          "internalType": "uint256",
          "name": "_id",
          "type": "uint256"
        }
      ],
      "name": "setComplete",
      "outputs": [],
      "stateMutability": "nonpayable",
      "type": "function"
    },
    {
      "inputs": [
        {
          "internalType": "uint256",
          "name": "_id",
          "type": "uint256"
        }
      ],
      "name": "remove",
      "outputs": [],
      "stateMutability": "nonpayable",
      "type": "function"
    },
    {
      "inputs": [
        {
          "internalType": "uint256",
          "name": "_id",
          "type": "uint256"
        }
      ],
      "name": "kill",
      "outputs": [],
      "stateMutability": "nonpayable",
      "type": "function"
    },
    {
      "inputs": [],
      "name": "pause",
      "outputs": [],
      "stateMutability": "nonpayable",
      "type": "function"
    },
    {
      "inputs": [],
      "name": "unpause",
      "outputs": [],
      "stateMutability": "nonpayable",
      "type": "function"
    }
  ],
  "bytecode": "0x60806040523480156200001157600080fd5b5060016000819055506200003a6200002e6200005b60201b60201c565b6200006360201b60201c565b6000600460146101000a81548160ff02191690831515021790555062000129565b600033905090565b6000600460009054906101000a900473ffffffffffffffffffffffffffffffffffffffff16905081600460006101000a81548173ffffffffffffffffffffffffffffffffffffffff021916908373ffffffffffffffffffffffffffffffffffffffff1602179055508173ffffffffffffffffffffffffffffffffffffffff168173ffffffffffffffffffffffffffffffffffffffff167f8be0079c531659141344cd1fd0a4f28419497f9722a3daafe3b4186f6b6457e060405160405180910390a35050565b612d5780620001396000396000f3fe6080604052600436106101395760003560e01c80638da5cb5b116100ab578063d1b8c87b1161006f578063d1b8c87b146103e4578063d2514e841461040f578063d29a00251461044c578063d4b8399214610475578063ed88c68e146104a0578063f2fde38b146104aa57610143565b80638da5cb5b14610303578063b727ed381461032e578063b80dda3c1461034a578063c1e478cb14610373578063cc126479146103b957610143565b80634f720484116100fd5780634f7204841461022b5780635c975abb14610256578063715018a614610281578063775a25e3146102985780638456cb59146102c357806389e8491f146102da57610143565b806328f176fe1461014857806329e07322146101855780633f4ba83a146101ae57806346d824ee146101c55780634cc822151461020257610143565b3661014357600080fd5b600080fd5b34801561015457600080fd5b5061016f600480360381019061016a9190612238565b6104d3565b60405161017c919061227e565b60405180910390f35b34801561019157600080fd5b506101ac60048036038101906101a791906122c5565b6104eb565b005b3480156101ba57600080fd5b506101c3610541565b005b3480156101d157600080fd5b506101ec60048036038101906101e79190612238565b6105c7565b6040516101f9919061227e565b60405180910390f35b34801561020e57600080fd5b50610229600480360381019061022491906122c5565b6105df565b005b34801561023757600080fd5b506102406105eb565b60405161024d919061227e565b60405180910390f35b34801561026257600080fd5b5061026b610632565b604051610278919061230d565b60405180910390f35b34801561028d57600080fd5b50610296610649565b005b3480156102a457600080fd5b506102ad6106d1565b6040516102ba919061227e565b60405180910390f35b3480156102cf57600080fd5b506102d8610718565b005b3480156102e657600080fd5b5061030160048036038101906102fc91906122c5565b61079e565b005b34801561030f57600080fd5b506103186107aa565b6040516103259190612337565b60405180910390f35b610348600480360381019061034391906124c4565b6107d4565b005b34801561035657600080fd5b50610371600480360381019061036c91906122c5565b6107e8565b005b34801561037f57600080fd5b5061039a6004803603810190610395919061255b565b61094a565b6040516103b09a99989796959493929190612623565b60405180910390f35b3480156103c557600080fd5b506103ce610a97565b6040516103db91906128d9565b60405180910390f35b3480156103f057600080fd5b506103f9610aa6565b604051610406919061227e565b60405180910390f35b34801561041b57600080fd5b5061043660048036038101906104319190612238565b610ab2565b604051610443919061227e565b60405180910390f35b34801561045857600080fd5b50610473600480360381019061046e91906122c5565b610aca565b005b34801561048157600080fd5b5061048a610ad6565b604051610497919061227e565b60405180910390f35b6104a8610ae2565b005b3480156104b657600080fd5b506104d160048036038101906104cc9190612238565b610aec565b005b60026020528060005260406000206000915090505481565b6001816104f8919061292a565b905080600260003373ffffffffffffffffffffffffffffffffffffffff1673ffffffffffffffffffffffffffffffffffffffff1681526020019081526020016000208190555050565b610549610be4565b73ffffffffffffffffffffffffffffffffffffffff166105676107aa565b73ffffffffffffffffffffffffffffffffffffffff16146105bd576040517f08c379a00000000000000000000000000000000000000000000000000000000081526004016105b4906129aa565b60405180910390fd5b6105c5610bec565b565b60036020528060005260406000206000915090505481565b6105e881610c8e565b50565b6000600260003373ffffffffffffffffffffffffffffffffffffffff1673ffffffffffffffffffffffffffffffffffffffff16815260200190815260200160002054905090565b6000600460149054906101000a900460ff16905090565b610651610be4565b73ffffffffffffffffffffffffffffffffffffffff1661066f6107aa565b73ffffffffffffffffffffffffffffffffffffffff16146106c5576040517f08c379a00000000000000000000000000000000000000000000000000000000081526004016106bc906129aa565b60405180910390fd5b6106cf600061107c565b565b6000600160003373ffffffffffffffffffffffffffffffffffffffff1673ffffffffffffffffffffffffffffffffffffffff16815260200190815260200160002054905090565b610720610be4565b73ffffffffffffffffffffffffffffffffffffffff1661073e6107aa565b73ffffffffffffffffffffffffffffffffffffffff1614610794576040517f08c379a000000000000000000000000000000000000000000000000000000000815260040161078b906129aa565b60405180910390fd5b61079c611142565b565b6107a7816111e5565b50565b6000600460009054906101000a900473ffffffffffffffffffffffffffffffffffffffff16905090565b6107e185858585856112ec565b5050505050565b80600360003373ffffffffffffffffffffffffffffffffffffffff1673ffffffffffffffffffffffffffffffffffffffff168152602001908152602001600020600082825461083791906129ca565b925050819055505b670de0b6b3a7640000600360003373ffffffffffffffffffffffffffffffffffffffff1673ffffffffffffffffffffffffffffffffffffffff1681526020019081526020016000205410610947576001600260003373ffffffffffffffffffffffffffffffffffffffff1673ffffffffffffffffffffffffffffffffffffffff16815260200190815260200160002060008282546108dd91906129ca565b92505081905550670de0b6b3a7640000600360003373ffffffffffffffffffffffffffffffffffffffff1673ffffffffffffffffffffffffffffffffffffffff168152602001908152602001600020600082825461093b919061292a565b9250508190555061083f565b50565b6005602052816000526040600020818154811061096657600080fd5b90600052602060002090600702016000915091505080600001805461098a90612a4f565b80601f01602080910402602001604051908101604052809291908181526020018280546109b690612a4f565b8015610a035780601f106109d857610100808354040283529160200191610a03565b820191906000526020600020905b8154815290600101906020018083116109e657829003601f168201915b5050505050908060010160009054906101000a900473ffffffffffffffffffffffffffffffffffffffff16908060020154908060030154908060040154908060050154908060060160009054906101000a900460ff16908060060160019054906101000a900460ff16908060060160029054906101000a900460ff16908060060160039054906101000a900460ff1690508a565b6060610aa16115b0565b905090565b67016345785d8a000081565b60016020528060005260406000206000915090505481565b610ad3816117c9565b50565b670de0b6b3a764000081565b610aea6118b9565b565b610af4610be4565b73ffffffffffffffffffffffffffffffffffffffff16610b126107aa565b73ffffffffffffffffffffffffffffffffffffffff1614610b68576040517f08c379a0000000000000000000000000000000000000000000000000000000008152600401610b5f906129aa565b60405180910390fd5b600073ffffffffffffffffffffffffffffffffffffffff168173ffffffffffffffffffffffffffffffffffffffff161415610bd8576040517f08c379a0000000000000000000000000000000000000000000000000000000008152600401610bcf90612af3565b60405180910390fd5b610be18161107c565b50565b600033905090565b610bf4610632565b610c33576040517f08c379a0000000000000000000000000000000000000000000000000000000008152600401610c2a90612b5f565b60405180910390fd5b6000600460146101000a81548160ff0219169083151502179055507f5db9ee0a495bf2e6ff9c91a7834c1ba4fdd244a5e8aa4e537bd38aeae4b073aa610c77610be4565b604051610c849190612337565b60405180910390a1565b80610c98816118dc565b60c0015180610cb05750610cab816118dc565b60e001515b610cb957600080fd5b6000600560003373ffffffffffffffffffffffffffffffffffffffff1673ffffffffffffffffffffffffffffffffffffffff168152602001908152602001600020805490509050808310610d0c57600080fd5b600560003373ffffffffffffffffffffffffffffffffffffffff1673ffffffffffffffffffffffffffffffffffffffff168152602001908152602001600020600182610d58919061292a565b81548110610d6957610d68612b7f565b5b9060005260206000209060070201600560003373ffffffffffffffffffffffffffffffffffffffff1673ffffffffffffffffffffffffffffffffffffffff1681526020019081526020016000208481548110610dc857610dc7612b7f565b5b90600052602060002090600702016000820181600001908054610dea90612a4f565b610df5929190611fe5565b506001820160009054906101000a900473ffffffffffffffffffffffffffffffffffffffff168160010160006101000a81548173ffffffffffffffffffffffffffffffffffffffff021916908373ffffffffffffffffffffffffffffffffffffffff160217905550600282015481600201556003820154816003015560048201548160040155600582015481600501556006820160009054906101000a900460ff168160060160006101000a81548160ff0219169083151502179055506006820160019054906101000a900460ff168160060160016101000a81548160ff0219169083151502179055506006820160029054906101000a900460ff168160060160026101000a81548160ff0219169083151502179055506006820160039054906101000a900460ff168160060160036101000a81548160ff021916908315150217905550905050600560003373ffffffffffffffffffffffffffffffffffffffff1673ffffffffffffffffffffffffffffffffffffffff168152602001908152602001600020805480610f8b57610f8a612bae565b5b600190038181906000526020600020906007020160008082016000610fb09190612072565b6001820160006101000a81549073ffffffffffffffffffffffffffffffffffffffff021916905560028201600090556003820160009055600482016000905560058201600090556006820160006101000a81549060ff02191690556006820160016101000a81549060ff02191690556006820160026101000a81549060ff02191690556006820160036101000a81549060ff0219169055505090557f4ed50226598d8b6360adcf22618243a9b6eace12eae87a908be864ee55fac98e60405160405180910390a1505050565b6000600460009054906101000a900473ffffffffffffffffffffffffffffffffffffffff16905081600460006101000a81548173ffffffffffffffffffffffffffffffffffffffff021916908373ffffffffffffffffffffffffffffffffffffffff1602179055508173ffffffffffffffffffffffffffffffffffffffff168173ffffffffffffffffffffffffffffffffffffffff167f8be0079c531659141344cd1fd0a4f28419497f9722a3daafe3b4186f6b6457e060405160405180910390a35050565b61114a610632565b1561118a576040517f08c379a000000000000000000000000000000000000000000000000000000000815260040161118190612c29565b60405180910390fd5b6001600460146101000a81548160ff0219169083151502179055507f62e78cea01bee320cd4e420270b5ea74000d11b0c9f74754ebdbfc544b05a2586111ce610be4565b6040516111db9190612337565b60405180910390a1565b806111ef816118dc565b60c00151156111fd57600080fd5b61120682611b20565b15611246576040517f08c379a000000000000000000000000000000000000000000000000000000000815260040161123d90612c95565b60405180910390fd5b6000611251836118dc565b905060018160c001901515908115158152505042816060018181525050600067016345785d8a00008260800151611288919061292a565b905061129b67016345785d8a0000611b55565b60011515826101200151151514156112c0576112bb826020015182611c09565b6112ca565b6112c981611caa565b5b6112d48483611d4a565b6112e63367016345785d8a0000611eeb565b50505050565b834281116112f957600080fd5b3467016345785d8a0000811161130e57600080fd5b8483600073ffffffffffffffffffffffffffffffffffffffff168273ffffffffffffffffffffffffffffffffffffffff161415801561134a5750805b8061138b5750600073ffffffffffffffffffffffffffffffffffffffff168273ffffffffffffffffffffffffffffffffffffffff1614801561138a575080155b5b61139457600080fd5b60006040518061014001604052808b81526020018973ffffffffffffffffffffffffffffffffffffffff168152602001428152602001606481526020013481526020018a815260200160001515815260200160001515815260200188151581526020018715158152509050600560003373ffffffffffffffffffffffffffffffffffffffff1673ffffffffffffffffffffffffffffffffffffffff16815260200190815260200160002081908060018154018082558091505060019003906000526020600020906007020160009091909190915060008201518160000190805190602001906114849291906120b2565b5060208201518160010160006101000a81548173ffffffffffffffffffffffffffffffffffffffff021916908373ffffffffffffffffffffffffffffffffffffffff16021790555060408201518160020155606082015181600301556080820151816004015560a0820151816005015560c08201518160060160006101000a81548160ff02191690831515021790555060e08201518160060160016101000a81548160ff0219169083151502179055506101008201518160060160026101000a81548160ff0219169083151502179055506101208201518160060160036101000a81548160ff02191690831515021790555050507f4ed50226598d8b6360adcf22618243a9b6eace12eae87a908be864ee55fac98e60405160405180910390a150505050505050505050565b6060600560003373ffffffffffffffffffffffffffffffffffffffff1673ffffffffffffffffffffffffffffffffffffffff168152602001908152602001600020805480602002602001604051908101604052809291908181526020016000905b828210156117c057838290600052602060002090600702016040518061014001604052908160008201805461164590612a4f565b80601f016020809104026020016040519081016040528092919081815260200182805461167190612a4f565b80156116be5780601f10611693576101008083540402835291602001916116be565b820191906000526020600020905b8154815290600101906020018083116116a157829003601f168201915b505050505081526020016001820160009054906101000a900473ffffffffffffffffffffffffffffffffffffffff1673ffffffffffffffffffffffffffffffffffffffff1673ffffffffffffffffffffffffffffffffffffffff168152602001600282015481526020016003820154815260200160048201548152602001600582015481526020016006820160009054906101000a900460ff161515151581526020016006820160019054906101000a900460ff161515151581526020016006820160029054906101000a900460ff161515151581526020016006820160039054906101000a900460ff16151515158152505081526020019060010190611611565b50505050905090565b60006117d4826118dc565b9050600067016345785d8a000082608001516117f0919061292a565b90506117fb83611b20565b61183a576040517f08c379a000000000000000000000000000000000000000000000000000000000815260040161183190612c95565b60405180910390fd5b60018260e0019015159081151581525050600015158261010001511515141561188e5761186e67016345785d8a0000611b55565b61187781611caa565b6118893367016345785d8a0000611eeb565b6118aa565b61189b8260800151611b55565b6118a9338360800151611eeb565b5b6118b48383611d4a565b505050565b60003414156118c757600080fd5b6118d034611b55565b6118da3334611eeb565b565b6118e4612138565b81600560003373ffffffffffffffffffffffffffffffffffffffff1673ffffffffffffffffffffffffffffffffffffffff168152602001908152602001600020805490501161193257600080fd5b600560003373ffffffffffffffffffffffffffffffffffffffff1673ffffffffffffffffffffffffffffffffffffffff168152602001908152602001600020828154811061198357611982612b7f565b5b9060005260206000209060070201604051806101400160405290816000820180546119ad90612a4f565b80601f01602080910402602001604051908101604052809291908181526020018280546119d990612a4f565b8015611a265780601f106119fb57610100808354040283529160200191611a26565b820191906000526020600020905b815481529060010190602001808311611a0957829003601f168201915b505050505081526020016001820160009054906101000a900473ffffffffffffffffffffffffffffffffffffffff1673ffffffffffffffffffffffffffffffffffffffff1673ffffffffffffffffffffffffffffffffffffffff168152602001600282015481526020016003820154815260200160048201548152602001600582015481526020016006820160009054906101000a900460ff161515151581526020016006820160019054906101000a900460ff161515151581526020016006820160029054906101000a900460ff161515151581526020016006820160039054906101000a900460ff1615151515815250509050919050565b600080611b2c836118dc565b905060008160a001511415611b45576000915050611b50565b428160a00151109150505b919050565b60026000541415611b9b576040517f08c379a0000000000000000000000000000000000000000000000000000000008152600401611b9290612d01565b60405180910390fd5b600260008190555073755cb1c1a23d21ffae142ba55441e62f3e14c50e73ffffffffffffffffffffffffffffffffffffffff166108fc829081150290604051600060405180830381858888f19350505050158015611bfd573d6000803e3d6000fd5b50600160008190555050565b60026000541415611c4f576040517f08c379a0000000000000000000000000000000000000000000000000000000008152600401611c4690612d01565b60405180910390fd5b60026000819055508173ffffffffffffffffffffffffffffffffffffffff166108fc829081150290604051600060405180830381858888f19350505050158015611c9d573d6000803e3d6000fd5b5060016000819055505050565b60026000541415611cf0576040517f08c379a0000000000000000000000000000000000000000000000000000000008152600401611ce790612d01565b60405180910390fd5b60026000819055503373ffffffffffffffffffffffffffffffffffffffff166108fc829081150290604051600060405180830381858888f19350505050158015611d3e573d6000803e3d6000fd5b50600160008190555050565b80600560003373ffffffffffffffffffffffffffffffffffffffff1673ffffffffffffffffffffffffffffffffffffffff1681526020019081526020016000208381548110611d9c57611d9b612b7f565b5b90600052602060002090600702016000820151816000019080519060200190611dc69291906120b2565b5060208201518160010160006101000a81548173ffffffffffffffffffffffffffffffffffffffff021916908373ffffffffffffffffffffffffffffffffffffffff16021790555060408201518160020155606082015181600301556080820151816004015560a0820151816005015560c08201518160060160006101000a81548160ff02191690831515021790555060e08201518160060160016101000a81548160ff0219169083151502179055506101008201518160060160026101000a81548160ff0219169083151502179055506101208201518160060160036101000a81548160ff0219169083151502179055509050507f4ed50226598d8b6360adcf22618243a9b6eace12eae87a908be864ee55fac98e60405160405180910390a15050565b60026000541415611f31576040517f08c379a0000000000000000000000000000000000000000000000000000000008152600401611f2890612d01565b60405180910390fd5b60026000819055506000600160008473ffffffffffffffffffffffffffffffffffffffff1673ffffffffffffffffffffffffffffffffffffffff1681526020019081526020016000205490508181611f8991906129ca565b905080600160008573ffffffffffffffffffffffffffffffffffffffff1673ffffffffffffffffffffffffffffffffffffffff16815260200190815260200160002081905550611fd8826107e8565b5060016000819055505050565b828054611ff190612a4f565b90600052602060002090601f0160209004810192826120135760008555612061565b82601f106120245780548555612061565b8280016001018555821561206157600052602060002091601f016020900482015b82811115612060578254825591600101919060010190612045565b5b50905061206e91906121a9565b5090565b50805461207e90612a4f565b6000825580601f1061209057506120af565b601f0160209004906000526020600020908101906120ae91906121a9565b5b50565b8280546120be90612a4f565b90600052602060002090601f0160209004810192826120e05760008555612127565b82601f106120f957805160ff1916838001178555612127565b82800160010185558215612127579182015b8281111561212657825182559160200191906001019061210b565b5b50905061213491906121a9565b5090565b60405180610140016040528060608152602001600073ffffffffffffffffffffffffffffffffffffffff168152602001600081526020016000815260200160008152602001600081526020016000151581526020016000151581526020016000151581526020016000151581525090565b5b808211156121c25760008160009055506001016121aa565b5090565b6000604051905090565b600080fd5b600080fd5b600073ffffffffffffffffffffffffffffffffffffffff82169050919050565b6000612205826121da565b9050919050565b612215816121fa565b811461222057600080fd5b50565b6000813590506122328161220c565b92915050565b60006020828403121561224e5761224d6121d0565b5b600061225c84828501612223565b91505092915050565b6000819050919050565b61227881612265565b82525050565b6000602082019050612293600083018461226f565b92915050565b6122a281612265565b81146122ad57600080fd5b50565b6000813590506122bf81612299565b92915050565b6000602082840312156122db576122da6121d0565b5b60006122e9848285016122b0565b91505092915050565b60008115159050919050565b612307816122f2565b82525050565b600060208201905061232260008301846122fe565b92915050565b612331816121fa565b82525050565b600060208201905061234c6000830184612328565b92915050565b600080fd5b600080fd5b6000601f19601f8301169050919050565b7f4e487b7100000000000000000000000000000000000000000000000000000000600052604160045260246000fd5b6123a58261235c565b810181811067ffffffffffffffff821117156123c4576123c361236d565b5b80604052505050565b60006123d76121c6565b90506123e3828261239c565b919050565b600067ffffffffffffffff8211156124035761240261236d565b5b61240c8261235c565b9050602081019050919050565b82818337600083830152505050565b600061243b612436846123e8565b6123cd565b90508281526020810184848401111561245757612456612357565b5b612462848285612419565b509392505050565b600082601f83011261247f5761247e612352565b5b813561248f848260208601612428565b91505092915050565b6124a1816122f2565b81146124ac57600080fd5b50565b6000813590506124be81612498565b92915050565b600080600080600060a086880312156124e0576124df6121d0565b5b600086013567ffffffffffffffff8111156124fe576124fd6121d5565b5b61250a8882890161246a565b955050602061251b888289016122b0565b945050604061252c88828901612223565b935050606061253d888289016124af565b925050608061254e888289016124af565b9150509295509295909350565b60008060408385031215612572576125716121d0565b5b600061258085828601612223565b9250506020612591858286016122b0565b9150509250929050565b600081519050919050565b600082825260208201905092915050565b60005b838110156125d55780820151818401526020810190506125ba565b838111156125e4576000848401525b50505050565b60006125f58261259b565b6125ff81856125a6565b935061260f8185602086016125b7565b6126188161235c565b840191505092915050565b600061014082019050818103600083015261263e818d6125ea565b905061264d602083018c612328565b61265a604083018b61226f565b612667606083018a61226f565b612674608083018961226f565b61268160a083018861226f565b61268e60c08301876122fe565b61269b60e08301866122fe565b6126a96101008301856122fe565b6126b76101208301846122fe565b9b9a5050505050505050505050565b600081519050919050565b600082825260208201905092915050565b6000819050602082019050919050565b600082825260208201905092915050565b600061270e8261259b565b61271881856126f2565b93506127288185602086016125b7565b6127318161235c565b840191505092915050565b612745816121fa565b82525050565b61275481612265565b82525050565b612763816122f2565b82525050565b60006101408301600083015184820360008601526127878282612703565b915050602083015161279c602086018261273c565b5060408301516127af604086018261274b565b5060608301516127c2606086018261274b565b5060808301516127d5608086018261274b565b5060a08301516127e860a086018261274b565b5060c08301516127fb60c086018261275a565b5060e083015161280e60e086018261275a565b5061010083015161282361010086018261275a565b5061012083015161283861012086018261275a565b508091505092915050565b600061284f8383612769565b905092915050565b6000602082019050919050565b600061286f826126c6565b61287981856126d1565b93508360208202850161288b856126e2565b8060005b858110156128c757848403895281516128a88582612843565b94506128b383612857565b925060208a0199505060018101905061288f565b50829750879550505050505092915050565b600060208201905081810360008301526128f38184612864565b905092915050565b7f4e487b7100000000000000000000000000000000000000000000000000000000600052601160045260246000fd5b600061293582612265565b915061294083612265565b925082821015612953576129526128fb565b5b828203905092915050565b7f4f776e61626c653a2063616c6c6572206973206e6f7420746865206f776e6572600082015250565b60006129946020836125a6565b915061299f8261295e565b602082019050919050565b600060208201905081810360008301526129c381612987565b9050919050565b60006129d582612265565b91506129e083612265565b9250827fffffffffffffffffffffffffffffffffffffffffffffffffffffffffffffffff03821115612a1557612a146128fb565b5b828201905092915050565b7f4e487b7100000000000000000000000000000000000000000000000000000000600052602260045260246000fd5b60006002820490506001821680612a6757607f821691505b60208210811415612a7b57612a7a612a20565b5b50919050565b7f4f776e61626c653a206e6577206f776e657220697320746865207a65726f206160008201527f6464726573730000000000000000000000000000000000000000000000000000602082015250565b6000612add6026836125a6565b9150612ae882612a81565b604082019050919050565b60006020820190508181036000830152612b0c81612ad0565b9050919050565b7f5061757361626c653a206e6f7420706175736564000000000000000000000000600082015250565b6000612b496014836125a6565b9150612b5482612b13565b602082019050919050565b60006020820190508181036000830152612b7881612b3c565b9050919050565b7f4e487b7100000000000000000000000000000000000000000000000000000000600052603260045260246000fd5b7f4e487b7100000000000000000000000000000000000000000000000000000000600052603160045260246000fd5b7f5061757361626c653a2070617573656400000000000000000000000000000000600082015250565b6000612c136010836125a6565b9150612c1e82612bdd565b602082019050919050565b60006020820190508181036000830152612c4281612c06565b9050919050565b7f6475652064617465206973206578706972656400000000000000000000000000600082015250565b6000612c7f6013836125a6565b9150612c8a82612c49565b602082019050919050565b60006020820190508181036000830152612cae81612c72565b9050919050565b7f5265656e7472616e637947756172643a207265656e7472616e742063616c6c00600082015250565b6000612ceb601f836125a6565b9150612cf682612cb5565b602082019050919050565b60006020820190508181036000830152612d1a81612cde565b905091905056fea2646970667358221220592efe13c00899dc8c13b3ebb982b9c54c4017c7cb697f4dbc40dd6698b40d5764736f6c634300080b0033",
  "immutableReferences": {},
  "source": "// SPDX-License-Identifier: MIT\npragma solidity >=0.8.0 <0.9.0;\n\nimport \"@openzeppelin/contracts/access/Ownable.sol\";\nimport \"./CourseFactory.sol\";\n\ncontract SmartLearn is Ownable, CourseFactory {\n    /// @notice Get all courses of msg sender\n    function donate() public payable {\n        _donate();\n    }\n\n    /// @return Courses array\n    function getCourses() public view returns (Course[] memory) {\n        return _getCourses();\n    }\n\n    /// @notice Add a new course for msg sender\n    /// @param _description Course decription\n    /// @param _deadline Course due date\n    function add(\n        string memory _description,\n        uint256 _deadline,\n        address _anotherWallet,\n        bool _dontPunishMe,\n        bool _toAnother\n    ) public payable {\n        _add(\n            _description,\n            _deadline,\n            _anotherWallet,\n            _dontPunishMe,\n            _toAnother\n        );\n    }\n\n    // Set a course as completed\n    function setComplete(uint256 _id) public {\n        _setComplete(_id);\n    }\n\n    // Remove a course\n    function remove(uint256 _id) public {\n        _remove(_id);\n    }\n\n    // Kill a course\n    function kill(uint256 _id) public {\n        _kill(_id);\n    }\n\n    // Pause contract deposits\n    function pause() public onlyOwner {\n        _pause();\n    }\n\n    // Unpause contract deposits\n    function unpause() public onlyOwner {\n        _unpause();\n    }\n}\n",
  "sourcePath": "/Users/iman/smartlearn/smartcontract/contracts/SmartLearn.sol",
  "compiler": {
    "name": "solc",
    "version": "0.8.11+commit.d7f03943.Emscripten.clang"
  },
  "schemaVersion": "3.4.7",
  "updatedAt": "2022-09-14T06:05:38.553Z",
  "networkType": "ethereum",
  "devdoc": {
    "kind": "dev",
    "methods": {
      "add(string,uint256,address,bool,bool)": {
        "params": {
          "_deadline": "Course due date",
          "_description": "Course decription"
        }
      },
      "getCourses()": {
        "returns": {
          "_0": "Courses array"
        }
      },
      "owner()": {
        "details": "Returns the address of the current owner."
      },
      "paused()": {
        "details": "Returns true if the contract is paused, and false otherwise."
      },
      "renounceOwnership()": {
        "details": "Leaves the contract without owner. It will not be possible to call `onlyOwner` functions anymore. Can only be called by the current owner. NOTE: Renouncing ownership will leave the contract without an owner, thereby removing any functionality that is only available to the owner."
      },
      "transferOwnership(address)": {
        "details": "Transfers ownership of the contract to a new account (`newOwner`). Can only be called by the current owner."
      }
    },
    "version": 1
  },
  "userdoc": {
    "kind": "user",
    "methods": {
      "add(string,uint256,address,bool,bool)": {
        "notice": "Add a new course for msg sender"
      },
      "donate()": {
        "notice": "Get all courses of msg sender"
      }
    },
    "version": 1
  }
}