{
  "contractName": "SmartLearn",
  "abi": [
    {
      "anonymous": false,
      "inputs": [
        {
          "indexed": false,
          "internalType": "address",
          "name": "userAddress",
          "type": "address"
        },
        {
          "indexed": false,
          "internalType": "uint256",
          "name": "taskID",
          "type": "uint256"
        }
      ],
      "name": "LogAdd",
      "type": "event"
    },
    {
      "anonymous": false,
      "inputs": [
        {
          "indexed": true,
          "internalType": "address",
          "name": "previousOwner",
          "type": "address"
        },
        {
          "indexed": true,
          "internalType": "address",
          "name": "newOwner",
          "type": "address"
        }
      ],
      "name": "OwnershipTransferred",
      "type": "event"
    },
    {
      "stateMutability": "payable",
      "type": "fallback",
      "payable": true
    },
    {
      "inputs": [],
      "name": "getPrize",
      "outputs": [
        {
          "internalType": "uint256",
          "name": "",
          "type": "uint256"
        }
      ],
      "stateMutability": "view",
      "type": "function",
      "constant": true
    },
    {
      "inputs": [],
      "name": "owner",
      "outputs": [
        {
          "internalType": "address",
          "name": "",
          "type": "address"
        }
      ],
      "stateMutability": "view",
      "type": "function",
      "constant": true
    },
    {
      "inputs": [
        {
          "internalType": "address",
          "name": "",
          "type": "address"
        }
      ],
      "name": "prizes",
      "outputs": [
        {
          "internalType": "uint256",
          "name": "",
          "type": "uint256"
        }
      ],
      "stateMutability": "view",
      "type": "function",
      "constant": true
    },
    {
      "inputs": [],
      "name": "renounceOwnership",
      "outputs": [],
      "stateMutability": "nonpayable",
      "type": "function"
    },
    {
      "inputs": [
        {
          "internalType": "address",
          "name": "",
          "type": "address"
        },
        {
          "internalType": "uint256",
          "name": "",
          "type": "uint256"
        }
      ],
      "name": "tasks",
      "outputs": [
        {
          "internalType": "string",
          "name": "description",
          "type": "string"
        },
        {
          "internalType": "uint256",
          "name": "createdAt",
          "type": "uint256"
        },
        {
          "internalType": "uint256",
          "name": "value",
          "type": "uint256"
        },
        {
          "internalType": "uint256",
          "name": "dueDate",
          "type": "uint256"
        },
        {
          "internalType": "bool",
          "name": "completed",
          "type": "bool"
        },
        {
          "internalType": "bool",
          "name": "cleared",
          "type": "bool"
        }
      ],
      "stateMutability": "view",
      "type": "function",
      "constant": true
    },
    {
      "inputs": [
        {
          "internalType": "address",
          "name": "newOwner",
          "type": "address"
        }
      ],
      "name": "transferOwnership",
      "outputs": [],
      "stateMutability": "nonpayable",
      "type": "function"
    },
    {
      "inputs": [
        {
          "internalType": "uint256",
          "name": "withdrawAmount",
          "type": "uint256"
        }
      ],
      "name": "withdrawPrize",
      "outputs": [
        {
          "internalType": "uint256",
          "name": "",
          "type": "uint256"
        }
      ],
      "stateMutability": "nonpayable",
      "type": "function"
    },
    {
      "stateMutability": "payable",
      "type": "receive",
      "payable": true
    },
    {
      "inputs": [
        {
          "internalType": "string",
          "name": "_description",
          "type": "string"
        },
        {
          "internalType": "uint256",
          "name": "_dueDate",
          "type": "uint256"
        }
      ],
      "name": "add",
      "outputs": [],
      "stateMutability": "nonpayable",
      "type": "function"
    },
    {
      "inputs": [
        {
          "internalType": "uint256",
          "name": "_id",
          "type": "uint256"
        },
        {
          "internalType": "string",
          "name": "_description",
          "type": "string"
        },
        {
          "internalType": "uint256",
          "name": "_dueDate",
          "type": "uint256"
        }
      ],
      "name": "update",
      "outputs": [],
      "stateMutability": "nonpayable",
      "type": "function"
    },
    {
      "inputs": [
        {
          "internalType": "uint256",
          "name": "_id",
          "type": "uint256"
        }
      ],
      "name": "remove",
      "outputs": [],
      "stateMutability": "nonpayable",
      "type": "function"
    },
    {
      "inputs": [
        {
          "internalType": "uint256",
          "name": "_id",
          "type": "uint256"
        }
      ],
      "name": "setComplete",
      "outputs": [],
      "stateMutability": "nonpayable",
      "type": "function"
    },
    {
      "inputs": [
        {
          "internalType": "uint256",
          "name": "_id",
          "type": "uint256"
        }
      ],
      "name": "setIncomplete",
      "outputs": [],
      "stateMutability": "nonpayable",
      "type": "function"
    },
    {
      "inputs": [
        {
          "internalType": "uint256",
          "name": "_id",
          "type": "uint256"
        }
      ],
      "name": "clear",
      "outputs": [
        {
          "internalType": "bool",
          "name": "",
          "type": "bool"
        }
      ],
      "stateMutability": "nonpayable",
      "type": "function"
    },
    {
      "inputs": [
        {
          "internalType": "uint256",
          "name": "_id",
          "type": "uint256"
        }
      ],
      "name": "setPrize",
      "outputs": [],
      "stateMutability": "payable",
      "type": "function",
      "payable": true
    },
    {
      "inputs": [
        {
          "internalType": "uint256",
          "name": "_id",
          "type": "uint256"
        }
      ],
      "name": "isPunishing",
      "outputs": [
        {
          "internalType": "bool",
          "name": "",
          "type": "bool"
        }
      ],
      "stateMutability": "view",
      "type": "function",
      "constant": true
    },
    {
      "inputs": [],
      "name": "getTasks",
      "outputs": [
        {
          "components": [
            {
              "internalType": "string",
              "name": "description",
              "type": "string"
            },
            {
              "internalType": "uint256",
              "name": "createdAt",
              "type": "uint256"
            },
            {
              "internalType": "uint256",
              "name": "value",
              "type": "uint256"
            },
            {
              "internalType": "uint256",
              "name": "dueDate",
              "type": "uint256"
            },
            {
              "internalType": "bool",
              "name": "completed",
              "type": "bool"
            },
            {
              "internalType": "bool",
              "name": "cleared",
              "type": "bool"
            }
          ],
          "internalType": "struct SmartLearn.Task[]",
          "name": "",
          "type": "tuple[]"
        }
      ],
      "stateMutability": "view",
      "type": "function",
      "constant": true
    },
    {
      "inputs": [
        {
          "internalType": "uint256",
          "name": "_id",
          "type": "uint256"
        }
      ],
      "name": "getTask",
      "outputs": [
        {
          "components": [
            {
              "internalType": "string",
              "name": "description",
              "type": "string"
            },
            {
              "internalType": "uint256",
              "name": "createdAt",
              "type": "uint256"
            },
            {
              "internalType": "uint256",
              "name": "value",
              "type": "uint256"
            },
            {
              "internalType": "uint256",
              "name": "dueDate",
              "type": "uint256"
            },
            {
              "internalType": "bool",
              "name": "completed",
              "type": "bool"
            },
            {
              "internalType": "bool",
              "name": "cleared",
              "type": "bool"
            }
          ],
          "internalType": "struct SmartLearn.Task",
          "name": "",
          "type": "tuple"
        }
      ],
      "stateMutability": "view",
      "type": "function",
      "constant": true
    }
  ],
  "bytecode": "0x608060405234801561001057600080fd5b5061002d61002261003260201b60201c565b61003a60201b60201c565b6100fe565b600033905090565b60008060009054906101000a900473ffffffffffffffffffffffffffffffffffffffff169050816000806101000a81548173ffffffffffffffffffffffffffffffffffffffff021916908373ffffffffffffffffffffffffffffffffffffffff1602179055508173ffffffffffffffffffffffffffffffffffffffff168173ffffffffffffffffffffffffffffffffffffffff167f8be0079c531659141344cd1fd0a4f28419497f9722a3daafe3b4186f6b6457e060405160405180910390a35050565b6121dc806200010e6000396000f3fe6080604052600436106101025760003560e01c80638da5cb5b11610095578063c0fe1af811610064578063c0fe1af814610337578063c20eec7b14610374578063c34f6b0d146103b1578063e7a9d406146103dc578063f2fde38b146104055761010c565b80638da5cb5b146102695780639ec06b8e14610294578063ad841e07146102d1578063b35d11bf146102fa5761010c565b80636ca7f3ba116100d15780636ca7f3ba146101cb5780637149d2e4146101e7578063715018a61461022957806389e8491f146102405761010c565b806304a87e38146101115780631d65e77e1461013c57806336555b85146101795780634cc82215146101a25761010c565b3661010c57600080fd5b600080fd5b34801561011d57600080fd5b5061012661042e565b60405161013391906119fb565b60405180910390f35b34801561014857600080fd5b50610163600480360381019061015e9190611a5d565b6105b0565b6040516101709190611b13565b60405180910390f35b34801561018557600080fd5b506101a0600480360381019061019b9190611c6a565b61075d565b005b3480156101ae57600080fd5b506101c960048036038101906101c49190611a5d565b610880565b005b6101e560048036038101906101e09190611a5d565b610b45565b005b3480156101f357600080fd5b5061020e60048036038101906102099190611d24565b610bc9565b60405161022096959493929190611dcc565b60405180910390f35b34801561023557600080fd5b5061023e610cc4565b005b34801561024c57600080fd5b5061026760048036038101906102629190611a5d565b610d4c565b005b34801561027557600080fd5b5061027e610e17565b60405161028b9190611e43565b60405180910390f35b3480156102a057600080fd5b506102bb60048036038101906102b69190611a5d565b610e40565b6040516102c89190611e5e565b60405180910390f35b3480156102dd57600080fd5b506102f860048036038101906102f39190611e79565b610e81565b005b34801561030657600080fd5b50610321600480360381019061031c9190611ee8565b61100d565b60405161032e9190611f15565b60405180910390f35b34801561034357600080fd5b5061035e60048036038101906103599190611a5d565b611025565b60405161036b9190611e5e565b60405180910390f35b34801561038057600080fd5b5061039b60048036038101906103969190611a5d565b6110a6565b6040516103a89190611f15565b60405180910390f35b3480156103bd57600080fd5b506103c6611168565b6040516103d39190611f15565b60405180910390f35b3480156103e857600080fd5b5061040360048036038101906103fe9190611a5d565b6111af565b005b34801561041157600080fd5b5061042c60048036038101906104279190611ee8565b611208565b005b6060600260003373ffffffffffffffffffffffffffffffffffffffff1673ffffffffffffffffffffffffffffffffffffffff168152602001908152602001600020805480602002602001604051908101604052809291908181526020016000905b828210156105a757838290600052602060002090600502016040518060c00160405290816000820180546104c290611f5f565b80601f01602080910402602001604051908101604052809291908181526020018280546104ee90611f5f565b801561053b5780601f106105105761010080835404028352916020019161053b565b820191906000526020600020905b81548152906001019060200180831161051e57829003601f168201915b505050505081526020016001820154815260200160028201548152602001600382015481526020016004820160009054906101000a900460ff161515151581526020016004820160019054906101000a900460ff1615151515815250508152602001906001019061048f565b50505050905090565b6105b8611639565b81600260003373ffffffffffffffffffffffffffffffffffffffff1673ffffffffffffffffffffffffffffffffffffffff168152602001908152602001600020805490501161060657600080fd5b600260003373ffffffffffffffffffffffffffffffffffffffff1673ffffffffffffffffffffffffffffffffffffffff168152602001908152602001600020828154811061065757610656611f91565b5b90600052602060002090600502016040518060c001604052908160008201805461068090611f5f565b80601f01602080910402602001604051908101604052809291908181526020018280546106ac90611f5f565b80156106f95780601f106106ce576101008083540402835291602001916106f9565b820191906000526020600020905b8154815290600101906020018083116106dc57829003601f168201915b505050505081526020016001820154815260200160028201548152602001600382015481526020016004820160009054906101000a900460ff161515151581526020016004820160019054906101000a900460ff1615151515815250509050919050565b60006040518060c0016040528084815260200142815260200160008152602001838152602001600015158152602001600115158152509050600260003373ffffffffffffffffffffffffffffffffffffffff1673ffffffffffffffffffffffffffffffffffffffff168152602001908152602001600020819080600181540180825580915050600190039060005260206000209060050201600090919091909150600082015181600001908051906020019061081a929190611673565b5060208201518160010155604082015181600201556060820151816003015560808201518160040160006101000a81548160ff02191690831515021790555060a08201518160040160016101000a81548160ff0219169083151502179055505050505050565b8061088a81611300565b1561089457600080fd5b600260003373ffffffffffffffffffffffffffffffffffffffff1673ffffffffffffffffffffffffffffffffffffffff1681526020019081526020016000208054905082106108e257600080fd5b600260003373ffffffffffffffffffffffffffffffffffffffff1673ffffffffffffffffffffffffffffffffffffffff1681526020019081526020016000206001600260003373ffffffffffffffffffffffffffffffffffffffff1673ffffffffffffffffffffffffffffffffffffffff168152602001908152602001600020805490506109709190611fef565b8154811061098157610980611f91565b5b9060005260206000209060050201600260003373ffffffffffffffffffffffffffffffffffffffff1673ffffffffffffffffffffffffffffffffffffffff16815260200190815260200160002083815481106109e0576109df611f91565b5b90600052602060002090600502016000820181600001908054610a0290611f5f565b610a0d9291906116f9565b506001820154816001015560028201548160020155600382015481600301556004820160009054906101000a900460ff168160040160006101000a81548160ff0219169083151502179055506004820160019054906101000a900460ff168160040160016101000a81548160ff021916908315150217905550905050600260003373ffffffffffffffffffffffffffffffffffffffff1673ffffffffffffffffffffffffffffffffffffffff168152602001908152602001600020805480610ad857610ad7612023565b5b600190038181906000526020600020906005020160008082016000610afd9190611786565b6001820160009055600282016000905560038201600090556004820160006101000a81549060ff02191690556004820160016101000a81549060ff0219169055505090555050565b806000610b51826105b0565b606001511415610b6057600080fd5b6000610b6b836105b0565b90506000816040015114610b7e57600080fd5b610b8783611334565b15610b9157600080fd5b8060a00151610b9f57600080fd5b3481604001818152505060008160a0019015159081151581525050610bc48382611369565b505050565b60026020528160005260406000208181548110610be557600080fd5b906000526020600020906005020160009150915050806000018054610c0990611f5f565b80601f0160208091040260200160405190810160405280929190818152602001828054610c3590611f5f565b8015610c825780601f10610c5757610100808354040283529160200191610c82565b820191906000526020600020905b815481529060010190602001808311610c6557829003601f168201915b5050505050908060010154908060020154908060030154908060040160009054906101000a900460ff16908060040160019054906101000a900460ff16905086565b610ccc61144b565b73ffffffffffffffffffffffffffffffffffffffff16610cea610e17565b73ffffffffffffffffffffffffffffffffffffffff1614610d40576040517f08c379a0000000000000000000000000000000000000000000000000000000008152600401610d379061209e565b60405180910390fd5b610d4a6000611453565b565b80610d56816105b0565b6080015115610d6457600080fd5b6000610d6f836105b0565b9050610d7a83611300565b1580610d8c5750610d8a83611334565b155b15610dad576001816080019015159081151581525050610dac8382611369565b5b610db683611300565b8015610dc457508060a00151155b15610e1257610dd283610e40565b610e115760018160a00190151590811515815250506001816080019015159081151581525050610e028382611369565b610e10338260400151611517565b5b5b505050565b60008060009054906101000a900473ffffffffffffffffffffffffffffffffffffffff16905090565b6000610e4b82611300565b610e585760009050610e7c565b610e6182611334565b15610e6f5760009050610e7c565b610e78826115b2565b1590505b919050565b82610e8b81611300565b15610e9557600080fd5b6000600260003373ffffffffffffffffffffffffffffffffffffffff1673ffffffffffffffffffffffffffffffffffffffff1681526020019081526020016000208581548110610ee857610ee7611f91565b5b90600052602060002090600502016040518060c0016040529081600082018054610f1190611f5f565b80601f0160208091040260200160405190810160405280929190818152602001828054610f3d90611f5f565b8015610f8a5780601f10610f5f57610100808354040283529160200191610f8a565b820191906000526020600020905b815481529060010190602001808311610f6d57829003601f168201915b505050505081526020016001820154815260200160028201548152602001600382015481526020016004820160009054906101000a900460ff161515151581526020016004820160019054906101000a900460ff1615151515815250509050838160000181905250828160600181815250506110068582611369565b5050505050565b60016020528060005260406000206000915090505481565b600080611031836105b0565b905061103c83611300565b8061104c575061104b83610e40565b5b1561105b5760009150506110a1565b611064836115b2565b1561109b5760018160a001901515908115158152505061108781604001516115ef565b6110918382611369565b60019150506110a1565b60009150505b919050565b6000816110b1611168565b10156110bc57600080fd5b81600160003373ffffffffffffffffffffffffffffffffffffffff1673ffffffffffffffffffffffffffffffffffffffff168152602001908152602001600020600082825461110b9190611fef565b925050819055503373ffffffffffffffffffffffffffffffffffffffff166108fc839081150290604051600060405180830381858888f19350505050158015611158573d6000803e3d6000fd5b50611161611168565b9050919050565b6000600160003373ffffffffffffffffffffffffffffffffffffffff1673ffffffffffffffffffffffffffffffffffffffff16815260200190815260200160002054905090565b806111b9816105b0565b608001516111c657600080fd5b816111d081611300565b156111da57600080fd5b60006111e5846105b0565b905060008160800190151590811515815250506112028482611369565b50505050565b61121061144b565b73ffffffffffffffffffffffffffffffffffffffff1661122e610e17565b73ffffffffffffffffffffffffffffffffffffffff1614611284576040517f08c379a000000000000000000000000000000000000000000000000000000000815260040161127b9061209e565b60405180910390fd5b600073ffffffffffffffffffffffffffffffffffffffff168173ffffffffffffffffffffffffffffffffffffffff1614156112f4576040517f08c379a00000000000000000000000000000000000000000000000000000000081526004016112eb90612130565b60405180910390fd5b6112fd81611453565b50565b60008061130c836105b0565b905060008160400151141561132557600091505061132f565b8060a00151159150505b919050565b600080611340836105b0565b9050600081606001511415611359576000915050611364565b428160600151109150505b919050565b80600260003373ffffffffffffffffffffffffffffffffffffffff1673ffffffffffffffffffffffffffffffffffffffff16815260200190815260200160002083815481106113bb576113ba611f91565b5b906000526020600020906005020160008201518160000190805190602001906113e5929190611673565b5060208201518160010155604082015181600201556060820151816003015560808201518160040160006101000a81548160ff02191690831515021790555060a08201518160040160016101000a81548160ff0219169083151502179055509050505050565b600033905090565b60008060009054906101000a900473ffffffffffffffffffffffffffffffffffffffff169050816000806101000a81548173ffffffffffffffffffffffffffffffffffffffff021916908373ffffffffffffffffffffffffffffffffffffffff1602179055508173ffffffffffffffffffffffffffffffffffffffff168173ffffffffffffffffffffffffffffffffffffffff167f8be0079c531659141344cd1fd0a4f28419497f9722a3daafe3b4186f6b6457e060405160405180910390a35050565b6000600160008473ffffffffffffffffffffffffffffffffffffffff1673ffffffffffffffffffffffffffffffffffffffff16815260200190815260200160002054905081816115679190612150565b905080600160008573ffffffffffffffffffffffffffffffffffffffff1673ffffffffffffffffffffffffffffffffffffffff16815260200190815260200160002081905550505050565b6000806115be836105b0565b905062278d0081606001516115d39190612150565b4211156115e45760019150506115ea565b60009150505b919050565b3373ffffffffffffffffffffffffffffffffffffffff166108fc829081150290604051600060405180830381858888f19350505050158015611635573d6000803e3d6000fd5b5050565b6040518060c00160405280606081526020016000815260200160008152602001600081526020016000151581526020016000151581525090565b82805461167f90611f5f565b90600052602060002090601f0160209004810192826116a157600085556116e8565b82601f106116ba57805160ff19168380011785556116e8565b828001600101855582156116e8579182015b828111156116e75782518255916020019190600101906116cc565b5b5090506116f591906117c6565b5090565b82805461170590611f5f565b90600052602060002090601f0160209004810192826117275760008555611775565b82601f106117385780548555611775565b8280016001018555821561177557600052602060002091601f016020900482015b82811115611774578254825591600101919060010190611759565b5b50905061178291906117c6565b5090565b50805461179290611f5f565b6000825580601f106117a457506117c3565b601f0160209004906000526020600020908101906117c291906117c6565b5b50565b5b808211156117df5760008160009055506001016117c7565b5090565b600081519050919050565b600082825260208201905092915050565b6000819050602082019050919050565b600081519050919050565b600082825260208201905092915050565b60005b8381101561184957808201518184015260208101905061182e565b83811115611858576000848401525b50505050565b6000601f19601f8301169050919050565b600061187a8261180f565b611884818561181a565b935061189481856020860161182b565b61189d8161185e565b840191505092915050565b6000819050919050565b6118bb816118a8565b82525050565b60008115159050919050565b6118d6816118c1565b82525050565b600060c08301600083015184820360008601526118f9828261186f565b915050602083015161190e60208601826118b2565b50604083015161192160408601826118b2565b50606083015161193460608601826118b2565b50608083015161194760808601826118cd565b5060a083015161195a60a08601826118cd565b508091505092915050565b600061197183836118dc565b905092915050565b6000602082019050919050565b6000611991826117e3565b61199b81856117ee565b9350836020820285016119ad856117ff565b8060005b858110156119e957848403895281516119ca8582611965565b94506119d583611979565b925060208a019950506001810190506119b1565b50829750879550505050505092915050565b60006020820190508181036000830152611a158184611986565b905092915050565b6000604051905090565b600080fd5b600080fd5b611a3a816118a8565b8114611a4557600080fd5b50565b600081359050611a5781611a31565b92915050565b600060208284031215611a7357611a72611a27565b5b6000611a8184828501611a48565b91505092915050565b600060c0830160008301518482036000860152611aa7828261186f565b9150506020830151611abc60208601826118b2565b506040830151611acf60408601826118b2565b506060830151611ae260608601826118b2565b506080830151611af560808601826118cd565b5060a0830151611b0860a08601826118cd565b508091505092915050565b60006020820190508181036000830152611b2d8184611a8a565b905092915050565b600080fd5b600080fd5b7f4e487b7100000000000000000000000000000000000000000000000000000000600052604160045260246000fd5b611b778261185e565b810181811067ffffffffffffffff82111715611b9657611b95611b3f565b5b80604052505050565b6000611ba9611a1d565b9050611bb58282611b6e565b919050565b600067ffffffffffffffff821115611bd557611bd4611b3f565b5b611bde8261185e565b9050602081019050919050565b82818337600083830152505050565b6000611c0d611c0884611bba565b611b9f565b905082815260208101848484011115611c2957611c28611b3a565b5b611c34848285611beb565b509392505050565b600082601f830112611c5157611c50611b35565b5b8135611c61848260208601611bfa565b91505092915050565b60008060408385031215611c8157611c80611a27565b5b600083013567ffffffffffffffff811115611c9f57611c9e611a2c565b5b611cab85828601611c3c565b9250506020611cbc85828601611a48565b9150509250929050565b600073ffffffffffffffffffffffffffffffffffffffff82169050919050565b6000611cf182611cc6565b9050919050565b611d0181611ce6565b8114611d0c57600080fd5b50565b600081359050611d1e81611cf8565b92915050565b60008060408385031215611d3b57611d3a611a27565b5b6000611d4985828601611d0f565b9250506020611d5a85828601611a48565b9150509250929050565b600082825260208201905092915050565b6000611d808261180f565b611d8a8185611d64565b9350611d9a81856020860161182b565b611da38161185e565b840191505092915050565b611db7816118a8565b82525050565b611dc6816118c1565b82525050565b600060c0820190508181036000830152611de68189611d75565b9050611df56020830188611dae565b611e026040830187611dae565b611e0f6060830186611dae565b611e1c6080830185611dbd565b611e2960a0830184611dbd565b979650505050505050565b611e3d81611ce6565b82525050565b6000602082019050611e586000830184611e34565b92915050565b6000602082019050611e736000830184611dbd565b92915050565b600080600060608486031215611e9257611e91611a27565b5b6000611ea086828701611a48565b935050602084013567ffffffffffffffff811115611ec157611ec0611a2c565b5b611ecd86828701611c3c565b9250506040611ede86828701611a48565b9150509250925092565b600060208284031215611efe57611efd611a27565b5b6000611f0c84828501611d0f565b91505092915050565b6000602082019050611f2a6000830184611dae565b92915050565b7f4e487b7100000000000000000000000000000000000000000000000000000000600052602260045260246000fd5b60006002820490506001821680611f7757607f821691505b60208210811415611f8b57611f8a611f30565b5b50919050565b7f4e487b7100000000000000000000000000000000000000000000000000000000600052603260045260246000fd5b7f4e487b7100000000000000000000000000000000000000000000000000000000600052601160045260246000fd5b6000611ffa826118a8565b9150612005836118a8565b92508282101561201857612017611fc0565b5b828203905092915050565b7f4e487b7100000000000000000000000000000000000000000000000000000000600052603160045260246000fd5b7f4f776e61626c653a2063616c6c6572206973206e6f7420746865206f776e6572600082015250565b6000612088602083611d64565b915061209382612052565b602082019050919050565b600060208201905081810360008301526120b78161207b565b9050919050565b7f4f776e61626c653a206e6577206f776e657220697320746865207a65726f206160008201527f6464726573730000000000000000000000000000000000000000000000000000602082015250565b600061211a602683611d64565b9150612125826120be565b604082019050919050565b600060208201905081810360008301526121498161210d565b9050919050565b600061215b826118a8565b9150612166836118a8565b9250827fffffffffffffffffffffffffffffffffffffffffffffffffffffffffffffffff0382111561219b5761219a611fc0565b5b82820190509291505056fea26469706673582212209411a627df14da635c1574aafad356ae61f3d5fb05df02ba37707b49d4351b3264736f6c634300080b0033",
  "immutableReferences": {},
  "source": "// SPDX-License-Identifier: MIT\npragma solidity >=0.8.0 <0.9.0;\n\nimport \"@openzeppelin/contracts/access/Ownable.sol\";\nimport \"./Financable.sol\";\n\ncontract SmartLearn is Ownable, Financable{\n  \n  /*\n   * Constant variables\n   */\n  \n  // Punishment period in seconds\n  uint constant PUNISHMENT_TIME = 30 days;\n\n  /*\n   * State variables\n   */\n\n  struct Task {\n    string description;\n    uint createdAt;\n    uint value;\n    uint dueDate;\n    bool completed;\n    bool cleared;\n  }\n\n  // Tasks\n  mapping (address => Task[]) public tasks;\n\n  /* \n   * Events\n   */\n\n  // Task added event\n  event LogAdd (address userAddress, uint taskID); // TODO\n\n  /* \n   * Modifiers\n   */\n\n  modifier validDueDate (uint _date) {\n    require(_date > block.timestamp);\n    _;\n  }\n\n  // If task has not any prize locked in it\n  modifier notPrized (uint _id) {\n    require(!hasPrize(_id));\n    _;\n  }\n\n  modifier completed (uint _id) {\n    require(getTask(_id).completed);\n    _;\n  }\n\n  modifier incomplete (uint _id) {\n    require(!getTask(_id).completed);\n    _;\n  }\n\n  modifier dueIsSet (uint _id) {\n    require(getTask(_id).dueDate != 0);\n    _;\n  }\n\n\n\n  /* \n   * Functions\n   */\n\n  // Add task\n  function add(string memory _description, uint _dueDate) public {\n    Task memory task = Task({\n      description: _description,\n      createdAt: block.timestamp,\n      value: 0,\n      dueDate: _dueDate,\n      completed: false,\n      cleared: true\n    });\n    tasks[msg.sender].push(task);\n  }\n\n\n  // Update task\n  function update(uint _id, string memory _description, uint _dueDate)\n  public notPrized(_id) {\n    Task memory task = tasks[msg.sender][_id];\n    task.description = _description;\n    task.dueDate = _dueDate;\n    replace(_id, task);\n  }\n\n  // Remove task\n  function remove(uint _id) public notPrized(_id) {\n    require(_id < tasks[msg.sender].length);\n\n    tasks[msg.sender][_id] = tasks[msg.sender][tasks[msg.sender].length - 1];\n    tasks[msg.sender].pop();\n  }\n  \n\n  // Set complete\n  function setComplete(uint _id) public incomplete(_id) {\n    Task memory task = getTask(_id);\n    if (!hasPrize(_id) || !isExpired(_id)) {\n      task.completed = true;\n      replace(_id, task);\n    }\n    if (hasPrize(_id) && !task.cleared) {\n      if (!isPunishing(_id)) {\n        task.cleared = true;\n        task.completed = true;\n        replace(_id, task);\n        addPrize(msg.sender, task.value);\n      }\n    }\n  }\n\n  // Set incomplete\n  function setIncomplete(uint _id) public completed(_id) notPrized(_id) {\n    Task memory task = getTask(_id);\n    task.completed = false;\n    replace(_id, task);\n  }\n\n  // Has prize locked in it\n  function hasPrize(uint _id) internal view returns (bool) {\n    Task memory task = getTask(_id);\n    if (task.value == 0)\n      return false;\n    return !task.cleared;\n  }\n\n  // Clear a task\n  function clear(uint _id) public returns (bool) {\n    Task memory task = getTask(_id);\n    if(hasPrize(_id) || isPunishing(_id)) {\n      return false;\n    }\n    if(isPunishmentOver(_id)) {\n      task.cleared = true;\n      payUser(task.value);\n      replace(_id, task);\n      return true;\n    }\n    return false;\n  }\n\n  // Set prize\n  function setPrize(uint _id) public payable dueIsSet(_id) {\n    Task memory task = getTask(_id);\n    require(task.value == 0);\n    require(!isExpired(_id));\n    require(task.cleared);\n\n    task.value = msg.value;\n    task.cleared = false;\n\n    replace(_id, task);\n  }\n\n  // Is in punishment period\n  function isPunishing(uint _id) public view returns (bool) {\n    if (!hasPrize(_id)) {\n      return false;\n    }\n    if (!!isExpired(_id)) {\n      return false;\n    }\n    return !isPunishmentOver(_id);\n  }\n\n  // Is punishment period over\n  function isPunishmentOver(uint _id) private view returns (bool){\n    Task memory task = getTask(_id);\n    if (block.timestamp > task.dueDate + PUNISHMENT_TIME) {\n      return true;\n    }\n    return false;\n  }\n\n  // Is task overdue\n  function isExpired(uint _id) internal view returns (bool) {\n    Task memory task = getTask(_id);\n    if (task.dueDate == 0) {\n      return false;\n    }\n    return (task.dueDate < block.timestamp);\n  }\n\n  // Get current user tasks\n  function getTasks() public view returns(Task[] memory) {\n    return tasks[msg.sender];\n  }\n\n  // Get task\n  function getTask(uint _id) public view returns(Task memory) {\n    require(tasks[msg.sender].length>_id);\n    return tasks[msg.sender][_id];\n  }\n\n\n  // Replace task\n  function replace(uint _id, Task memory _task) internal {\n    tasks[msg.sender][_id] = _task;\n  }\n\n}\n",
  "sourcePath": "/home/faman/smartlearn/contracts/SmartLearn.sol",
  "compiler": {
    "name": "solc",
    "version": "0.8.11+commit.d7f03943.Emscripten.clang"
  },
  "schemaVersion": "3.4.4",
  "updatedAt": "2022-05-04T11:00:23.918Z",
  "networkType": "ethereum",
  "devdoc": {
    "kind": "dev",
    "methods": {
      "owner()": {
        "details": "Returns the address of the current owner."
      },
      "renounceOwnership()": {
        "details": "Leaves the contract without owner. It will not be possible to call `onlyOwner` functions anymore. Can only be called by the current owner. NOTE: Renouncing ownership will leave the contract without an owner, thereby removing any functionality that is only available to the owner."
      },
      "transferOwnership(address)": {
        "details": "Transfers ownership of the contract to a new account (`newOwner`). Can only be called by the current owner."
      }
    },
    "version": 1
  },
  "userdoc": {
    "kind": "user",
    "methods": {},
    "version": 1
  }
}