{
  "contractName": "SmartLearn",
  "abi": [
    {
      "anonymous": false,
      "inputs": [],
      "name": "LogCoursesUpdated",
      "type": "event"
    },
    {
      "anonymous": false,
      "inputs": [
        {
          "indexed": true,
          "internalType": "address",
          "name": "previousOwner",
          "type": "address"
        },
        {
          "indexed": true,
          "internalType": "address",
          "name": "newOwner",
          "type": "address"
        }
      ],
      "name": "OwnershipTransferred",
      "type": "event"
    },
    {
      "anonymous": false,
      "inputs": [
        {
          "indexed": false,
          "internalType": "address",
          "name": "account",
          "type": "address"
        }
      ],
      "name": "Paused",
      "type": "event"
    },
    {
      "anonymous": false,
      "inputs": [
        {
          "indexed": false,
          "internalType": "address",
          "name": "account",
          "type": "address"
        }
      ],
      "name": "Unpaused",
      "type": "event"
    },
    {
      "stateMutability": "payable",
      "type": "fallback",
      "payable": true
    },
    {
      "inputs": [],
      "name": "WAGE",
      "outputs": [
        {
          "internalType": "uint256",
          "name": "",
          "type": "uint256"
        }
      ],
      "stateMutability": "view",
      "type": "function",
      "constant": true
    },
    {
      "inputs": [],
      "name": "addToReachTotal",
      "outputs": [],
      "stateMutability": "nonpayable",
      "type": "function"
    },
    {
      "inputs": [
        {
          "internalType": "address",
          "name": "",
          "type": "address"
        }
      ],
      "name": "courseCount",
      "outputs": [
        {
          "internalType": "uint256",
          "name": "",
          "type": "uint256"
        }
      ],
      "stateMutability": "view",
      "type": "function",
      "constant": true
    },
    {
      "inputs": [
        {
          "internalType": "address",
          "name": "",
          "type": "address"
        },
        {
          "internalType": "uint256",
          "name": "",
          "type": "uint256"
        }
      ],
      "name": "courses",
      "outputs": [
        {
          "internalType": "string",
          "name": "description",
          "type": "string"
        },
        {
          "internalType": "address",
          "name": "anotherWallet",
          "type": "address"
        },
        {
          "internalType": "uint256",
          "name": "createdAt",
          "type": "uint256"
        },
        {
          "internalType": "uint256",
          "name": "finishedAt",
          "type": "uint256"
        },
        {
          "internalType": "uint256",
          "name": "value",
          "type": "uint256"
        },
        {
          "internalType": "uint256",
          "name": "deadline",
          "type": "uint256"
        },
        {
          "internalType": "bool",
          "name": "completed",
          "type": "bool"
        },
        {
          "internalType": "bool",
          "name": "killed",
          "type": "bool"
        },
        {
          "internalType": "bool",
          "name": "punishMe",
          "type": "bool"
        },
        {
          "internalType": "bool",
          "name": "toAnother",
          "type": "bool"
        }
      ],
      "stateMutability": "view",
      "type": "function",
      "constant": true
    },
    {
      "inputs": [
        {
          "internalType": "uint256",
          "name": "count",
          "type": "uint256"
        }
      ],
      "name": "decreaseCount",
      "outputs": [],
      "stateMutability": "nonpayable",
      "type": "function"
    },
    {
      "inputs": [],
      "name": "getTotal",
      "outputs": [
        {
          "internalType": "uint256",
          "name": "",
          "type": "uint256"
        }
      ],
      "stateMutability": "view",
      "type": "function",
      "constant": true
    },
    {
      "inputs": [],
      "name": "owner",
      "outputs": [
        {
          "internalType": "address",
          "name": "",
          "type": "address"
        }
      ],
      "stateMutability": "view",
      "type": "function",
      "constant": true
    },
    {
      "inputs": [],
      "name": "paused",
      "outputs": [
        {
          "internalType": "bool",
          "name": "",
          "type": "bool"
        }
      ],
      "stateMutability": "view",
      "type": "function",
      "constant": true
    },
    {
      "inputs": [],
      "name": "reachTotal",
      "outputs": [
        {
          "internalType": "uint256",
          "name": "",
          "type": "uint256"
        }
      ],
      "stateMutability": "view",
      "type": "function",
      "constant": true
    },
    {
      "inputs": [],
      "name": "renounceOwnership",
      "outputs": [],
      "stateMutability": "nonpayable",
      "type": "function"
    },
    {
      "inputs": [],
      "name": "target",
      "outputs": [
        {
          "internalType": "uint256",
          "name": "",
          "type": "uint256"
        }
      ],
      "stateMutability": "view",
      "type": "function",
      "constant": true
    },
    {
      "inputs": [
        {
          "internalType": "address",
          "name": "",
          "type": "address"
        }
      ],
      "name": "total",
      "outputs": [
        {
          "internalType": "uint256",
          "name": "",
          "type": "uint256"
        }
      ],
      "stateMutability": "view",
      "type": "function",
      "constant": true
    },
    {
      "inputs": [
        {
          "internalType": "address",
          "name": "newOwner",
          "type": "address"
        }
      ],
      "name": "transferOwnership",
      "outputs": [],
      "stateMutability": "nonpayable",
      "type": "function"
    },
    {
      "stateMutability": "payable",
      "type": "receive",
      "payable": true
    },
    {
      "inputs": [],
      "name": "donate",
      "outputs": [],
      "stateMutability": "payable",
      "type": "function",
      "payable": true
    },
    {
      "inputs": [],
      "name": "getCourses",
      "outputs": [
        {
          "components": [
            {
              "internalType": "string",
              "name": "description",
              "type": "string"
            },
            {
              "internalType": "address",
              "name": "anotherWallet",
              "type": "address"
            },
            {
              "internalType": "uint256",
              "name": "createdAt",
              "type": "uint256"
            },
            {
              "internalType": "uint256",
              "name": "finishedAt",
              "type": "uint256"
            },
            {
              "internalType": "uint256",
              "name": "value",
              "type": "uint256"
            },
            {
              "internalType": "uint256",
              "name": "deadline",
              "type": "uint256"
            },
            {
              "internalType": "bool",
              "name": "completed",
              "type": "bool"
            },
            {
              "internalType": "bool",
              "name": "killed",
              "type": "bool"
            },
            {
              "internalType": "bool",
              "name": "punishMe",
              "type": "bool"
            },
            {
              "internalType": "bool",
              "name": "toAnother",
              "type": "bool"
            }
          ],
          "internalType": "struct CourseFactory.Course[]",
          "name": "",
          "type": "tuple[]"
        }
      ],
      "stateMutability": "view",
      "type": "function",
      "constant": true
    },
    {
      "inputs": [
        {
          "internalType": "string",
          "name": "_description",
          "type": "string"
        },
        {
          "internalType": "uint256",
          "name": "_deadline",
          "type": "uint256"
        },
        {
          "internalType": "address",
          "name": "_anotherWallet",
          "type": "address"
        },
        {
          "internalType": "bool",
          "name": "_dontPunishMe",
          "type": "bool"
        },
        {
          "internalType": "bool",
          "name": "_toAnother",
          "type": "bool"
        }
      ],
      "name": "add",
      "outputs": [],
      "stateMutability": "payable",
      "type": "function",
      "payable": true
    },
    {
      "inputs": [
        {
          "internalType": "uint256",
          "name": "_id",
          "type": "uint256"
        }
      ],
      "name": "setComplete",
      "outputs": [],
      "stateMutability": "nonpayable",
      "type": "function"
    },
    {
      "inputs": [
        {
          "internalType": "uint256",
          "name": "_id",
          "type": "uint256"
        }
      ],
      "name": "remove",
      "outputs": [],
      "stateMutability": "nonpayable",
      "type": "function"
    },
    {
      "inputs": [
        {
          "internalType": "uint256",
          "name": "_id",
          "type": "uint256"
        }
      ],
      "name": "kill",
      "outputs": [],
      "stateMutability": "nonpayable",
      "type": "function"
    },
    {
      "inputs": [],
      "name": "pause",
      "outputs": [],
      "stateMutability": "nonpayable",
      "type": "function"
    },
    {
      "inputs": [],
      "name": "unpause",
      "outputs": [],
      "stateMutability": "nonpayable",
      "type": "function"
    }
  ],
  "bytecode": "0x608060405267016345785d8a00006003553480156200001d57600080fd5b506001600081905550620000466200003a6200006760201b60201c565b6200006f60201b60201c565b6000600460146101000a81548160ff02191690831515021790555062000135565b600033905090565b6000600460009054906101000a900473ffffffffffffffffffffffffffffffffffffffff16905081600460006101000a81548173ffffffffffffffffffffffffffffffffffffffff021916908373ffffffffffffffffffffffffffffffffffffffff1602179055508173ffffffffffffffffffffffffffffffffffffffff168173ffffffffffffffffffffffffffffffffffffffff167f8be0079c531659141344cd1fd0a4f28419497f9722a3daafe3b4186f6b6457e060405160405180910390a35050565b612c3980620001456000396000f3fe60806040526004361061012e5760003560e01c806389e8491f116100ab578063d1b8c87b1161006f578063d1b8c87b1461038a578063d2514e84146103b5578063d29a0025146103f2578063d4b839921461041b578063ed88c68e14610446578063f2fde38b1461045057610138565b806389e8491f146102a95780638da5cb5b146102d2578063b727ed38146102fd578063c1e478cb14610319578063cc1264791461035f57610138565b80634f720484116100f25780634f720484146101fa5780635c975abb14610225578063715018a614610250578063775a25e3146102675780638456cb591461029257610138565b806328f176fe1461013d578063299f28e41461017a57806329e07322146101915780633f4ba83a146101ba5780634cc82215146101d157610138565b3661013857600080fd5b600080fd5b34801561014957600080fd5b50610164600480360381019061015f919061211a565b610479565b6040516101719190612160565b60405180910390f35b34801561018657600080fd5b5061018f610491565b005b34801561019d57600080fd5b506101b860048036038101906101b391906121a7565b61054e565b005b3480156101c657600080fd5b506101cf6105a4565b005b3480156101dd57600080fd5b506101f860048036038101906101f391906121a7565b61062a565b005b34801561020657600080fd5b5061020f610636565b60405161021c9190612160565b60405180910390f35b34801561023157600080fd5b5061023a61067d565b60405161024791906121ef565b60405180910390f35b34801561025c57600080fd5b50610265610694565b005b34801561027357600080fd5b5061027c61071c565b6040516102899190612160565b60405180910390f35b34801561029e57600080fd5b506102a7610763565b005b3480156102b557600080fd5b506102d060048036038101906102cb91906121a7565b6107e9565b005b3480156102de57600080fd5b506102e76107f5565b6040516102f49190612219565b60405180910390f35b610317600480360381019061031291906123a6565b61081f565b005b34801561032557600080fd5b50610340600480360381019061033b919061243d565b610833565b6040516103569a99989796959493929190612505565b60405180910390f35b34801561036b57600080fd5b50610374610980565b60405161038191906127bb565b60405180910390f35b34801561039657600080fd5b5061039f61098f565b6040516103ac9190612160565b60405180910390f35b3480156103c157600080fd5b506103dc60048036038101906103d7919061211a565b61099b565b6040516103e99190612160565b60405180910390f35b3480156103fe57600080fd5b50610419600480360381019061041491906121a7565b6109b3565b005b34801561042757600080fd5b506104306109bf565b60405161043d9190612160565b60405180910390f35b61044e6109c5565b005b34801561045c57600080fd5b506104776004803603810190610472919061211a565b6109cf565b005b60026020528060005260406000206000915090505481565b600354600160003373ffffffffffffffffffffffffffffffffffffffff1673ffffffffffffffffffffffffffffffffffffffff168152602001908152602001600020541061054c576001600260003373ffffffffffffffffffffffffffffffffffffffff1673ffffffffffffffffffffffffffffffffffffffff1681526020019081526020016000206000828254610529919061280c565b9250508190555060035460036000828254610544919061280c565b925050819055505b565b60018161055b9190612862565b905080600260003373ffffffffffffffffffffffffffffffffffffffff1673ffffffffffffffffffffffffffffffffffffffff1681526020019081526020016000208190555050565b6105ac610ac7565b73ffffffffffffffffffffffffffffffffffffffff166105ca6107f5565b73ffffffffffffffffffffffffffffffffffffffff1614610620576040517f08c379a0000000000000000000000000000000000000000000000000000000008152600401610617906128e2565b60405180910390fd5b610628610acf565b565b61063381610b71565b50565b6000600260003373ffffffffffffffffffffffffffffffffffffffff1673ffffffffffffffffffffffffffffffffffffffff16815260200190815260200160002054905090565b6000600460149054906101000a900460ff16905090565b61069c610ac7565b73ffffffffffffffffffffffffffffffffffffffff166106ba6107f5565b73ffffffffffffffffffffffffffffffffffffffff1614610710576040517f08c379a0000000000000000000000000000000000000000000000000000000008152600401610707906128e2565b60405180910390fd5b61071a6000610f5f565b565b6000600160003373ffffffffffffffffffffffffffffffffffffffff1673ffffffffffffffffffffffffffffffffffffffff16815260200190815260200160002054905090565b61076b610ac7565b73ffffffffffffffffffffffffffffffffffffffff166107896107f5565b73ffffffffffffffffffffffffffffffffffffffff16146107df576040517f08c379a00000000000000000000000000000000000000000000000000000000081526004016107d6906128e2565b60405180910390fd5b6107e7611025565b565b6107f2816110c8565b50565b6000600460009054906101000a900473ffffffffffffffffffffffffffffffffffffffff16905090565b61082c85858585856111cf565b5050505050565b6005602052816000526040600020818154811061084f57600080fd5b90600052602060002090600702016000915091505080600001805461087390612931565b80601f016020809104026020016040519081016040528092919081815260200182805461089f90612931565b80156108ec5780601f106108c1576101008083540402835291602001916108ec565b820191906000526020600020905b8154815290600101906020018083116108cf57829003601f168201915b5050505050908060010160009054906101000a900473ffffffffffffffffffffffffffffffffffffffff16908060020154908060030154908060040154908060050154908060060160009054906101000a900460ff16908060060160019054906101000a900460ff16908060060160029054906101000a900460ff16908060060160039054906101000a900460ff1690508a565b606061098a611493565b905090565b67016345785d8a000081565b60016020528060005260406000206000915090505481565b6109bc816116ac565b50565b60035481565b6109cd61179c565b565b6109d7610ac7565b73ffffffffffffffffffffffffffffffffffffffff166109f56107f5565b73ffffffffffffffffffffffffffffffffffffffff1614610a4b576040517f08c379a0000000000000000000000000000000000000000000000000000000008152600401610a42906128e2565b60405180910390fd5b600073ffffffffffffffffffffffffffffffffffffffff168173ffffffffffffffffffffffffffffffffffffffff161415610abb576040517f08c379a0000000000000000000000000000000000000000000000000000000008152600401610ab2906129d5565b60405180910390fd5b610ac481610f5f565b50565b600033905090565b610ad761067d565b610b16576040517f08c379a0000000000000000000000000000000000000000000000000000000008152600401610b0d90612a41565b60405180910390fd5b6000600460146101000a81548160ff0219169083151502179055507f5db9ee0a495bf2e6ff9c91a7834c1ba4fdd244a5e8aa4e537bd38aeae4b073aa610b5a610ac7565b604051610b679190612219565b60405180910390a1565b80610b7b816117bf565b60c0015180610b935750610b8e816117bf565b60e001515b610b9c57600080fd5b6000600560003373ffffffffffffffffffffffffffffffffffffffff1673ffffffffffffffffffffffffffffffffffffffff168152602001908152602001600020805490509050808310610bef57600080fd5b600560003373ffffffffffffffffffffffffffffffffffffffff1673ffffffffffffffffffffffffffffffffffffffff168152602001908152602001600020600182610c3b9190612862565b81548110610c4c57610c4b612a61565b5b9060005260206000209060070201600560003373ffffffffffffffffffffffffffffffffffffffff1673ffffffffffffffffffffffffffffffffffffffff1681526020019081526020016000208481548110610cab57610caa612a61565b5b90600052602060002090600702016000820181600001908054610ccd90612931565b610cd8929190611ec7565b506001820160009054906101000a900473ffffffffffffffffffffffffffffffffffffffff168160010160006101000a81548173ffffffffffffffffffffffffffffffffffffffff021916908373ffffffffffffffffffffffffffffffffffffffff160217905550600282015481600201556003820154816003015560048201548160040155600582015481600501556006820160009054906101000a900460ff168160060160006101000a81548160ff0219169083151502179055506006820160019054906101000a900460ff168160060160016101000a81548160ff0219169083151502179055506006820160029054906101000a900460ff168160060160026101000a81548160ff0219169083151502179055506006820160039054906101000a900460ff168160060160036101000a81548160ff021916908315150217905550905050600560003373ffffffffffffffffffffffffffffffffffffffff1673ffffffffffffffffffffffffffffffffffffffff168152602001908152602001600020805480610e6e57610e6d612a90565b5b600190038181906000526020600020906007020160008082016000610e939190611f54565b6001820160006101000a81549073ffffffffffffffffffffffffffffffffffffffff021916905560028201600090556003820160009055600482016000905560058201600090556006820160006101000a81549060ff02191690556006820160016101000a81549060ff02191690556006820160026101000a81549060ff02191690556006820160036101000a81549060ff0219169055505090557f4ed50226598d8b6360adcf22618243a9b6eace12eae87a908be864ee55fac98e60405160405180910390a1505050565b6000600460009054906101000a900473ffffffffffffffffffffffffffffffffffffffff16905081600460006101000a81548173ffffffffffffffffffffffffffffffffffffffff021916908373ffffffffffffffffffffffffffffffffffffffff1602179055508173ffffffffffffffffffffffffffffffffffffffff168173ffffffffffffffffffffffffffffffffffffffff167f8be0079c531659141344cd1fd0a4f28419497f9722a3daafe3b4186f6b6457e060405160405180910390a35050565b61102d61067d565b1561106d576040517f08c379a000000000000000000000000000000000000000000000000000000000815260040161106490612b0b565b60405180910390fd5b6001600460146101000a81548160ff0219169083151502179055507f62e78cea01bee320cd4e420270b5ea74000d11b0c9f74754ebdbfc544b05a2586110b1610ac7565b6040516110be9190612219565b60405180910390a1565b806110d2816117bf565b60c00151156110e057600080fd5b6110e982611a03565b15611129576040517f08c379a000000000000000000000000000000000000000000000000000000000815260040161112090612b77565b60405180910390fd5b6000611134836117bf565b905060018160c001901515908115158152505042816060018181525050600067016345785d8a0000826080015161116b9190612862565b905061117e67016345785d8a0000611a38565b60011515826101200151151514156111a35761119e826020015182611aec565b6111ad565b6111ac81611b8d565b5b6111b78483611c2d565b6111c93367016345785d8a0000611dce565b50505050565b834281116111dc57600080fd5b3467016345785d8a000081116111f157600080fd5b8483600073ffffffffffffffffffffffffffffffffffffffff168273ffffffffffffffffffffffffffffffffffffffff161415801561122d5750805b8061126e5750600073ffffffffffffffffffffffffffffffffffffffff168273ffffffffffffffffffffffffffffffffffffffff1614801561126d575080155b5b61127757600080fd5b60006040518061014001604052808b81526020018973ffffffffffffffffffffffffffffffffffffffff168152602001428152602001606481526020013481526020018a815260200160001515815260200160001515815260200188151581526020018715158152509050600560003373ffffffffffffffffffffffffffffffffffffffff1673ffffffffffffffffffffffffffffffffffffffff1681526020019081526020016000208190806001815401808255809150506001900390600052602060002090600702016000909190919091506000820151816000019080519060200190611367929190611f94565b5060208201518160010160006101000a81548173ffffffffffffffffffffffffffffffffffffffff021916908373ffffffffffffffffffffffffffffffffffffffff16021790555060408201518160020155606082015181600301556080820151816004015560a0820151816005015560c08201518160060160006101000a81548160ff02191690831515021790555060e08201518160060160016101000a81548160ff0219169083151502179055506101008201518160060160026101000a81548160ff0219169083151502179055506101208201518160060160036101000a81548160ff02191690831515021790555050507f4ed50226598d8b6360adcf22618243a9b6eace12eae87a908be864ee55fac98e60405160405180910390a150505050505050505050565b6060600560003373ffffffffffffffffffffffffffffffffffffffff1673ffffffffffffffffffffffffffffffffffffffff168152602001908152602001600020805480602002602001604051908101604052809291908181526020016000905b828210156116a357838290600052602060002090600702016040518061014001604052908160008201805461152890612931565b80601f016020809104026020016040519081016040528092919081815260200182805461155490612931565b80156115a15780601f10611576576101008083540402835291602001916115a1565b820191906000526020600020905b81548152906001019060200180831161158457829003601f168201915b505050505081526020016001820160009054906101000a900473ffffffffffffffffffffffffffffffffffffffff1673ffffffffffffffffffffffffffffffffffffffff1673ffffffffffffffffffffffffffffffffffffffff168152602001600282015481526020016003820154815260200160048201548152602001600582015481526020016006820160009054906101000a900460ff161515151581526020016006820160019054906101000a900460ff161515151581526020016006820160029054906101000a900460ff161515151581526020016006820160039054906101000a900460ff161515151581525050815260200190600101906114f4565b50505050905090565b60006116b7826117bf565b9050600067016345785d8a000082608001516116d39190612862565b90506116de83611a03565b61171d576040517f08c379a000000000000000000000000000000000000000000000000000000000815260040161171490612b77565b60405180910390fd5b60018260e001901515908115158152505060001515826101000151151514156117715761175167016345785d8a0000611a38565b61175a81611b8d565b61176c3367016345785d8a0000611dce565b61178d565b61177e8260800151611a38565b61178c338360800151611dce565b5b6117978383611c2d565b505050565b60003414156117aa57600080fd5b6117b334611a38565b6117bd3334611dce565b565b6117c761201a565b81600560003373ffffffffffffffffffffffffffffffffffffffff1673ffffffffffffffffffffffffffffffffffffffff168152602001908152602001600020805490501161181557600080fd5b600560003373ffffffffffffffffffffffffffffffffffffffff1673ffffffffffffffffffffffffffffffffffffffff168152602001908152602001600020828154811061186657611865612a61565b5b90600052602060002090600702016040518061014001604052908160008201805461189090612931565b80601f01602080910402602001604051908101604052809291908181526020018280546118bc90612931565b80156119095780601f106118de57610100808354040283529160200191611909565b820191906000526020600020905b8154815290600101906020018083116118ec57829003601f168201915b505050505081526020016001820160009054906101000a900473ffffffffffffffffffffffffffffffffffffffff1673ffffffffffffffffffffffffffffffffffffffff1673ffffffffffffffffffffffffffffffffffffffff168152602001600282015481526020016003820154815260200160048201548152602001600582015481526020016006820160009054906101000a900460ff161515151581526020016006820160019054906101000a900460ff161515151581526020016006820160029054906101000a900460ff161515151581526020016006820160039054906101000a900460ff1615151515815250509050919050565b600080611a0f836117bf565b905060008160a001511415611a28576000915050611a33565b428160a00151109150505b919050565b60026000541415611a7e576040517f08c379a0000000000000000000000000000000000000000000000000000000008152600401611a7590612be3565b60405180910390fd5b600260008190555073f615ddf8eb23cd2bb5d9d35e7a83545eb828247873ffffffffffffffffffffffffffffffffffffffff166108fc829081150290604051600060405180830381858888f19350505050158015611ae0573d6000803e3d6000fd5b50600160008190555050565b60026000541415611b32576040517f08c379a0000000000000000000000000000000000000000000000000000000008152600401611b2990612be3565b60405180910390fd5b60026000819055508173ffffffffffffffffffffffffffffffffffffffff166108fc829081150290604051600060405180830381858888f19350505050158015611b80573d6000803e3d6000fd5b5060016000819055505050565b60026000541415611bd3576040517f08c379a0000000000000000000000000000000000000000000000000000000008152600401611bca90612be3565b60405180910390fd5b60026000819055503373ffffffffffffffffffffffffffffffffffffffff166108fc829081150290604051600060405180830381858888f19350505050158015611c21573d6000803e3d6000fd5b50600160008190555050565b80600560003373ffffffffffffffffffffffffffffffffffffffff1673ffffffffffffffffffffffffffffffffffffffff1681526020019081526020016000208381548110611c7f57611c7e612a61565b5b90600052602060002090600702016000820151816000019080519060200190611ca9929190611f94565b5060208201518160010160006101000a81548173ffffffffffffffffffffffffffffffffffffffff021916908373ffffffffffffffffffffffffffffffffffffffff16021790555060408201518160020155606082015181600301556080820151816004015560a0820151816005015560c08201518160060160006101000a81548160ff02191690831515021790555060e08201518160060160016101000a81548160ff0219169083151502179055506101008201518160060160026101000a81548160ff0219169083151502179055506101208201518160060160036101000a81548160ff0219169083151502179055509050507f4ed50226598d8b6360adcf22618243a9b6eace12eae87a908be864ee55fac98e60405160405180910390a15050565b60026000541415611e14576040517f08c379a0000000000000000000000000000000000000000000000000000000008152600401611e0b90612be3565b60405180910390fd5b60026000819055506000600160008473ffffffffffffffffffffffffffffffffffffffff1673ffffffffffffffffffffffffffffffffffffffff1681526020019081526020016000205490508181611e6c919061280c565b905080600160008573ffffffffffffffffffffffffffffffffffffffff1673ffffffffffffffffffffffffffffffffffffffff16815260200190815260200160002081905550611eba610491565b5060016000819055505050565b828054611ed390612931565b90600052602060002090601f016020900481019282611ef55760008555611f43565b82601f10611f065780548555611f43565b82800160010185558215611f4357600052602060002091601f016020900482015b82811115611f42578254825591600101919060010190611f27565b5b509050611f50919061208b565b5090565b508054611f6090612931565b6000825580601f10611f725750611f91565b601f016020900490600052602060002090810190611f90919061208b565b5b50565b828054611fa090612931565b90600052602060002090601f016020900481019282611fc25760008555612009565b82601f10611fdb57805160ff1916838001178555612009565b82800160010185558215612009579182015b82811115612008578251825591602001919060010190611fed565b5b509050612016919061208b565b5090565b60405180610140016040528060608152602001600073ffffffffffffffffffffffffffffffffffffffff168152602001600081526020016000815260200160008152602001600081526020016000151581526020016000151581526020016000151581526020016000151581525090565b5b808211156120a457600081600090555060010161208c565b5090565b6000604051905090565b600080fd5b600080fd5b600073ffffffffffffffffffffffffffffffffffffffff82169050919050565b60006120e7826120bc565b9050919050565b6120f7816120dc565b811461210257600080fd5b50565b600081359050612114816120ee565b92915050565b6000602082840312156121305761212f6120b2565b5b600061213e84828501612105565b91505092915050565b6000819050919050565b61215a81612147565b82525050565b60006020820190506121756000830184612151565b92915050565b61218481612147565b811461218f57600080fd5b50565b6000813590506121a18161217b565b92915050565b6000602082840312156121bd576121bc6120b2565b5b60006121cb84828501612192565b91505092915050565b60008115159050919050565b6121e9816121d4565b82525050565b600060208201905061220460008301846121e0565b92915050565b612213816120dc565b82525050565b600060208201905061222e600083018461220a565b92915050565b600080fd5b600080fd5b6000601f19601f8301169050919050565b7f4e487b7100000000000000000000000000000000000000000000000000000000600052604160045260246000fd5b6122878261223e565b810181811067ffffffffffffffff821117156122a6576122a561224f565b5b80604052505050565b60006122b96120a8565b90506122c5828261227e565b919050565b600067ffffffffffffffff8211156122e5576122e461224f565b5b6122ee8261223e565b9050602081019050919050565b82818337600083830152505050565b600061231d612318846122ca565b6122af565b90508281526020810184848401111561233957612338612239565b5b6123448482856122fb565b509392505050565b600082601f83011261236157612360612234565b5b813561237184826020860161230a565b91505092915050565b612383816121d4565b811461238e57600080fd5b50565b6000813590506123a08161237a565b92915050565b600080600080600060a086880312156123c2576123c16120b2565b5b600086013567ffffffffffffffff8111156123e0576123df6120b7565b5b6123ec8882890161234c565b95505060206123fd88828901612192565b945050604061240e88828901612105565b935050606061241f88828901612391565b925050608061243088828901612391565b9150509295509295909350565b60008060408385031215612454576124536120b2565b5b600061246285828601612105565b925050602061247385828601612192565b9150509250929050565b600081519050919050565b600082825260208201905092915050565b60005b838110156124b757808201518184015260208101905061249c565b838111156124c6576000848401525b50505050565b60006124d78261247d565b6124e18185612488565b93506124f1818560208601612499565b6124fa8161223e565b840191505092915050565b6000610140820190508181036000830152612520818d6124cc565b905061252f602083018c61220a565b61253c604083018b612151565b612549606083018a612151565b6125566080830189612151565b61256360a0830188612151565b61257060c08301876121e0565b61257d60e08301866121e0565b61258b6101008301856121e0565b6125996101208301846121e0565b9b9a5050505050505050505050565b600081519050919050565b600082825260208201905092915050565b6000819050602082019050919050565b600082825260208201905092915050565b60006125f08261247d565b6125fa81856125d4565b935061260a818560208601612499565b6126138161223e565b840191505092915050565b612627816120dc565b82525050565b61263681612147565b82525050565b612645816121d4565b82525050565b600061014083016000830151848203600086015261266982826125e5565b915050602083015161267e602086018261261e565b506040830151612691604086018261262d565b5060608301516126a4606086018261262d565b5060808301516126b7608086018261262d565b5060a08301516126ca60a086018261262d565b5060c08301516126dd60c086018261263c565b5060e08301516126f060e086018261263c565b5061010083015161270561010086018261263c565b5061012083015161271a61012086018261263c565b508091505092915050565b6000612731838361264b565b905092915050565b6000602082019050919050565b6000612751826125a8565b61275b81856125b3565b93508360208202850161276d856125c4565b8060005b858110156127a9578484038952815161278a8582612725565b945061279583612739565b925060208a01995050600181019050612771565b50829750879550505050505092915050565b600060208201905081810360008301526127d58184612746565b905092915050565b7f4e487b7100000000000000000000000000000000000000000000000000000000600052601160045260246000fd5b600061281782612147565b915061282283612147565b9250827fffffffffffffffffffffffffffffffffffffffffffffffffffffffffffffffff03821115612857576128566127dd565b5b828201905092915050565b600061286d82612147565b915061287883612147565b92508282101561288b5761288a6127dd565b5b828203905092915050565b7f4f776e61626c653a2063616c6c6572206973206e6f7420746865206f776e6572600082015250565b60006128cc602083612488565b91506128d782612896565b602082019050919050565b600060208201905081810360008301526128fb816128bf565b9050919050565b7f4e487b7100000000000000000000000000000000000000000000000000000000600052602260045260246000fd5b6000600282049050600182168061294957607f821691505b6020821081141561295d5761295c612902565b5b50919050565b7f4f776e61626c653a206e6577206f776e657220697320746865207a65726f206160008201527f6464726573730000000000000000000000000000000000000000000000000000602082015250565b60006129bf602683612488565b91506129ca82612963565b604082019050919050565b600060208201905081810360008301526129ee816129b2565b9050919050565b7f5061757361626c653a206e6f7420706175736564000000000000000000000000600082015250565b6000612a2b601483612488565b9150612a36826129f5565b602082019050919050565b60006020820190508181036000830152612a5a81612a1e565b9050919050565b7f4e487b7100000000000000000000000000000000000000000000000000000000600052603260045260246000fd5b7f4e487b7100000000000000000000000000000000000000000000000000000000600052603160045260246000fd5b7f5061757361626c653a2070617573656400000000000000000000000000000000600082015250565b6000612af5601083612488565b9150612b0082612abf565b602082019050919050565b60006020820190508181036000830152612b2481612ae8565b9050919050565b7f6475652064617465206973206578706972656400000000000000000000000000600082015250565b6000612b61601383612488565b9150612b6c82612b2b565b602082019050919050565b60006020820190508181036000830152612b9081612b54565b9050919050565b7f5265656e7472616e637947756172643a207265656e7472616e742063616c6c00600082015250565b6000612bcd601f83612488565b9150612bd882612b97565b602082019050919050565b60006020820190508181036000830152612bfc81612bc0565b905091905056fea26469706673582212209c22d3c26bc45ca005221564774b03f37449a42837b120420878ccc27f00f14064736f6c634300080b0033",
  "immutableReferences": {},
  "source": "// SPDX-License-Identifier: MIT\npragma solidity >=0.8.0 <0.9.0;\n//pragma experimental ABIEncoderV2; // Two level dynamic arrays support\n\nimport \"@openzeppelin/contracts/access/Ownable.sol\";\nimport \"./CourseFactory.sol\";\n\ncontract SmartLearn is Ownable, CourseFactory{\n\n  /// @notice Get all courses of msg sender\n  function donate() public payable{\n    _donate();\n  }\n  /// @return Courses array\n  function getCourses() public view returns (Course[] memory) {\n    return _getCourses();\n  }\n\n\n  \n  /// @notice Add a new course for msg sender\n  /// @param _description Course decription\n  /// @param _deadline Course due date\n  function add(string memory _description, uint _deadline, address _anotherWallet , bool _dontPunishMe, bool _toAnother) public payable {\n    _add(_description, _deadline, _anotherWallet ,_dontPunishMe, _toAnother);\n  }\n\n\n  // Set a course as completed\n  function setComplete(uint _id) public {\n    _setComplete(_id);\n  }\n\n  // Remove a course\n  function remove(uint _id) public {\n    _remove(_id);\n  }\n\n  // Add prize to a course\n  // function setPrize(uint _id) public payable {\n  //   _setPrize(_id);\n  // }\n\n  // Kill a course\n  function kill(uint _id) public {\n    _kill(_id);\n  }\n  \n\n  // Pause contract deposits\n  function pause() public onlyOwner() {\n    _pause();\n  }\n\n  // Unpause contract deposits\n  function unpause() public onlyOwner() {\n    _unpause();\n  }\n\n}\n",
  "sourcePath": "/Users/iman/smartlearn/smartcontract/contracts/SmartLearn.sol",
  "compiler": {
    "name": "solc",
    "version": "0.8.11+commit.d7f03943.Emscripten.clang"
  },
  "schemaVersion": "3.4.7",
  "updatedAt": "2022-07-04T22:52:05.504Z",
  "networkType": "ethereum",
  "devdoc": {
    "kind": "dev",
    "methods": {
      "add(string,uint256,address,bool,bool)": {
        "params": {
          "_deadline": "Course due date",
          "_description": "Course decription"
        }
      },
      "getCourses()": {
        "returns": {
          "_0": "Courses array"
        }
      },
      "owner()": {
        "details": "Returns the address of the current owner."
      },
      "paused()": {
        "details": "Returns true if the contract is paused, and false otherwise."
      },
      "renounceOwnership()": {
        "details": "Leaves the contract without owner. It will not be possible to call `onlyOwner` functions anymore. Can only be called by the current owner. NOTE: Renouncing ownership will leave the contract without an owner, thereby removing any functionality that is only available to the owner."
      },
      "transferOwnership(address)": {
        "details": "Transfers ownership of the contract to a new account (`newOwner`). Can only be called by the current owner."
      }
    },
    "version": 1
  },
  "userdoc": {
    "kind": "user",
    "methods": {
      "add(string,uint256,address,bool,bool)": {
        "notice": "Add a new course for msg sender"
      },
      "donate()": {
        "notice": "Get all courses of msg sender"
      }
    },
    "version": 1
  }
}