{
  "contractName": "SmartLearn",
  "abi": [
    {
      "anonymous": false,
      "inputs": [],
      "name": "LogCoursesUpdated",
      "type": "event"
    },
    {
      "anonymous": false,
      "inputs": [
        {
          "indexed": true,
          "internalType": "address",
          "name": "previousOwner",
          "type": "address"
        },
        {
          "indexed": true,
          "internalType": "address",
          "name": "newOwner",
          "type": "address"
        }
      ],
      "name": "OwnershipTransferred",
      "type": "event"
    },
    {
      "anonymous": false,
      "inputs": [
        {
          "indexed": false,
          "internalType": "address",
          "name": "account",
          "type": "address"
        }
      ],
      "name": "Paused",
      "type": "event"
    },
    {
      "anonymous": false,
      "inputs": [
        {
          "indexed": false,
          "internalType": "address",
          "name": "account",
          "type": "address"
        }
      ],
      "name": "Unpaused",
      "type": "event"
    },
    {
      "stateMutability": "payable",
      "type": "fallback",
      "payable": true
    },
    {
      "inputs": [],
      "name": "WAGE",
      "outputs": [
        {
          "internalType": "uint256",
          "name": "",
          "type": "uint256"
        }
      ],
      "stateMutability": "view",
      "type": "function",
      "constant": true
    },
    {
      "inputs": [
        {
          "internalType": "address",
          "name": "",
          "type": "address"
        },
        {
          "internalType": "uint256",
          "name": "",
          "type": "uint256"
        }
      ],
      "name": "courses",
      "outputs": [
        {
          "internalType": "string",
          "name": "description",
          "type": "string"
        },
        {
          "internalType": "uint256",
          "name": "createdAt",
          "type": "uint256"
        },
        {
          "internalType": "uint256",
          "name": "finishedAt",
          "type": "uint256"
        },
        {
          "internalType": "uint256",
          "name": "value",
          "type": "uint256"
        },
        {
          "internalType": "uint256",
          "name": "deadline",
          "type": "uint256"
        },
        {
          "internalType": "bool",
          "name": "completed",
          "type": "bool"
        },
        {
          "internalType": "bool",
          "name": "killed",
          "type": "bool"
        }
      ],
      "stateMutability": "view",
      "type": "function",
      "constant": true
    },
    {
      "inputs": [],
      "name": "getTotal",
      "outputs": [
        {
          "internalType": "uint256",
          "name": "",
          "type": "uint256"
        }
      ],
      "stateMutability": "view",
      "type": "function",
      "constant": true
    },
    {
      "inputs": [],
      "name": "owner",
      "outputs": [
        {
          "internalType": "address",
          "name": "",
          "type": "address"
        }
      ],
      "stateMutability": "view",
      "type": "function",
      "constant": true
    },
    {
      "inputs": [],
      "name": "paused",
      "outputs": [
        {
          "internalType": "bool",
          "name": "",
          "type": "bool"
        }
      ],
      "stateMutability": "view",
      "type": "function",
      "constant": true
    },
    {
      "inputs": [],
      "name": "renounceOwnership",
      "outputs": [],
      "stateMutability": "nonpayable",
      "type": "function"
    },
    {
      "inputs": [
        {
          "internalType": "address",
          "name": "",
          "type": "address"
        }
      ],
      "name": "total",
      "outputs": [
        {
          "internalType": "uint256",
          "name": "",
          "type": "uint256"
        }
      ],
      "stateMutability": "view",
      "type": "function",
      "constant": true
    },
    {
      "inputs": [
        {
          "internalType": "address",
          "name": "newOwner",
          "type": "address"
        }
      ],
      "name": "transferOwnership",
      "outputs": [],
      "stateMutability": "nonpayable",
      "type": "function"
    },
    {
      "stateMutability": "payable",
      "type": "receive",
      "payable": true
    },
    {
      "inputs": [],
      "name": "donate",
      "outputs": [],
      "stateMutability": "payable",
      "type": "function",
      "payable": true
    },
    {
      "inputs": [],
      "name": "getCourses",
      "outputs": [
        {
          "components": [
            {
              "internalType": "string",
              "name": "description",
              "type": "string"
            },
            {
              "internalType": "uint256",
              "name": "createdAt",
              "type": "uint256"
            },
            {
              "internalType": "uint256",
              "name": "finishedAt",
              "type": "uint256"
            },
            {
              "internalType": "uint256",
              "name": "value",
              "type": "uint256"
            },
            {
              "internalType": "uint256",
              "name": "deadline",
              "type": "uint256"
            },
            {
              "internalType": "bool",
              "name": "completed",
              "type": "bool"
            },
            {
              "internalType": "bool",
              "name": "killed",
              "type": "bool"
            }
          ],
          "internalType": "struct CourseFactory.Course[]",
          "name": "",
          "type": "tuple[]"
        }
      ],
      "stateMutability": "view",
      "type": "function",
      "constant": true
    },
    {
      "inputs": [
        {
          "internalType": "string",
          "name": "_description",
          "type": "string"
        },
        {
          "internalType": "uint256",
          "name": "_deadline",
          "type": "uint256"
        }
      ],
      "name": "add",
      "outputs": [],
      "stateMutability": "payable",
      "type": "function",
      "payable": true
    },
    {
      "inputs": [
        {
          "internalType": "uint256",
          "name": "_id",
          "type": "uint256"
        }
      ],
      "name": "setComplete",
      "outputs": [],
      "stateMutability": "nonpayable",
      "type": "function"
    },
    {
      "inputs": [
        {
          "internalType": "uint256",
          "name": "_id",
          "type": "uint256"
        }
      ],
      "name": "remove",
      "outputs": [],
      "stateMutability": "nonpayable",
      "type": "function"
    },
    {
      "inputs": [
        {
          "internalType": "uint256",
          "name": "_id",
          "type": "uint256"
        }
      ],
      "name": "kill",
      "outputs": [],
      "stateMutability": "nonpayable",
      "type": "function"
    },
    {
      "inputs": [],
      "name": "pause",
      "outputs": [],
      "stateMutability": "nonpayable",
      "type": "function"
    },
    {
      "inputs": [],
      "name": "unpause",
      "outputs": [],
      "stateMutability": "nonpayable",
      "type": "function"
    }
  ],
  "bytecode": "0x608060405234801561001057600080fd5b50600160008190555061003561002a61005560201b60201c565b61005d60201b60201c565b6000600260146101000a81548160ff021916908315150217905550610123565b600033905090565b6000600260009054906101000a900473ffffffffffffffffffffffffffffffffffffffff16905081600260006101000a81548173ffffffffffffffffffffffffffffffffffffffff021916908373ffffffffffffffffffffffffffffffffffffffff1602179055508173ffffffffffffffffffffffffffffffffffffffff168173ffffffffffffffffffffffffffffffffffffffff167f8be0079c531659141344cd1fd0a4f28419497f9722a3daafe3b4186f6b6457e060405160405180910390a35050565b61232080620001336000396000f3fe6080604052600436106100f75760003560e01c80638da5cb5b1161008a578063d2514e8411610059578063d2514e84146102d3578063d29a002514610310578063ed88c68e14610339578063f2fde38b1461034357610101565b80638da5cb5b1461020f578063c1e478cb1461023a578063cc1264791461027d578063d1b8c87b146102a857610101565b8063715018a6116100c6578063715018a61461018d578063775a25e3146101a45780638456cb59146101cf57806389e8491f146101e657610101565b806336555b85146101065780633f4ba83a146101225780634cc82215146101395780635c975abb1461016257610101565b3661010157600080fd5b600080fd5b610120600480360381019061011b9190611a00565b61036c565b005b34801561012e57600080fd5b5061013761037a565b005b34801561014557600080fd5b50610160600480360381019061015b9190611a5c565b610400565b005b34801561016e57600080fd5b5061017761040c565b6040516101849190611aa4565b60405180910390f35b34801561019957600080fd5b506101a2610423565b005b3480156101b057600080fd5b506101b96104ab565b6040516101c69190611ace565b60405180910390f35b3480156101db57600080fd5b506101e46104f2565b005b3480156101f257600080fd5b5061020d60048036038101906102089190611a5c565b610578565b005b34801561021b57600080fd5b50610224610584565b6040516102319190611b2a565b60405180910390f35b34801561024657600080fd5b50610261600480360381019061025c9190611b71565b6105ae565b6040516102749796959493929190611c39565b60405180910390f35b34801561028957600080fd5b506102926106af565b60405161029f9190611e75565b60405180910390f35b3480156102b457600080fd5b506102bd6106be565b6040516102ca9190611ace565b60405180910390f35b3480156102df57600080fd5b506102fa60048036038101906102f59190611e97565b6106ca565b6040516103079190611ace565b60405180910390f35b34801561031c57600080fd5b5061033760048036038101906103329190611a5c565b6106e2565b005b6103416106ee565b005b34801561034f57600080fd5b5061036a60048036038101906103659190611e97565b6106f8565b005b61037682826107f0565b5050565b610382610974565b73ffffffffffffffffffffffffffffffffffffffff166103a0610584565b73ffffffffffffffffffffffffffffffffffffffff16146103f6576040517f08c379a00000000000000000000000000000000000000000000000000000000081526004016103ed90611f10565b60405180910390fd5b6103fe61097c565b565b61040981610a1e565b50565b6000600260149054906101000a900460ff16905090565b61042b610974565b73ffffffffffffffffffffffffffffffffffffffff16610449610584565b73ffffffffffffffffffffffffffffffffffffffff161461049f576040517f08c379a000000000000000000000000000000000000000000000000000000000815260040161049690611f10565b60405180910390fd5b6104a96000610cfc565b565b6000600160003373ffffffffffffffffffffffffffffffffffffffff1673ffffffffffffffffffffffffffffffffffffffff16815260200190815260200160002054905090565b6104fa610974565b73ffffffffffffffffffffffffffffffffffffffff16610518610584565b73ffffffffffffffffffffffffffffffffffffffff161461056e576040517f08c379a000000000000000000000000000000000000000000000000000000000815260040161056590611f10565b60405180910390fd5b610576610dc2565b565b61058181610e65565b50565b6000600260009054906101000a900473ffffffffffffffffffffffffffffffffffffffff16905090565b600360205281600052604060002081815481106105ca57600080fd5b9060005260206000209060060201600091509150508060000180546105ee90611f5f565b80601f016020809104026020016040519081016040528092919081815260200182805461061a90611f5f565b80156106675780601f1061063c57610100808354040283529160200191610667565b820191906000526020600020905b81548152906001019060200180831161064a57829003601f168201915b5050505050908060010154908060020154908060030154908060040154908060050160009054906101000a900460ff16908060050160019054906101000a900460ff16905087565b60606106b9610f46565b905090565b67016345785d8a000081565b60016020528060005260406000206000915090505481565b6106eb816110d2565b50565b6106f6611153565b565b610700610974565b73ffffffffffffffffffffffffffffffffffffffff1661071e610584565b73ffffffffffffffffffffffffffffffffffffffff1614610774576040517f08c379a000000000000000000000000000000000000000000000000000000000815260040161076b90611f10565b60405180910390fd5b600073ffffffffffffffffffffffffffffffffffffffff168173ffffffffffffffffffffffffffffffffffffffff1614156107e4576040517f08c379a00000000000000000000000000000000000000000000000000000000081526004016107db90612003565b60405180910390fd5b6107ed81610cfc565b50565b804281116107fd57600080fd5b3467016345785d8a000081101561081357600080fd5b60006040518060e0016040528086815260200142815260200160648152602001348152602001858152602001600015158152602001600015158152509050600360003373ffffffffffffffffffffffffffffffffffffffff1673ffffffffffffffffffffffffffffffffffffffff16815260200190815260200160002081908060018154018082558091505060019003906000526020600020906006020160009091909190915060008201518160000190805190602001906108d69291906116bf565b506020820151816001015560408201518160020155606082015181600301556080820151816004015560a08201518160050160006101000a81548160ff02191690831515021790555060c08201518160050160016101000a81548160ff02191690831515021790555050507f4ed50226598d8b6360adcf22618243a9b6eace12eae87a908be864ee55fac98e60405160405180910390a15050505050565b600033905090565b61098461040c565b6109c3576040517f08c379a00000000000000000000000000000000000000000000000000000000081526004016109ba9061206f565b60405180910390fd5b6000600260146101000a81548160ff0219169083151502179055507f5db9ee0a495bf2e6ff9c91a7834c1ba4fdd244a5e8aa4e537bd38aeae4b073aa610a07610974565b604051610a149190611b2a565b60405180910390a1565b80610a2881611176565b60a0015180610a405750610a3b81611176565b60c001515b610a4957600080fd5b6000600360003373ffffffffffffffffffffffffffffffffffffffff1673ffffffffffffffffffffffffffffffffffffffff168152602001908152602001600020805490509050808310610a9c57600080fd5b600360003373ffffffffffffffffffffffffffffffffffffffff1673ffffffffffffffffffffffffffffffffffffffff168152602001908152602001600020600182610ae891906120be565b81548110610af957610af86120f2565b5b9060005260206000209060060201600360003373ffffffffffffffffffffffffffffffffffffffff1673ffffffffffffffffffffffffffffffffffffffff1681526020019081526020016000208481548110610b5857610b576120f2565b5b90600052602060002090600602016000820181600001908054610b7a90611f5f565b610b85929190611745565b50600182015481600101556002820154816002015560038201548160030155600482015481600401556005820160009054906101000a900460ff168160050160006101000a81548160ff0219169083151502179055506005820160019054906101000a900460ff168160050160016101000a81548160ff021916908315150217905550905050600360003373ffffffffffffffffffffffffffffffffffffffff1673ffffffffffffffffffffffffffffffffffffffff168152602001908152602001600020805480610c5a57610c59612121565b5b600190038181906000526020600020906006020160008082016000610c7f91906117d2565b60018201600090556002820160009055600382016000905560048201600090556005820160006101000a81549060ff02191690556005820160016101000a81549060ff0219169055505090557f4ed50226598d8b6360adcf22618243a9b6eace12eae87a908be864ee55fac98e60405160405180910390a1505050565b6000600260009054906101000a900473ffffffffffffffffffffffffffffffffffffffff16905081600260006101000a81548173ffffffffffffffffffffffffffffffffffffffff021916908373ffffffffffffffffffffffffffffffffffffffff1602179055508173ffffffffffffffffffffffffffffffffffffffff168173ffffffffffffffffffffffffffffffffffffffff167f8be0079c531659141344cd1fd0a4f28419497f9722a3daafe3b4186f6b6457e060405160405180910390a35050565b610dca61040c565b15610e0a576040517f08c379a0000000000000000000000000000000000000000000000000000000008152600401610e019061219c565b60405180910390fd5b6001600260146101000a81548160ff0219169083151502179055507f62e78cea01bee320cd4e420270b5ea74000d11b0c9f74754ebdbfc544b05a258610e4e610974565b604051610e5b9190611b2a565b60405180910390a1565b80610e6f81611176565b60a0015115610e7d57600080fd5b610e868261132d565b15610ec6576040517f08c379a0000000000000000000000000000000000000000000000000000000008152600401610ebd90612208565b60405180910390fd5b6000610ed183611176565b905060018160a001901515908115158152505042816040018181525050600067016345785d8a00008260600151610f0891906120be565b9050610f1b67016345785d8a0000611362565b610f2481611416565b610f2e84836114b6565b610f403367016345785d8a00006115ce565b50505050565b6060600360003373ffffffffffffffffffffffffffffffffffffffff1673ffffffffffffffffffffffffffffffffffffffff168152602001908152602001600020805480602002602001604051908101604052809291908181526020016000905b828210156110c957838290600052602060002090600602016040518060e0016040529081600082018054610fda90611f5f565b80601f016020809104026020016040519081016040528092919081815260200182805461100690611f5f565b80156110535780601f1061102857610100808354040283529160200191611053565b820191906000526020600020905b81548152906001019060200180831161103657829003601f168201915b50505050508152602001600182015481526020016002820154815260200160038201548152602001600482015481526020016005820160009054906101000a900460ff161515151581526020016005820160019054906101000a900460ff16151515158152505081526020019060010190610fa7565b50505050905090565b60006110dd82611176565b90506110e88261132d565b611127576040517f08c379a000000000000000000000000000000000000000000000000000000000815260040161111e90612208565b60405180910390fd5b60018160c00190151590811515815250506111458160600151611362565b61114f82826114b6565b5050565b600034141561116157600080fd5b61116a34611362565b61117433346115ce565b565b61117e611812565b81600360003373ffffffffffffffffffffffffffffffffffffffff1673ffffffffffffffffffffffffffffffffffffffff16815260200190815260200160002080549050116111cc57600080fd5b600360003373ffffffffffffffffffffffffffffffffffffffff1673ffffffffffffffffffffffffffffffffffffffff168152602001908152602001600020828154811061121d5761121c6120f2565b5b90600052602060002090600602016040518060e001604052908160008201805461124690611f5f565b80601f016020809104026020016040519081016040528092919081815260200182805461127290611f5f565b80156112bf5780601f10611294576101008083540402835291602001916112bf565b820191906000526020600020905b8154815290600101906020018083116112a257829003601f168201915b50505050508152602001600182015481526020016002820154815260200160038201548152602001600482015481526020016005820160009054906101000a900460ff161515151581526020016005820160019054906101000a900460ff1615151515815250509050919050565b60008061133983611176565b905060008160800151141561135257600091505061135d565b428160800151109150505b919050565b600260005414156113a8576040517f08c379a000000000000000000000000000000000000000000000000000000000815260040161139f90612274565b60405180910390fd5b600260008190555073cdab39f51eb80cbc47f00a102eca6730cb9da93c73ffffffffffffffffffffffffffffffffffffffff166108fc829081150290604051600060405180830381858888f1935050505015801561140a573d6000803e3d6000fd5b50600160008190555050565b6002600054141561145c576040517f08c379a000000000000000000000000000000000000000000000000000000000815260040161145390612274565b60405180910390fd5b60026000819055503373ffffffffffffffffffffffffffffffffffffffff166108fc829081150290604051600060405180830381858888f193505050501580156114aa573d6000803e3d6000fd5b50600160008190555050565b80600360003373ffffffffffffffffffffffffffffffffffffffff1673ffffffffffffffffffffffffffffffffffffffff1681526020019081526020016000208381548110611508576115076120f2565b5b906000526020600020906006020160008201518160000190805190602001906115329291906116bf565b506020820151816001015560408201518160020155606082015181600301556080820151816004015560a08201518160050160006101000a81548160ff02191690831515021790555060c08201518160050160016101000a81548160ff0219169083151502179055509050507f4ed50226598d8b6360adcf22618243a9b6eace12eae87a908be864ee55fac98e60405160405180910390a15050565b60026000541415611614576040517f08c379a000000000000000000000000000000000000000000000000000000000815260040161160b90612274565b60405180910390fd5b60026000819055506000600160008473ffffffffffffffffffffffffffffffffffffffff1673ffffffffffffffffffffffffffffffffffffffff168152602001908152602001600020549050818161166c9190612294565b905080600160008573ffffffffffffffffffffffffffffffffffffffff1673ffffffffffffffffffffffffffffffffffffffff168152602001908152602001600020819055505060016000819055505050565b8280546116cb90611f5f565b90600052602060002090601f0160209004810192826116ed5760008555611734565b82601f1061170657805160ff1916838001178555611734565b82800160010185558215611734579182015b82811115611733578251825591602001919060010190611718565b5b5090506117419190611853565b5090565b82805461175190611f5f565b90600052602060002090601f01602090048101928261177357600085556117c1565b82601f1061178457805485556117c1565b828001600101855582156117c157600052602060002091601f016020900482015b828111156117c05782548255916001019190600101906117a5565b5b5090506117ce9190611853565b5090565b5080546117de90611f5f565b6000825580601f106117f0575061180f565b601f01602090049060005260206000209081019061180e9190611853565b5b50565b6040518060e0016040528060608152602001600081526020016000815260200160008152602001600081526020016000151581526020016000151581525090565b5b8082111561186c576000816000905550600101611854565b5090565b6000604051905090565b600080fd5b600080fd5b600080fd5b600080fd5b6000601f19601f8301169050919050565b7f4e487b7100000000000000000000000000000000000000000000000000000000600052604160045260246000fd5b6118d78261188e565b810181811067ffffffffffffffff821117156118f6576118f561189f565b5b80604052505050565b6000611909611870565b905061191582826118ce565b919050565b600067ffffffffffffffff8211156119355761193461189f565b5b61193e8261188e565b9050602081019050919050565b82818337600083830152505050565b600061196d6119688461191a565b6118ff565b90508281526020810184848401111561198957611988611889565b5b61199484828561194b565b509392505050565b600082601f8301126119b1576119b0611884565b5b81356119c184826020860161195a565b91505092915050565b6000819050919050565b6119dd816119ca565b81146119e857600080fd5b50565b6000813590506119fa816119d4565b92915050565b60008060408385031215611a1757611a1661187a565b5b600083013567ffffffffffffffff811115611a3557611a3461187f565b5b611a418582860161199c565b9250506020611a52858286016119eb565b9150509250929050565b600060208284031215611a7257611a7161187a565b5b6000611a80848285016119eb565b91505092915050565b60008115159050919050565b611a9e81611a89565b82525050565b6000602082019050611ab96000830184611a95565b92915050565b611ac8816119ca565b82525050565b6000602082019050611ae36000830184611abf565b92915050565b600073ffffffffffffffffffffffffffffffffffffffff82169050919050565b6000611b1482611ae9565b9050919050565b611b2481611b09565b82525050565b6000602082019050611b3f6000830184611b1b565b92915050565b611b4e81611b09565b8114611b5957600080fd5b50565b600081359050611b6b81611b45565b92915050565b60008060408385031215611b8857611b8761187a565b5b6000611b9685828601611b5c565b9250506020611ba7858286016119eb565b9150509250929050565b600081519050919050565b600082825260208201905092915050565b60005b83811015611beb578082015181840152602081019050611bd0565b83811115611bfa576000848401525b50505050565b6000611c0b82611bb1565b611c158185611bbc565b9350611c25818560208601611bcd565b611c2e8161188e565b840191505092915050565b600060e0820190508181036000830152611c53818a611c00565b9050611c626020830189611abf565b611c6f6040830188611abf565b611c7c6060830187611abf565b611c896080830186611abf565b611c9660a0830185611a95565b611ca360c0830184611a95565b98975050505050505050565b600081519050919050565b600082825260208201905092915050565b6000819050602082019050919050565b600082825260208201905092915050565b6000611cf782611bb1565b611d018185611cdb565b9350611d11818560208601611bcd565b611d1a8161188e565b840191505092915050565b611d2e816119ca565b82525050565b611d3d81611a89565b82525050565b600060e0830160008301518482036000860152611d608282611cec565b9150506020830151611d756020860182611d25565b506040830151611d886040860182611d25565b506060830151611d9b6060860182611d25565b506080830151611dae6080860182611d25565b5060a0830151611dc160a0860182611d34565b5060c0830151611dd460c0860182611d34565b508091505092915050565b6000611deb8383611d43565b905092915050565b6000602082019050919050565b6000611e0b82611caf565b611e158185611cba565b935083602082028501611e2785611ccb565b8060005b85811015611e635784840389528151611e448582611ddf565b9450611e4f83611df3565b925060208a01995050600181019050611e2b565b50829750879550505050505092915050565b60006020820190508181036000830152611e8f8184611e00565b905092915050565b600060208284031215611ead57611eac61187a565b5b6000611ebb84828501611b5c565b91505092915050565b7f4f776e61626c653a2063616c6c6572206973206e6f7420746865206f776e6572600082015250565b6000611efa602083611bbc565b9150611f0582611ec4565b602082019050919050565b60006020820190508181036000830152611f2981611eed565b9050919050565b7f4e487b7100000000000000000000000000000000000000000000000000000000600052602260045260246000fd5b60006002820490506001821680611f7757607f821691505b60208210811415611f8b57611f8a611f30565b5b50919050565b7f4f776e61626c653a206e6577206f776e657220697320746865207a65726f206160008201527f6464726573730000000000000000000000000000000000000000000000000000602082015250565b6000611fed602683611bbc565b9150611ff882611f91565b604082019050919050565b6000602082019050818103600083015261201c81611fe0565b9050919050565b7f5061757361626c653a206e6f7420706175736564000000000000000000000000600082015250565b6000612059601483611bbc565b915061206482612023565b602082019050919050565b600060208201905081810360008301526120888161204c565b9050919050565b7f4e487b7100000000000000000000000000000000000000000000000000000000600052601160045260246000fd5b60006120c9826119ca565b91506120d4836119ca565b9250828210156120e7576120e661208f565b5b828203905092915050565b7f4e487b7100000000000000000000000000000000000000000000000000000000600052603260045260246000fd5b7f4e487b7100000000000000000000000000000000000000000000000000000000600052603160045260246000fd5b7f5061757361626c653a2070617573656400000000000000000000000000000000600082015250565b6000612186601083611bbc565b915061219182612150565b602082019050919050565b600060208201905081810360008301526121b581612179565b9050919050565b7f6475652064617465206973206578706972656400000000000000000000000000600082015250565b60006121f2601383611bbc565b91506121fd826121bc565b602082019050919050565b60006020820190508181036000830152612221816121e5565b9050919050565b7f5265656e7472616e637947756172643a207265656e7472616e742063616c6c00600082015250565b600061225e601f83611bbc565b915061226982612228565b602082019050919050565b6000602082019050818103600083015261228d81612251565b9050919050565b600061229f826119ca565b91506122aa836119ca565b9250827fffffffffffffffffffffffffffffffffffffffffffffffffffffffffffffffff038211156122df576122de61208f565b5b82820190509291505056fea26469706673582212205b14e6f890fe22f379eb8314b13666102910c176e9e5eee9237c45f84878d2d964736f6c634300080b0033",
  "immutableReferences": {},
  "source": "// SPDX-License-Identifier: MIT\npragma solidity >=0.8.0 <0.9.0;\n//pragma experimental ABIEncoderV2; // Two level dynamic arrays support\n\nimport \"@openzeppelin/contracts/access/Ownable.sol\";\nimport \"./CourseFactory.sol\";\n\ncontract SmartLearn is Ownable, CourseFactory{\n\n  /// @notice Get all courses of msg sender\n  function donate() public payable{\n    _donate();\n  }\n  /// @return Courses array\n  function getCourses() public view returns (Course[] memory) {\n    return _getCourses();\n  }\n\n\n  \n  /// @notice Add a new course for msg sender\n  /// @param _description Course decription\n  /// @param _deadline Course due date\n  function add(string memory _description, uint _deadline) public payable {\n    _add(_description, _deadline);\n  }\n\n\n  // Set a course as completed\n  function setComplete(uint _id) public {\n    _setComplete(_id);\n  }\n\n  // Remove a course\n  function remove(uint _id) public {\n    _remove(_id);\n  }\n\n  // Add prize to a course\n  // function setPrize(uint _id) public payable {\n  //   _setPrize(_id);\n  // }\n\n  // Kill a course\n  function kill(uint _id) public {\n    _kill(_id);\n  }\n  \n\n  // Pause contract deposits\n  function pause() public onlyOwner() {\n    _pause();\n  }\n\n  // Unpause contract deposits\n  function unpause() public onlyOwner() {\n    _unpause();\n  }\n\n}\n",
  "sourcePath": "/Users/iman/smartlearn/smartcontract/contracts/SmartLearn.sol",
  "compiler": {
    "name": "solc",
    "version": "0.8.11+commit.d7f03943.Emscripten.clang"
  },
  "schemaVersion": "3.4.7",
  "updatedAt": "2022-07-03T01:20:47.207Z",
  "networkType": "ethereum",
  "devdoc": {
    "kind": "dev",
    "methods": {
      "add(string,uint256)": {
        "params": {
          "_deadline": "Course due date",
          "_description": "Course decription"
        }
      },
      "getCourses()": {
        "returns": {
          "_0": "Courses array"
        }
      },
      "owner()": {
        "details": "Returns the address of the current owner."
      },
      "paused()": {
        "details": "Returns true if the contract is paused, and false otherwise."
      },
      "renounceOwnership()": {
        "details": "Leaves the contract without owner. It will not be possible to call `onlyOwner` functions anymore. Can only be called by the current owner. NOTE: Renouncing ownership will leave the contract without an owner, thereby removing any functionality that is only available to the owner."
      },
      "transferOwnership(address)": {
        "details": "Transfers ownership of the contract to a new account (`newOwner`). Can only be called by the current owner."
      }
    },
    "version": 1
  },
  "userdoc": {
    "kind": "user",
    "methods": {
      "add(string,uint256)": {
        "notice": "Add a new course for msg sender"
      },
      "donate()": {
        "notice": "Get all courses of msg sender"
      }
    },
    "version": 1
  }
}