{
  "contractName": "SmartLearn",
  "abi": [
    {
      "anonymous": false,
      "inputs": [],
      "name": "LogCoursesUpdated",
      "type": "event"
    },
    {
      "anonymous": false,
      "inputs": [
        {
          "indexed": true,
          "internalType": "address",
          "name": "previousOwner",
          "type": "address"
        },
        {
          "indexed": true,
          "internalType": "address",
          "name": "newOwner",
          "type": "address"
        }
      ],
      "name": "OwnershipTransferred",
      "type": "event"
    },
    {
      "anonymous": false,
      "inputs": [
        {
          "indexed": false,
          "internalType": "address",
          "name": "account",
          "type": "address"
        }
      ],
      "name": "Paused",
      "type": "event"
    },
    {
      "anonymous": false,
      "inputs": [
        {
          "indexed": false,
          "internalType": "address",
          "name": "account",
          "type": "address"
        }
      ],
      "name": "Unpaused",
      "type": "event"
    },
    {
      "stateMutability": "payable",
      "type": "fallback",
      "payable": true
    },
    {
      "inputs": [],
      "name": "WAGE",
      "outputs": [
        {
          "internalType": "uint256",
          "name": "",
          "type": "uint256"
        }
      ],
      "stateMutability": "view",
      "type": "function",
      "constant": true
    },
    {
      "inputs": [
        {
          "internalType": "address",
          "name": "",
          "type": "address"
        },
        {
          "internalType": "uint256",
          "name": "",
          "type": "uint256"
        }
      ],
      "name": "courses",
      "outputs": [
        {
          "internalType": "string",
          "name": "description",
          "type": "string"
        },
        {
          "internalType": "uint256",
          "name": "createdAt",
          "type": "uint256"
        },
        {
          "internalType": "uint256",
          "name": "finishedAt",
          "type": "uint256"
        },
        {
          "internalType": "uint256",
          "name": "value",
          "type": "uint256"
        },
        {
          "internalType": "uint256",
          "name": "deadline",
          "type": "uint256"
        },
        {
          "internalType": "bool",
          "name": "completed",
          "type": "bool"
        },
        {
          "internalType": "bool",
          "name": "killed",
          "type": "bool"
        }
      ],
      "stateMutability": "view",
      "type": "function",
      "constant": true
    },
    {
      "inputs": [],
      "name": "getTotal",
      "outputs": [
        {
          "internalType": "uint256",
          "name": "",
          "type": "uint256"
        }
      ],
      "stateMutability": "view",
      "type": "function",
      "constant": true
    },
    {
      "inputs": [],
      "name": "owner",
      "outputs": [
        {
          "internalType": "address",
          "name": "",
          "type": "address"
        }
      ],
      "stateMutability": "view",
      "type": "function",
      "constant": true
    },
    {
      "inputs": [],
      "name": "paused",
      "outputs": [
        {
          "internalType": "bool",
          "name": "",
          "type": "bool"
        }
      ],
      "stateMutability": "view",
      "type": "function",
      "constant": true
    },
    {
      "inputs": [],
      "name": "renounceOwnership",
      "outputs": [],
      "stateMutability": "nonpayable",
      "type": "function"
    },
    {
      "inputs": [
        {
          "internalType": "address",
          "name": "",
          "type": "address"
        }
      ],
      "name": "total",
      "outputs": [
        {
          "internalType": "uint256",
          "name": "",
          "type": "uint256"
        }
      ],
      "stateMutability": "view",
      "type": "function",
      "constant": true
    },
    {
      "inputs": [
        {
          "internalType": "address",
          "name": "newOwner",
          "type": "address"
        }
      ],
      "name": "transferOwnership",
      "outputs": [],
      "stateMutability": "nonpayable",
      "type": "function"
    },
    {
      "stateMutability": "payable",
      "type": "receive",
      "payable": true
    },
    {
      "inputs": [],
      "name": "getCourses",
      "outputs": [
        {
          "components": [
            {
              "internalType": "string",
              "name": "description",
              "type": "string"
            },
            {
              "internalType": "uint256",
              "name": "createdAt",
              "type": "uint256"
            },
            {
              "internalType": "uint256",
              "name": "finishedAt",
              "type": "uint256"
            },
            {
              "internalType": "uint256",
              "name": "value",
              "type": "uint256"
            },
            {
              "internalType": "uint256",
              "name": "deadline",
              "type": "uint256"
            },
            {
              "internalType": "bool",
              "name": "completed",
              "type": "bool"
            },
            {
              "internalType": "bool",
              "name": "killed",
              "type": "bool"
            }
          ],
          "internalType": "struct CourseFactory.Course[]",
          "name": "",
          "type": "tuple[]"
        }
      ],
      "stateMutability": "view",
      "type": "function",
      "constant": true
    },
    {
      "inputs": [
        {
          "internalType": "string",
          "name": "_description",
          "type": "string"
        },
        {
          "internalType": "uint256",
          "name": "_deadline",
          "type": "uint256"
        }
      ],
      "name": "add",
      "outputs": [],
      "stateMutability": "payable",
      "type": "function",
      "payable": true
    },
    {
      "inputs": [
        {
          "internalType": "uint256",
          "name": "_id",
          "type": "uint256"
        }
      ],
      "name": "setComplete",
      "outputs": [],
      "stateMutability": "nonpayable",
      "type": "function"
    },
    {
      "inputs": [
        {
          "internalType": "uint256",
          "name": "_id",
          "type": "uint256"
        }
      ],
      "name": "remove",
      "outputs": [],
      "stateMutability": "nonpayable",
      "type": "function"
    },
    {
      "inputs": [
        {
          "internalType": "uint256",
          "name": "_id",
          "type": "uint256"
        }
      ],
      "name": "kill",
      "outputs": [],
      "stateMutability": "nonpayable",
      "type": "function"
    },
    {
      "inputs": [],
      "name": "pause",
      "outputs": [],
      "stateMutability": "nonpayable",
      "type": "function"
    },
    {
      "inputs": [],
      "name": "unpause",
      "outputs": [],
      "stateMutability": "nonpayable",
      "type": "function"
    }
  ],
  "bytecode": "0x608060405234801561001057600080fd5b50600160008190555061003561002a61005560201b60201c565b61005d60201b60201c565b6000600260146101000a81548160ff021916908315150217905550610123565b600033905090565b6000600260009054906101000a900473ffffffffffffffffffffffffffffffffffffffff16905081600260006101000a81548173ffffffffffffffffffffffffffffffffffffffff021916908373ffffffffffffffffffffffffffffffffffffffff1602179055508173ffffffffffffffffffffffffffffffffffffffff168173ffffffffffffffffffffffffffffffffffffffff167f8be0079c531659141344cd1fd0a4f28419497f9722a3daafe3b4186f6b6457e060405160405180910390a35050565b61228880620001336000396000f3fe6080604052600436106100ec5760003560e01c806389e8491f1161008a578063d1b8c87b11610059578063d1b8c87b1461029d578063d2514e84146102c8578063d29a002514610305578063f2fde38b1461032e576100f6565b806389e8491f146101db5780638da5cb5b14610204578063c1e478cb1461022f578063cc12647914610272576100f6565b80635c975abb116100c65780635c975abb14610157578063715018a614610182578063775a25e3146101995780638456cb59146101c4576100f6565b806336555b85146100fb5780633f4ba83a146101175780634cc822151461012e576100f6565b366100f657600080fd5b600080fd5b61011560048036038101906101109190611968565b610357565b005b34801561012357600080fd5b5061012c610365565b005b34801561013a57600080fd5b50610155600480360381019061015091906119c4565b6103eb565b005b34801561016357600080fd5b5061016c6103f7565b6040516101799190611a0c565b60405180910390f35b34801561018e57600080fd5b5061019761040e565b005b3480156101a557600080fd5b506101ae610496565b6040516101bb9190611a36565b60405180910390f35b3480156101d057600080fd5b506101d96104dd565b005b3480156101e757600080fd5b5061020260048036038101906101fd91906119c4565b610563565b005b34801561021057600080fd5b5061021961056f565b6040516102269190611a92565b60405180910390f35b34801561023b57600080fd5b5061025660048036038101906102519190611ad9565b610599565b6040516102699796959493929190611ba1565b60405180910390f35b34801561027e57600080fd5b5061028761069a565b6040516102949190611ddd565b60405180910390f35b3480156102a957600080fd5b506102b26106a9565b6040516102bf9190611a36565b60405180910390f35b3480156102d457600080fd5b506102ef60048036038101906102ea9190611dff565b6106b5565b6040516102fc9190611a36565b60405180910390f35b34801561031157600080fd5b5061032c600480360381019061032791906119c4565b6106cd565b005b34801561033a57600080fd5b5061035560048036038101906103509190611dff565b6106d9565b005b61036182826107d1565b5050565b61036d610955565b73ffffffffffffffffffffffffffffffffffffffff1661038b61056f565b73ffffffffffffffffffffffffffffffffffffffff16146103e1576040517f08c379a00000000000000000000000000000000000000000000000000000000081526004016103d890611e78565b60405180910390fd5b6103e961095d565b565b6103f4816109ff565b50565b6000600260149054906101000a900460ff16905090565b610416610955565b73ffffffffffffffffffffffffffffffffffffffff1661043461056f565b73ffffffffffffffffffffffffffffffffffffffff161461048a576040517f08c379a000000000000000000000000000000000000000000000000000000000815260040161048190611e78565b60405180910390fd5b6104946000610cdd565b565b6000600160003373ffffffffffffffffffffffffffffffffffffffff1673ffffffffffffffffffffffffffffffffffffffff16815260200190815260200160002054905090565b6104e5610955565b73ffffffffffffffffffffffffffffffffffffffff1661050361056f565b73ffffffffffffffffffffffffffffffffffffffff1614610559576040517f08c379a000000000000000000000000000000000000000000000000000000000815260040161055090611e78565b60405180910390fd5b610561610da3565b565b61056c81610e46565b50565b6000600260009054906101000a900473ffffffffffffffffffffffffffffffffffffffff16905090565b600360205281600052604060002081815481106105b557600080fd5b9060005260206000209060060201600091509150508060000180546105d990611ec7565b80601f016020809104026020016040519081016040528092919081815260200182805461060590611ec7565b80156106525780601f1061062757610100808354040283529160200191610652565b820191906000526020600020905b81548152906001019060200180831161063557829003601f168201915b5050505050908060010154908060020154908060030154908060040154908060050160009054906101000a900460ff16908060050160019054906101000a900460ff16905087565b60606106a4610f27565b905090565b67016345785d8a000081565b60016020528060005260406000206000915090505481565b6106d6816110b3565b50565b6106e1610955565b73ffffffffffffffffffffffffffffffffffffffff166106ff61056f565b73ffffffffffffffffffffffffffffffffffffffff1614610755576040517f08c379a000000000000000000000000000000000000000000000000000000000815260040161074c90611e78565b60405180910390fd5b600073ffffffffffffffffffffffffffffffffffffffff168173ffffffffffffffffffffffffffffffffffffffff1614156107c5576040517f08c379a00000000000000000000000000000000000000000000000000000000081526004016107bc90611f6b565b60405180910390fd5b6107ce81610cdd565b50565b804281116107de57600080fd5b3467016345785d8a00008110156107f457600080fd5b60006040518060e0016040528086815260200142815260200160648152602001348152602001858152602001600015158152602001600015158152509050600360003373ffffffffffffffffffffffffffffffffffffffff1673ffffffffffffffffffffffffffffffffffffffff16815260200190815260200160002081908060018154018082558091505060019003906000526020600020906006020160009091909190915060008201518160000190805190602001906108b7929190611627565b506020820151816001015560408201518160020155606082015181600301556080820151816004015560a08201518160050160006101000a81548160ff02191690831515021790555060c08201518160050160016101000a81548160ff02191690831515021790555050507f4ed50226598d8b6360adcf22618243a9b6eace12eae87a908be864ee55fac98e60405160405180910390a15050505050565b600033905090565b6109656103f7565b6109a4576040517f08c379a000000000000000000000000000000000000000000000000000000000815260040161099b90611fd7565b60405180910390fd5b6000600260146101000a81548160ff0219169083151502179055507f5db9ee0a495bf2e6ff9c91a7834c1ba4fdd244a5e8aa4e537bd38aeae4b073aa6109e8610955565b6040516109f59190611a92565b60405180910390a1565b80610a0981611134565b60a0015180610a215750610a1c81611134565b60c001515b610a2a57600080fd5b6000600360003373ffffffffffffffffffffffffffffffffffffffff1673ffffffffffffffffffffffffffffffffffffffff168152602001908152602001600020805490509050808310610a7d57600080fd5b600360003373ffffffffffffffffffffffffffffffffffffffff1673ffffffffffffffffffffffffffffffffffffffff168152602001908152602001600020600182610ac99190612026565b81548110610ada57610ad961205a565b5b9060005260206000209060060201600360003373ffffffffffffffffffffffffffffffffffffffff1673ffffffffffffffffffffffffffffffffffffffff1681526020019081526020016000208481548110610b3957610b3861205a565b5b90600052602060002090600602016000820181600001908054610b5b90611ec7565b610b669291906116ad565b50600182015481600101556002820154816002015560038201548160030155600482015481600401556005820160009054906101000a900460ff168160050160006101000a81548160ff0219169083151502179055506005820160019054906101000a900460ff168160050160016101000a81548160ff021916908315150217905550905050600360003373ffffffffffffffffffffffffffffffffffffffff1673ffffffffffffffffffffffffffffffffffffffff168152602001908152602001600020805480610c3b57610c3a612089565b5b600190038181906000526020600020906006020160008082016000610c60919061173a565b60018201600090556002820160009055600382016000905560048201600090556005820160006101000a81549060ff02191690556005820160016101000a81549060ff0219169055505090557f4ed50226598d8b6360adcf22618243a9b6eace12eae87a908be864ee55fac98e60405160405180910390a1505050565b6000600260009054906101000a900473ffffffffffffffffffffffffffffffffffffffff16905081600260006101000a81548173ffffffffffffffffffffffffffffffffffffffff021916908373ffffffffffffffffffffffffffffffffffffffff1602179055508173ffffffffffffffffffffffffffffffffffffffff168173ffffffffffffffffffffffffffffffffffffffff167f8be0079c531659141344cd1fd0a4f28419497f9722a3daafe3b4186f6b6457e060405160405180910390a35050565b610dab6103f7565b15610deb576040517f08c379a0000000000000000000000000000000000000000000000000000000008152600401610de290612104565b60405180910390fd5b6001600260146101000a81548160ff0219169083151502179055507f62e78cea01bee320cd4e420270b5ea74000d11b0c9f74754ebdbfc544b05a258610e2f610955565b604051610e3c9190611a92565b60405180910390a1565b80610e5081611134565b60a0015115610e5e57600080fd5b610e67826112eb565b15610ea7576040517f08c379a0000000000000000000000000000000000000000000000000000000008152600401610e9e90612170565b60405180910390fd5b6000610eb283611134565b905060018160a001901515908115158152505042816040018181525050600067016345785d8a00008260600151610ee99190612026565b9050610efc67016345785d8a0000611320565b610f058161137e565b610f0f848361141e565b610f213367016345785d8a0000611536565b50505050565b6060600360003373ffffffffffffffffffffffffffffffffffffffff1673ffffffffffffffffffffffffffffffffffffffff168152602001908152602001600020805480602002602001604051908101604052809291908181526020016000905b828210156110aa57838290600052602060002090600602016040518060e0016040529081600082018054610fbb90611ec7565b80601f0160208091040260200160405190810160405280929190818152602001828054610fe790611ec7565b80156110345780601f1061100957610100808354040283529160200191611034565b820191906000526020600020905b81548152906001019060200180831161101757829003601f168201915b50505050508152602001600182015481526020016002820154815260200160038201548152602001600482015481526020016005820160009054906101000a900460ff161515151581526020016005820160019054906101000a900460ff16151515158152505081526020019060010190610f88565b50505050905090565b60006110be82611134565b90506110c9826112eb565b611108576040517f08c379a00000000000000000000000000000000000000000000000000000000081526004016110ff90612170565b60405180910390fd5b60018160c00190151590811515815250506111268160600151611320565b611130828261141e565b5050565b61113c61177a565b81600360003373ffffffffffffffffffffffffffffffffffffffff1673ffffffffffffffffffffffffffffffffffffffff168152602001908152602001600020805490501161118a57600080fd5b600360003373ffffffffffffffffffffffffffffffffffffffff1673ffffffffffffffffffffffffffffffffffffffff16815260200190815260200160002082815481106111db576111da61205a565b5b90600052602060002090600602016040518060e001604052908160008201805461120490611ec7565b80601f016020809104026020016040519081016040528092919081815260200182805461123090611ec7565b801561127d5780601f106112525761010080835404028352916020019161127d565b820191906000526020600020905b81548152906001019060200180831161126057829003601f168201915b50505050508152602001600182015481526020016002820154815260200160038201548152602001600482015481526020016005820160009054906101000a900460ff161515151581526020016005820160019054906101000a900460ff1615151515815250509050919050565b6000806112f783611134565b905060008160800151141561131057600091505061131b565b428160800151109150505b919050565b7353fc3e38a5d9e28324901f75af617dc149fdfe5f73ffffffffffffffffffffffffffffffffffffffff166108fc829081150290604051600060405180830381858888f1935050505015801561137a573d6000803e3d6000fd5b5050565b600260005414156113c4576040517f08c379a00000000000000000000000000000000000000000000000000000000081526004016113bb906121dc565b60405180910390fd5b60026000819055503373ffffffffffffffffffffffffffffffffffffffff166108fc829081150290604051600060405180830381858888f19350505050158015611412573d6000803e3d6000fd5b50600160008190555050565b80600360003373ffffffffffffffffffffffffffffffffffffffff1673ffffffffffffffffffffffffffffffffffffffff16815260200190815260200160002083815481106114705761146f61205a565b5b9060005260206000209060060201600082015181600001908051906020019061149a929190611627565b506020820151816001015560408201518160020155606082015181600301556080820151816004015560a08201518160050160006101000a81548160ff02191690831515021790555060c08201518160050160016101000a81548160ff0219169083151502179055509050507f4ed50226598d8b6360adcf22618243a9b6eace12eae87a908be864ee55fac98e60405160405180910390a15050565b6002600054141561157c576040517f08c379a0000000000000000000000000000000000000000000000000000000008152600401611573906121dc565b60405180910390fd5b60026000819055506000600160008473ffffffffffffffffffffffffffffffffffffffff1673ffffffffffffffffffffffffffffffffffffffff16815260200190815260200160002054905081816115d491906121fc565b905080600160008573ffffffffffffffffffffffffffffffffffffffff1673ffffffffffffffffffffffffffffffffffffffff168152602001908152602001600020819055505060016000819055505050565b82805461163390611ec7565b90600052602060002090601f016020900481019282611655576000855561169c565b82601f1061166e57805160ff191683800117855561169c565b8280016001018555821561169c579182015b8281111561169b578251825591602001919060010190611680565b5b5090506116a991906117bb565b5090565b8280546116b990611ec7565b90600052602060002090601f0160209004810192826116db5760008555611729565b82601f106116ec5780548555611729565b8280016001018555821561172957600052602060002091601f016020900482015b8281111561172857825482559160010191906001019061170d565b5b50905061173691906117bb565b5090565b50805461174690611ec7565b6000825580601f106117585750611777565b601f01602090049060005260206000209081019061177691906117bb565b5b50565b6040518060e0016040528060608152602001600081526020016000815260200160008152602001600081526020016000151581526020016000151581525090565b5b808211156117d45760008160009055506001016117bc565b5090565b6000604051905090565b600080fd5b600080fd5b600080fd5b600080fd5b6000601f19601f8301169050919050565b7f4e487b7100000000000000000000000000000000000000000000000000000000600052604160045260246000fd5b61183f826117f6565b810181811067ffffffffffffffff8211171561185e5761185d611807565b5b80604052505050565b60006118716117d8565b905061187d8282611836565b919050565b600067ffffffffffffffff82111561189d5761189c611807565b5b6118a6826117f6565b9050602081019050919050565b82818337600083830152505050565b60006118d56118d084611882565b611867565b9050828152602081018484840111156118f1576118f06117f1565b5b6118fc8482856118b3565b509392505050565b600082601f830112611919576119186117ec565b5b81356119298482602086016118c2565b91505092915050565b6000819050919050565b61194581611932565b811461195057600080fd5b50565b6000813590506119628161193c565b92915050565b6000806040838503121561197f5761197e6117e2565b5b600083013567ffffffffffffffff81111561199d5761199c6117e7565b5b6119a985828601611904565b92505060206119ba85828601611953565b9150509250929050565b6000602082840312156119da576119d96117e2565b5b60006119e884828501611953565b91505092915050565b60008115159050919050565b611a06816119f1565b82525050565b6000602082019050611a2160008301846119fd565b92915050565b611a3081611932565b82525050565b6000602082019050611a4b6000830184611a27565b92915050565b600073ffffffffffffffffffffffffffffffffffffffff82169050919050565b6000611a7c82611a51565b9050919050565b611a8c81611a71565b82525050565b6000602082019050611aa76000830184611a83565b92915050565b611ab681611a71565b8114611ac157600080fd5b50565b600081359050611ad381611aad565b92915050565b60008060408385031215611af057611aef6117e2565b5b6000611afe85828601611ac4565b9250506020611b0f85828601611953565b9150509250929050565b600081519050919050565b600082825260208201905092915050565b60005b83811015611b53578082015181840152602081019050611b38565b83811115611b62576000848401525b50505050565b6000611b7382611b19565b611b7d8185611b24565b9350611b8d818560208601611b35565b611b96816117f6565b840191505092915050565b600060e0820190508181036000830152611bbb818a611b68565b9050611bca6020830189611a27565b611bd76040830188611a27565b611be46060830187611a27565b611bf16080830186611a27565b611bfe60a08301856119fd565b611c0b60c08301846119fd565b98975050505050505050565b600081519050919050565b600082825260208201905092915050565b6000819050602082019050919050565b600082825260208201905092915050565b6000611c5f82611b19565b611c698185611c43565b9350611c79818560208601611b35565b611c82816117f6565b840191505092915050565b611c9681611932565b82525050565b611ca5816119f1565b82525050565b600060e0830160008301518482036000860152611cc88282611c54565b9150506020830151611cdd6020860182611c8d565b506040830151611cf06040860182611c8d565b506060830151611d036060860182611c8d565b506080830151611d166080860182611c8d565b5060a0830151611d2960a0860182611c9c565b5060c0830151611d3c60c0860182611c9c565b508091505092915050565b6000611d538383611cab565b905092915050565b6000602082019050919050565b6000611d7382611c17565b611d7d8185611c22565b935083602082028501611d8f85611c33565b8060005b85811015611dcb5784840389528151611dac8582611d47565b9450611db783611d5b565b925060208a01995050600181019050611d93565b50829750879550505050505092915050565b60006020820190508181036000830152611df78184611d68565b905092915050565b600060208284031215611e1557611e146117e2565b5b6000611e2384828501611ac4565b91505092915050565b7f4f776e61626c653a2063616c6c6572206973206e6f7420746865206f776e6572600082015250565b6000611e62602083611b24565b9150611e6d82611e2c565b602082019050919050565b60006020820190508181036000830152611e9181611e55565b9050919050565b7f4e487b7100000000000000000000000000000000000000000000000000000000600052602260045260246000fd5b60006002820490506001821680611edf57607f821691505b60208210811415611ef357611ef2611e98565b5b50919050565b7f4f776e61626c653a206e6577206f776e657220697320746865207a65726f206160008201527f6464726573730000000000000000000000000000000000000000000000000000602082015250565b6000611f55602683611b24565b9150611f6082611ef9565b604082019050919050565b60006020820190508181036000830152611f8481611f48565b9050919050565b7f5061757361626c653a206e6f7420706175736564000000000000000000000000600082015250565b6000611fc1601483611b24565b9150611fcc82611f8b565b602082019050919050565b60006020820190508181036000830152611ff081611fb4565b9050919050565b7f4e487b7100000000000000000000000000000000000000000000000000000000600052601160045260246000fd5b600061203182611932565b915061203c83611932565b92508282101561204f5761204e611ff7565b5b828203905092915050565b7f4e487b7100000000000000000000000000000000000000000000000000000000600052603260045260246000fd5b7f4e487b7100000000000000000000000000000000000000000000000000000000600052603160045260246000fd5b7f5061757361626c653a2070617573656400000000000000000000000000000000600082015250565b60006120ee601083611b24565b91506120f9826120b8565b602082019050919050565b6000602082019050818103600083015261211d816120e1565b9050919050565b7f6475652064617465206973206578706972656400000000000000000000000000600082015250565b600061215a601383611b24565b915061216582612124565b602082019050919050565b600060208201905081810360008301526121898161214d565b9050919050565b7f5265656e7472616e637947756172643a207265656e7472616e742063616c6c00600082015250565b60006121c6601f83611b24565b91506121d182612190565b602082019050919050565b600060208201905081810360008301526121f5816121b9565b9050919050565b600061220782611932565b915061221283611932565b9250827fffffffffffffffffffffffffffffffffffffffffffffffffffffffffffffffff0382111561224757612246611ff7565b5b82820190509291505056fea2646970667358221220dd9da7a942b2a012177863452e8f7152a7ac4d8dd35b193d7fbaf74c0f19246464736f6c634300080b0033",
  "immutableReferences": {},
  "source": "// SPDX-License-Identifier: MIT\npragma solidity >=0.8.0 <0.9.0;\n//pragma experimental ABIEncoderV2; // Two level dynamic arrays support\n\nimport \"@openzeppelin/contracts/access/Ownable.sol\";\nimport \"./CourseFactory.sol\";\n\ncontract SmartLearn is Ownable, CourseFactory{\n\n  /// @notice Get all courses of msg sender\n  /// @return Courses array\n  function getCourses() public view returns (Course[] memory) {\n    return _getCourses();\n  }\n  \n  /// @notice Add a new course for msg sender\n  /// @param _description Course decription\n  /// @param _deadline Course due date\n  function add(string memory _description, uint _deadline) public payable {\n    _add(_description, _deadline);\n  }\n\n\n  // Set a course as completed\n  function setComplete(uint _id) public {\n    _setComplete(_id);\n  }\n\n  // Remove a course\n  function remove(uint _id) public {\n    _remove(_id);\n  }\n\n  // Add prize to a course\n  // function setPrize(uint _id) public payable {\n  //   _setPrize(_id);\n  // }\n\n  // Kill a course\n  function kill(uint _id) public {\n    _kill(_id);\n  }\n  \n\n  // Pause contract deposits\n  function pause() public onlyOwner() {\n    _pause();\n  }\n\n  // Unpause contract deposits\n  function unpause() public onlyOwner() {\n    _unpause();\n  }\n\n}\n",
  "sourcePath": "/Users/iman/smartlearn/smartcontract/contracts/SmartLearn.sol",
  "compiler": {
    "name": "solc",
    "version": "0.8.11+commit.d7f03943.Emscripten.clang"
  },
  "schemaVersion": "3.4.7",
  "updatedAt": "2022-07-02T12:56:25.336Z",
  "networkType": "ethereum",
  "devdoc": {
    "kind": "dev",
    "methods": {
      "add(string,uint256)": {
        "params": {
          "_deadline": "Course due date",
          "_description": "Course decription"
        }
      },
      "getCourses()": {
        "returns": {
          "_0": "Courses array"
        }
      },
      "owner()": {
        "details": "Returns the address of the current owner."
      },
      "paused()": {
        "details": "Returns true if the contract is paused, and false otherwise."
      },
      "renounceOwnership()": {
        "details": "Leaves the contract without owner. It will not be possible to call `onlyOwner` functions anymore. Can only be called by the current owner. NOTE: Renouncing ownership will leave the contract without an owner, thereby removing any functionality that is only available to the owner."
      },
      "transferOwnership(address)": {
        "details": "Transfers ownership of the contract to a new account (`newOwner`). Can only be called by the current owner."
      }
    },
    "version": 1
  },
  "userdoc": {
    "kind": "user",
    "methods": {
      "add(string,uint256)": {
        "notice": "Add a new course for msg sender"
      },
      "getCourses()": {
        "notice": "Get all courses of msg sender"
      }
    },
    "version": 1
  }
}