{
  "contractName": "SmartLearn",
  "abi": [
    {
      "anonymous": false,
      "inputs": [],
      "name": "LogCoursesUpdated",
      "type": "event"
    },
    {
      "anonymous": false,
      "inputs": [
        {
          "indexed": true,
          "internalType": "address",
          "name": "previousOwner",
          "type": "address"
        },
        {
          "indexed": true,
          "internalType": "address",
          "name": "newOwner",
          "type": "address"
        }
      ],
      "name": "OwnershipTransferred",
      "type": "event"
    },
    {
      "anonymous": false,
      "inputs": [
        {
          "indexed": false,
          "internalType": "address",
          "name": "account",
          "type": "address"
        }
      ],
      "name": "Paused",
      "type": "event"
    },
    {
      "anonymous": false,
      "inputs": [
        {
          "indexed": false,
          "internalType": "address",
          "name": "account",
          "type": "address"
        }
      ],
      "name": "Unpaused",
      "type": "event"
    },
    {
      "stateMutability": "payable",
      "type": "fallback",
      "payable": true
    },
    {
      "inputs": [],
      "name": "WAGE",
      "outputs": [
        {
          "internalType": "uint256",
          "name": "",
          "type": "uint256"
        }
      ],
      "stateMutability": "view",
      "type": "function",
      "constant": true
    },
    {
      "inputs": [
        {
          "internalType": "address",
          "name": "",
          "type": "address"
        },
        {
          "internalType": "uint256",
          "name": "",
          "type": "uint256"
        }
      ],
      "name": "courses",
      "outputs": [
        {
          "internalType": "string",
          "name": "description",
          "type": "string"
        },
        {
          "internalType": "uint256",
          "name": "createdAt",
          "type": "uint256"
        },
        {
          "internalType": "uint256",
          "name": "finishedAt",
          "type": "uint256"
        },
        {
          "internalType": "uint256",
          "name": "value",
          "type": "uint256"
        },
        {
          "internalType": "uint256",
          "name": "deadline",
          "type": "uint256"
        },
        {
          "internalType": "bool",
          "name": "completed",
          "type": "bool"
        },
        {
          "internalType": "bool",
          "name": "killed",
          "type": "bool"
        }
      ],
      "stateMutability": "view",
      "type": "function",
      "constant": true
    },
    {
      "inputs": [],
      "name": "owner",
      "outputs": [
        {
          "internalType": "address",
          "name": "",
          "type": "address"
        }
      ],
      "stateMutability": "view",
      "type": "function",
      "constant": true
    },
    {
      "inputs": [],
      "name": "paused",
      "outputs": [
        {
          "internalType": "bool",
          "name": "",
          "type": "bool"
        }
      ],
      "stateMutability": "view",
      "type": "function",
      "constant": true
    },
    {
      "inputs": [],
      "name": "renounceOwnership",
      "outputs": [],
      "stateMutability": "nonpayable",
      "type": "function"
    },
    {
      "inputs": [
        {
          "internalType": "address",
          "name": "newOwner",
          "type": "address"
        }
      ],
      "name": "transferOwnership",
      "outputs": [],
      "stateMutability": "nonpayable",
      "type": "function"
    },
    {
      "stateMutability": "payable",
      "type": "receive",
      "payable": true
    },
    {
      "inputs": [],
      "name": "getCourses",
      "outputs": [
        {
          "components": [
            {
              "internalType": "string",
              "name": "description",
              "type": "string"
            },
            {
              "internalType": "uint256",
              "name": "createdAt",
              "type": "uint256"
            },
            {
              "internalType": "uint256",
              "name": "finishedAt",
              "type": "uint256"
            },
            {
              "internalType": "uint256",
              "name": "value",
              "type": "uint256"
            },
            {
              "internalType": "uint256",
              "name": "deadline",
              "type": "uint256"
            },
            {
              "internalType": "bool",
              "name": "completed",
              "type": "bool"
            },
            {
              "internalType": "bool",
              "name": "killed",
              "type": "bool"
            }
          ],
          "internalType": "struct CourseFactory.Course[]",
          "name": "",
          "type": "tuple[]"
        }
      ],
      "stateMutability": "view",
      "type": "function",
      "constant": true
    },
    {
      "inputs": [
        {
          "internalType": "string",
          "name": "_description",
          "type": "string"
        },
        {
          "internalType": "uint256",
          "name": "_deadline",
          "type": "uint256"
        }
      ],
      "name": "add",
      "outputs": [],
      "stateMutability": "payable",
      "type": "function",
      "payable": true
    },
    {
      "inputs": [
        {
          "internalType": "uint256",
          "name": "_id",
          "type": "uint256"
        }
      ],
      "name": "setComplete",
      "outputs": [],
      "stateMutability": "nonpayable",
      "type": "function"
    },
    {
      "inputs": [
        {
          "internalType": "uint256",
          "name": "_id",
          "type": "uint256"
        }
      ],
      "name": "remove",
      "outputs": [],
      "stateMutability": "nonpayable",
      "type": "function"
    },
    {
      "inputs": [
        {
          "internalType": "uint256",
          "name": "_id",
          "type": "uint256"
        }
      ],
      "name": "kill",
      "outputs": [],
      "stateMutability": "nonpayable",
      "type": "function"
    },
    {
      "inputs": [],
      "name": "pause",
      "outputs": [],
      "stateMutability": "nonpayable",
      "type": "function"
    },
    {
      "inputs": [],
      "name": "unpause",
      "outputs": [],
      "stateMutability": "nonpayable",
      "type": "function"
    }
  ],
  "bytecode": "0x608060405234801561001057600080fd5b50600160008190555061003561002a61005560201b60201c565b61005d60201b60201c565b6000600160146101000a81548160ff021916908315150217905550610123565b600033905090565b6000600160009054906101000a900473ffffffffffffffffffffffffffffffffffffffff16905081600160006101000a81548173ffffffffffffffffffffffffffffffffffffffff021916908373ffffffffffffffffffffffffffffffffffffffff1602179055508173ffffffffffffffffffffffffffffffffffffffff168173ffffffffffffffffffffffffffffffffffffffff167f8be0079c531659141344cd1fd0a4f28419497f9722a3daafe3b4186f6b6457e060405160405180910390a35050565b61209780620001336000396000f3fe6080604052600436106100c65760003560e01c806389e8491f1161007f578063cc12647911610059578063cc12647914610221578063d1b8c87b1461024c578063d29a002514610277578063f2fde38b146102a0576100d0565b806389e8491f1461018a5780638da5cb5b146101b3578063c1e478cb146101de576100d0565b806336555b85146100d55780633f4ba83a146100f15780634cc82215146101085780635c975abb14610131578063715018a61461015c5780638456cb5914610173576100d0565b366100d057600080fd5b600080fd5b6100ef60048036038101906100ea91906117cd565b6102c9565b005b3480156100fd57600080fd5b506101066102d7565b005b34801561011457600080fd5b5061012f600480360381019061012a9190611829565b61035d565b005b34801561013d57600080fd5b50610146610369565b6040516101539190611871565b60405180910390f35b34801561016857600080fd5b50610171610380565b005b34801561017f57600080fd5b50610188610408565b005b34801561019657600080fd5b506101b160048036038101906101ac9190611829565b61048e565b005b3480156101bf57600080fd5b506101c861049a565b6040516101d591906118cd565b60405180910390f35b3480156101ea57600080fd5b5061020560048036038101906102009190611914565b6104c4565b60405161021897969594939291906119eb565b60405180910390f35b34801561022d57600080fd5b506102366105c5565b6040516102439190611c27565b60405180910390f35b34801561025857600080fd5b506102616105d4565b60405161026e9190611c49565b60405180910390f35b34801561028357600080fd5b5061029e60048036038101906102999190611829565b6105e0565b005b3480156102ac57600080fd5b506102c760048036038101906102c29190611c64565b6105ec565b005b6102d382826106e4565b5050565b6102df610868565b73ffffffffffffffffffffffffffffffffffffffff166102fd61049a565b73ffffffffffffffffffffffffffffffffffffffff1614610353576040517f08c379a000000000000000000000000000000000000000000000000000000000815260040161034a90611cdd565b60405180910390fd5b61035b610870565b565b61036681610912565b50565b6000600160149054906101000a900460ff16905090565b610388610868565b73ffffffffffffffffffffffffffffffffffffffff166103a661049a565b73ffffffffffffffffffffffffffffffffffffffff16146103fc576040517f08c379a00000000000000000000000000000000000000000000000000000000081526004016103f390611cdd565b60405180910390fd5b6104066000610bf0565b565b610410610868565b73ffffffffffffffffffffffffffffffffffffffff1661042e61049a565b73ffffffffffffffffffffffffffffffffffffffff1614610484576040517f08c379a000000000000000000000000000000000000000000000000000000000815260040161047b90611cdd565b60405180910390fd5b61048c610cb6565b565b61049781610d58565b50565b6000600160009054906101000a900473ffffffffffffffffffffffffffffffffffffffff16905090565b600260205281600052604060002081815481106104e057600080fd5b90600052602060002090600602016000915091505080600001805461050490611d2c565b80601f016020809104026020016040519081016040528092919081815260200182805461053090611d2c565b801561057d5780601f106105525761010080835404028352916020019161057d565b820191906000526020600020905b81548152906001019060200180831161056057829003601f168201915b5050505050908060010154908060020154908060030154908060040154908060050160009054906101000a900460ff16908060050160019054906101000a900460ff16905087565b60606105cf610e27565b905090565b67016345785d8a000081565b6105e981610fb3565b50565b6105f4610868565b73ffffffffffffffffffffffffffffffffffffffff1661061261049a565b73ffffffffffffffffffffffffffffffffffffffff1614610668576040517f08c379a000000000000000000000000000000000000000000000000000000000815260040161065f90611cdd565b60405180910390fd5b600073ffffffffffffffffffffffffffffffffffffffff168173ffffffffffffffffffffffffffffffffffffffff1614156106d8576040517f08c379a00000000000000000000000000000000000000000000000000000000081526004016106cf90611dd0565b60405180910390fd5b6106e181610bf0565b50565b804281116106f157600080fd5b3467016345785d8a000081101561070757600080fd5b60006040518060e0016040528086815260200142815260200160648152602001348152602001858152602001600015158152602001600015158152509050600260003373ffffffffffffffffffffffffffffffffffffffff1673ffffffffffffffffffffffffffffffffffffffff16815260200190815260200160002081908060018154018082558091505060019003906000526020600020906006020160009091909190915060008201518160000190805190602001906107ca92919061148c565b506020820151816001015560408201518160020155606082015181600301556080820151816004015560a08201518160050160006101000a81548160ff02191690831515021790555060c08201518160050160016101000a81548160ff02191690831515021790555050507f4ed50226598d8b6360adcf22618243a9b6eace12eae87a908be864ee55fac98e60405160405180910390a15050505050565b600033905090565b610878610369565b6108b7576040517f08c379a00000000000000000000000000000000000000000000000000000000081526004016108ae90611e3c565b60405180910390fd5b6000600160146101000a81548160ff0219169083151502179055507f5db9ee0a495bf2e6ff9c91a7834c1ba4fdd244a5e8aa4e537bd38aeae4b073aa6108fb610868565b60405161090891906118cd565b60405180910390a1565b8061091c81611034565b60a0015180610934575061092f81611034565b60c001515b61093d57600080fd5b6000600260003373ffffffffffffffffffffffffffffffffffffffff1673ffffffffffffffffffffffffffffffffffffffff16815260200190815260200160002080549050905080831061099057600080fd5b600260003373ffffffffffffffffffffffffffffffffffffffff1673ffffffffffffffffffffffffffffffffffffffff1681526020019081526020016000206001826109dc9190611e8b565b815481106109ed576109ec611ebf565b5b9060005260206000209060060201600260003373ffffffffffffffffffffffffffffffffffffffff1673ffffffffffffffffffffffffffffffffffffffff1681526020019081526020016000208481548110610a4c57610a4b611ebf565b5b90600052602060002090600602016000820181600001908054610a6e90611d2c565b610a79929190611512565b50600182015481600101556002820154816002015560038201548160030155600482015481600401556005820160009054906101000a900460ff168160050160006101000a81548160ff0219169083151502179055506005820160019054906101000a900460ff168160050160016101000a81548160ff021916908315150217905550905050600260003373ffffffffffffffffffffffffffffffffffffffff1673ffffffffffffffffffffffffffffffffffffffff168152602001908152602001600020805480610b4e57610b4d611eee565b5b600190038181906000526020600020906006020160008082016000610b73919061159f565b60018201600090556002820160009055600382016000905560048201600090556005820160006101000a81549060ff02191690556005820160016101000a81549060ff0219169055505090557f4ed50226598d8b6360adcf22618243a9b6eace12eae87a908be864ee55fac98e60405160405180910390a1505050565b6000600160009054906101000a900473ffffffffffffffffffffffffffffffffffffffff16905081600160006101000a81548173ffffffffffffffffffffffffffffffffffffffff021916908373ffffffffffffffffffffffffffffffffffffffff1602179055508173ffffffffffffffffffffffffffffffffffffffff168173ffffffffffffffffffffffffffffffffffffffff167f8be0079c531659141344cd1fd0a4f28419497f9722a3daafe3b4186f6b6457e060405160405180910390a35050565b610cbe610369565b15610cfe576040517f08c379a0000000000000000000000000000000000000000000000000000000008152600401610cf590611f69565b60405180910390fd5b60018060146101000a81548160ff0219169083151502179055507f62e78cea01bee320cd4e420270b5ea74000d11b0c9f74754ebdbfc544b05a258610d41610868565b604051610d4e91906118cd565b60405180910390a1565b80610d6281611034565b60a0015115610d7057600080fd5b610d79826111eb565b15610db9576040517f08c379a0000000000000000000000000000000000000000000000000000000008152600401610db090611fd5565b60405180910390fd5b6000610dc483611034565b905060018160a001901515908115158152505042816040018181525050600067016345785d8a00008260600151610dfb9190611e8b565b9050610e0e67016345785d8a0000611220565b610e17816112d4565b610e218483611374565b50505050565b6060600260003373ffffffffffffffffffffffffffffffffffffffff1673ffffffffffffffffffffffffffffffffffffffff168152602001908152602001600020805480602002602001604051908101604052809291908181526020016000905b82821015610faa57838290600052602060002090600602016040518060e0016040529081600082018054610ebb90611d2c565b80601f0160208091040260200160405190810160405280929190818152602001828054610ee790611d2c565b8015610f345780601f10610f0957610100808354040283529160200191610f34565b820191906000526020600020905b815481529060010190602001808311610f1757829003601f168201915b50505050508152602001600182015481526020016002820154815260200160038201548152602001600482015481526020016005820160009054906101000a900460ff161515151581526020016005820160019054906101000a900460ff16151515158152505081526020019060010190610e88565b50505050905090565b6000610fbe82611034565b9050610fc9826111eb565b611008576040517f08c379a0000000000000000000000000000000000000000000000000000000008152600401610fff90611fd5565b60405180910390fd5b60018160c00190151590811515815250506110268160600151611220565b6110308282611374565b5050565b61103c6115df565b81600260003373ffffffffffffffffffffffffffffffffffffffff1673ffffffffffffffffffffffffffffffffffffffff168152602001908152602001600020805490501161108a57600080fd5b600260003373ffffffffffffffffffffffffffffffffffffffff1673ffffffffffffffffffffffffffffffffffffffff16815260200190815260200160002082815481106110db576110da611ebf565b5b90600052602060002090600602016040518060e001604052908160008201805461110490611d2c565b80601f016020809104026020016040519081016040528092919081815260200182805461113090611d2c565b801561117d5780601f106111525761010080835404028352916020019161117d565b820191906000526020600020905b81548152906001019060200180831161116057829003601f168201915b50505050508152602001600182015481526020016002820154815260200160038201548152602001600482015481526020016005820160009054906101000a900460ff161515151581526020016005820160019054906101000a900460ff1615151515815250509050919050565b6000806111f783611034565b905060008160800151141561121057600091505061121b565b428160800151109150505b919050565b60026000541415611266576040517f08c379a000000000000000000000000000000000000000000000000000000000815260040161125d90612041565b60405180910390fd5b60026000819055507353fc3e38a5d9e28324901f75af617dc149fdfe5f73ffffffffffffffffffffffffffffffffffffffff166108fc829081150290604051600060405180830381858888f193505050501580156112c8573d6000803e3d6000fd5b50600160008190555050565b6002600054141561131a576040517f08c379a000000000000000000000000000000000000000000000000000000000815260040161131190612041565b60405180910390fd5b60026000819055503373ffffffffffffffffffffffffffffffffffffffff166108fc829081150290604051600060405180830381858888f19350505050158015611368573d6000803e3d6000fd5b50600160008190555050565b80600260003373ffffffffffffffffffffffffffffffffffffffff1673ffffffffffffffffffffffffffffffffffffffff16815260200190815260200160002083815481106113c6576113c5611ebf565b5b906000526020600020906006020160008201518160000190805190602001906113f092919061148c565b506020820151816001015560408201518160020155606082015181600301556080820151816004015560a08201518160050160006101000a81548160ff02191690831515021790555060c08201518160050160016101000a81548160ff0219169083151502179055509050507f4ed50226598d8b6360adcf22618243a9b6eace12eae87a908be864ee55fac98e60405160405180910390a15050565b82805461149890611d2c565b90600052602060002090601f0160209004810192826114ba5760008555611501565b82601f106114d357805160ff1916838001178555611501565b82800160010185558215611501579182015b828111156115005782518255916020019190600101906114e5565b5b50905061150e9190611620565b5090565b82805461151e90611d2c565b90600052602060002090601f016020900481019282611540576000855561158e565b82601f10611551578054855561158e565b8280016001018555821561158e57600052602060002091601f016020900482015b8281111561158d578254825591600101919060010190611572565b5b50905061159b9190611620565b5090565b5080546115ab90611d2c565b6000825580601f106115bd57506115dc565b601f0160209004906000526020600020908101906115db9190611620565b5b50565b6040518060e0016040528060608152602001600081526020016000815260200160008152602001600081526020016000151581526020016000151581525090565b5b80821115611639576000816000905550600101611621565b5090565b6000604051905090565b600080fd5b600080fd5b600080fd5b600080fd5b6000601f19601f8301169050919050565b7f4e487b7100000000000000000000000000000000000000000000000000000000600052604160045260246000fd5b6116a48261165b565b810181811067ffffffffffffffff821117156116c3576116c261166c565b5b80604052505050565b60006116d661163d565b90506116e2828261169b565b919050565b600067ffffffffffffffff8211156117025761170161166c565b5b61170b8261165b565b9050602081019050919050565b82818337600083830152505050565b600061173a611735846116e7565b6116cc565b90508281526020810184848401111561175657611755611656565b5b611761848285611718565b509392505050565b600082601f83011261177e5761177d611651565b5b813561178e848260208601611727565b91505092915050565b6000819050919050565b6117aa81611797565b81146117b557600080fd5b50565b6000813590506117c7816117a1565b92915050565b600080604083850312156117e4576117e3611647565b5b600083013567ffffffffffffffff8111156118025761180161164c565b5b61180e85828601611769565b925050602061181f858286016117b8565b9150509250929050565b60006020828403121561183f5761183e611647565b5b600061184d848285016117b8565b91505092915050565b60008115159050919050565b61186b81611856565b82525050565b60006020820190506118866000830184611862565b92915050565b600073ffffffffffffffffffffffffffffffffffffffff82169050919050565b60006118b78261188c565b9050919050565b6118c7816118ac565b82525050565b60006020820190506118e260008301846118be565b92915050565b6118f1816118ac565b81146118fc57600080fd5b50565b60008135905061190e816118e8565b92915050565b6000806040838503121561192b5761192a611647565b5b6000611939858286016118ff565b925050602061194a858286016117b8565b9150509250929050565b600081519050919050565b600082825260208201905092915050565b60005b8381101561198e578082015181840152602081019050611973565b8381111561199d576000848401525b50505050565b60006119ae82611954565b6119b8818561195f565b93506119c8818560208601611970565b6119d18161165b565b840191505092915050565b6119e581611797565b82525050565b600060e0820190508181036000830152611a05818a6119a3565b9050611a1460208301896119dc565b611a2160408301886119dc565b611a2e60608301876119dc565b611a3b60808301866119dc565b611a4860a0830185611862565b611a5560c0830184611862565b98975050505050505050565b600081519050919050565b600082825260208201905092915050565b6000819050602082019050919050565b600082825260208201905092915050565b6000611aa982611954565b611ab38185611a8d565b9350611ac3818560208601611970565b611acc8161165b565b840191505092915050565b611ae081611797565b82525050565b611aef81611856565b82525050565b600060e0830160008301518482036000860152611b128282611a9e565b9150506020830151611b276020860182611ad7565b506040830151611b3a6040860182611ad7565b506060830151611b4d6060860182611ad7565b506080830151611b606080860182611ad7565b5060a0830151611b7360a0860182611ae6565b5060c0830151611b8660c0860182611ae6565b508091505092915050565b6000611b9d8383611af5565b905092915050565b6000602082019050919050565b6000611bbd82611a61565b611bc78185611a6c565b935083602082028501611bd985611a7d565b8060005b85811015611c155784840389528151611bf68582611b91565b9450611c0183611ba5565b925060208a01995050600181019050611bdd565b50829750879550505050505092915050565b60006020820190508181036000830152611c418184611bb2565b905092915050565b6000602082019050611c5e60008301846119dc565b92915050565b600060208284031215611c7a57611c79611647565b5b6000611c88848285016118ff565b91505092915050565b7f4f776e61626c653a2063616c6c6572206973206e6f7420746865206f776e6572600082015250565b6000611cc760208361195f565b9150611cd282611c91565b602082019050919050565b60006020820190508181036000830152611cf681611cba565b9050919050565b7f4e487b7100000000000000000000000000000000000000000000000000000000600052602260045260246000fd5b60006002820490506001821680611d4457607f821691505b60208210811415611d5857611d57611cfd565b5b50919050565b7f4f776e61626c653a206e6577206f776e657220697320746865207a65726f206160008201527f6464726573730000000000000000000000000000000000000000000000000000602082015250565b6000611dba60268361195f565b9150611dc582611d5e565b604082019050919050565b60006020820190508181036000830152611de981611dad565b9050919050565b7f5061757361626c653a206e6f7420706175736564000000000000000000000000600082015250565b6000611e2660148361195f565b9150611e3182611df0565b602082019050919050565b60006020820190508181036000830152611e5581611e19565b9050919050565b7f4e487b7100000000000000000000000000000000000000000000000000000000600052601160045260246000fd5b6000611e9682611797565b9150611ea183611797565b925082821015611eb457611eb3611e5c565b5b828203905092915050565b7f4e487b7100000000000000000000000000000000000000000000000000000000600052603260045260246000fd5b7f4e487b7100000000000000000000000000000000000000000000000000000000600052603160045260246000fd5b7f5061757361626c653a2070617573656400000000000000000000000000000000600082015250565b6000611f5360108361195f565b9150611f5e82611f1d565b602082019050919050565b60006020820190508181036000830152611f8281611f46565b9050919050565b7f6475652064617465206973206578706972656400000000000000000000000000600082015250565b6000611fbf60138361195f565b9150611fca82611f89565b602082019050919050565b60006020820190508181036000830152611fee81611fb2565b9050919050565b7f5265656e7472616e637947756172643a207265656e7472616e742063616c6c00600082015250565b600061202b601f8361195f565b915061203682611ff5565b602082019050919050565b6000602082019050818103600083015261205a8161201e565b905091905056fea2646970667358221220a0fb3082c8369a31d81993aa981bfb673a1a0745dc334ff0d0fd23c7a0ed518364736f6c634300080b0033",
  "immutableReferences": {},
  "source": "// SPDX-License-Identifier: MIT\npragma solidity >=0.8.0 <0.9.0;\n//pragma experimental ABIEncoderV2; // Two level dynamic arrays support\n\nimport \"@openzeppelin/contracts/access/Ownable.sol\";\nimport \"./CourseFactory.sol\";\n\ncontract SmartLearn is Ownable, CourseFactory{\n\n  /// @notice Get all courses of msg sender\n  /// @return Courses array\n  function getCourses() public view returns (Course[] memory) {\n    return _getCourses();\n  }\n  \n  /// @notice Add a new course for msg sender\n  /// @param _description Course decription\n  /// @param _deadline Course due date\n  function add(string memory _description, uint _deadline) public payable {\n    _add(_description, _deadline);\n  }\n\n\n  // Set a course as completed\n  function setComplete(uint _id) public {\n    _setComplete(_id);\n  }\n\n  // Remove a course\n  function remove(uint _id) public {\n    _remove(_id);\n  }\n\n  // Add prize to a course\n  // function setPrize(uint _id) public payable {\n  //   _setPrize(_id);\n  // }\n\n  // Kill a course\n  function kill(uint _id) public {\n    _kill(_id);\n  }\n  \n\n  // Pause contract deposits\n  function pause() public onlyOwner() {\n    _pause();\n  }\n\n  // Unpause contract deposits\n  function unpause() public onlyOwner() {\n    _unpause();\n  }\n\n}\n",
  "sourcePath": "/Users/iman/smartlearn/smartcontract/contracts/SmartLearn.sol",
  "compiler": {
    "name": "solc",
    "version": "0.8.11+commit.d7f03943.Emscripten.clang"
  },
  "schemaVersion": "3.4.7",
  "updatedAt": "2022-06-28T23:30:35.250Z",
  "networkType": "ethereum",
  "devdoc": {
    "kind": "dev",
    "methods": {
      "add(string,uint256)": {
        "params": {
          "_deadline": "Course due date",
          "_description": "Course decription"
        }
      },
      "getCourses()": {
        "returns": {
          "_0": "Courses array"
        }
      },
      "owner()": {
        "details": "Returns the address of the current owner."
      },
      "paused()": {
        "details": "Returns true if the contract is paused, and false otherwise."
      },
      "renounceOwnership()": {
        "details": "Leaves the contract without owner. It will not be possible to call `onlyOwner` functions anymore. Can only be called by the current owner. NOTE: Renouncing ownership will leave the contract without an owner, thereby removing any functionality that is only available to the owner."
      },
      "transferOwnership(address)": {
        "details": "Transfers ownership of the contract to a new account (`newOwner`). Can only be called by the current owner."
      }
    },
    "version": 1
  },
  "userdoc": {
    "kind": "user",
    "methods": {
      "add(string,uint256)": {
        "notice": "Add a new course for msg sender"
      },
      "getCourses()": {
        "notice": "Get all courses of msg sender"
      }
    },
    "version": 1
  }
}