{
  "contractName": "SmartLearn",
  "abi": [
    {
      "anonymous": false,
      "inputs": [
        {
          "indexed": false,
          "internalType": "address",
          "name": "userAddress",
          "type": "address"
        },
        {
          "indexed": false,
          "internalType": "uint256",
          "name": "taskID",
          "type": "uint256"
        }
      ],
      "name": "LogAdd",
      "type": "event"
    },
    {
      "anonymous": false,
      "inputs": [
        {
          "indexed": true,
          "internalType": "address",
          "name": "previousOwner",
          "type": "address"
        },
        {
          "indexed": true,
          "internalType": "address",
          "name": "newOwner",
          "type": "address"
        }
      ],
      "name": "OwnershipTransferred",
      "type": "event"
    },
    {
      "anonymous": false,
      "inputs": [
        {
          "indexed": false,
          "internalType": "address",
          "name": "account",
          "type": "address"
        }
      ],
      "name": "Paused",
      "type": "event"
    },
    {
      "anonymous": false,
      "inputs": [
        {
          "indexed": false,
          "internalType": "address",
          "name": "account",
          "type": "address"
        }
      ],
      "name": "Unpaused",
      "type": "event"
    },
    {
      "stateMutability": "payable",
      "type": "fallback",
      "payable": true
    },
    {
      "inputs": [],
      "name": "getPrize",
      "outputs": [
        {
          "internalType": "uint256",
          "name": "",
          "type": "uint256"
        }
      ],
      "stateMutability": "view",
      "type": "function",
      "constant": true
    },
    {
      "inputs": [],
      "name": "owner",
      "outputs": [
        {
          "internalType": "address",
          "name": "",
          "type": "address"
        }
      ],
      "stateMutability": "view",
      "type": "function",
      "constant": true
    },
    {
      "inputs": [],
      "name": "paused",
      "outputs": [
        {
          "internalType": "bool",
          "name": "",
          "type": "bool"
        }
      ],
      "stateMutability": "view",
      "type": "function",
      "constant": true
    },
    {
      "inputs": [
        {
          "internalType": "address",
          "name": "",
          "type": "address"
        }
      ],
      "name": "prizes",
      "outputs": [
        {
          "internalType": "uint256",
          "name": "",
          "type": "uint256"
        }
      ],
      "stateMutability": "view",
      "type": "function",
      "constant": true
    },
    {
      "inputs": [],
      "name": "renounceOwnership",
      "outputs": [],
      "stateMutability": "nonpayable",
      "type": "function"
    },
    {
      "inputs": [
        {
          "internalType": "address",
          "name": "",
          "type": "address"
        },
        {
          "internalType": "uint256",
          "name": "",
          "type": "uint256"
        }
      ],
      "name": "tasks",
      "outputs": [
        {
          "internalType": "string",
          "name": "description",
          "type": "string"
        },
        {
          "internalType": "uint256",
          "name": "createdAt",
          "type": "uint256"
        },
        {
          "internalType": "uint256",
          "name": "value",
          "type": "uint256"
        },
        {
          "internalType": "uint256",
          "name": "dueDate",
          "type": "uint256"
        },
        {
          "internalType": "bool",
          "name": "completed",
          "type": "bool"
        },
        {
          "internalType": "bool",
          "name": "cleared",
          "type": "bool"
        }
      ],
      "stateMutability": "view",
      "type": "function",
      "constant": true
    },
    {
      "inputs": [
        {
          "internalType": "address",
          "name": "newOwner",
          "type": "address"
        }
      ],
      "name": "transferOwnership",
      "outputs": [],
      "stateMutability": "nonpayable",
      "type": "function"
    },
    {
      "inputs": [
        {
          "internalType": "uint256",
          "name": "withdrawAmount",
          "type": "uint256"
        }
      ],
      "name": "withdrawPrize",
      "outputs": [
        {
          "internalType": "uint256",
          "name": "",
          "type": "uint256"
        }
      ],
      "stateMutability": "nonpayable",
      "type": "function"
    },
    {
      "stateMutability": "payable",
      "type": "receive",
      "payable": true
    },
    {
      "inputs": [],
      "name": "getTasks",
      "outputs": [
        {
          "components": [
            {
              "internalType": "string",
              "name": "description",
              "type": "string"
            },
            {
              "internalType": "uint256",
              "name": "createdAt",
              "type": "uint256"
            },
            {
              "internalType": "uint256",
              "name": "value",
              "type": "uint256"
            },
            {
              "internalType": "uint256",
              "name": "dueDate",
              "type": "uint256"
            },
            {
              "internalType": "bool",
              "name": "completed",
              "type": "bool"
            },
            {
              "internalType": "bool",
              "name": "cleared",
              "type": "bool"
            }
          ],
          "internalType": "struct TaskFactory.Task[]",
          "name": "",
          "type": "tuple[]"
        }
      ],
      "stateMutability": "view",
      "type": "function",
      "constant": true
    },
    {
      "inputs": [
        {
          "internalType": "string",
          "name": "_description",
          "type": "string"
        },
        {
          "internalType": "uint256",
          "name": "_dueDate",
          "type": "uint256"
        }
      ],
      "name": "add",
      "outputs": [],
      "stateMutability": "nonpayable",
      "type": "function"
    },
    {
      "inputs": [
        {
          "internalType": "uint256",
          "name": "_id",
          "type": "uint256"
        }
      ],
      "name": "setComplete",
      "outputs": [],
      "stateMutability": "nonpayable",
      "type": "function"
    },
    {
      "inputs": [
        {
          "internalType": "uint256",
          "name": "_id",
          "type": "uint256"
        }
      ],
      "name": "setPrize",
      "outputs": [],
      "stateMutability": "payable",
      "type": "function",
      "payable": true
    },
    {
      "inputs": [
        {
          "internalType": "uint256",
          "name": "_id",
          "type": "uint256"
        }
      ],
      "name": "clear",
      "outputs": [
        {
          "internalType": "bool",
          "name": "",
          "type": "bool"
        }
      ],
      "stateMutability": "nonpayable",
      "type": "function"
    },
    {
      "inputs": [],
      "name": "pause",
      "outputs": [],
      "stateMutability": "nonpayable",
      "type": "function"
    },
    {
      "inputs": [],
      "name": "unpause",
      "outputs": [],
      "stateMutability": "nonpayable",
      "type": "function"
    }
  ],
  "bytecode": "0x608060405234801561001057600080fd5b5061002d61002261004d60201b60201c565b61005560201b60201c565b6000600160146101000a81548160ff02191690831515021790555061011b565b600033905090565b6000600160009054906101000a900473ffffffffffffffffffffffffffffffffffffffff16905081600160006101000a81548173ffffffffffffffffffffffffffffffffffffffff021916908373ffffffffffffffffffffffffffffffffffffffff1602179055508173ffffffffffffffffffffffffffffffffffffffff168173ffffffffffffffffffffffffffffffffffffffff167f8be0079c531659141344cd1fd0a4f28419497f9722a3daafe3b4186f6b6457e060405160405180910390a35050565b611e378061012a6000396000f3fe6080604052600436106100ec5760003560e01c80638456cb591161008a578063c0fe1af811610059578063c0fe1af8146102ae578063c20eec7b146102eb578063c34f6b0d14610328578063f2fde38b14610353576100f6565b80638456cb591461020657806389e8491f1461021d5780638da5cb5b14610246578063b35d11bf14610271576100f6565b80635c975abb116100c65780635c975abb146101665780636ca7f3ba146101915780637149d2e4146101ad578063715018a6146101ef576100f6565b806304a87e38146100fb57806336555b85146101265780633f4ba83a1461014f576100f6565b366100f657600080fd5b600080fd5b34801561010757600080fd5b5061011061037c565b60405161011d91906116c7565b60405180910390f35b34801561013257600080fd5b5061014d6004803603810190610148919061185e565b61038b565b005b34801561015b57600080fd5b50610164610399565b005b34801561017257600080fd5b5061017b61041f565b60405161018891906118c9565b60405180910390f35b6101ab60048036038101906101a691906118e4565b610436565b005b3480156101b957600080fd5b506101d460048036038101906101cf919061196f565b610442565b6040516101e696959493929190611a08565b60405180910390f35b3480156101fb57600080fd5b5061020461053d565b005b34801561021257600080fd5b5061021b6105c5565b005b34801561022957600080fd5b50610244600480360381019061023f91906118e4565b61064b565b005b34801561025257600080fd5b5061025b610657565b6040516102689190611a7f565b60405180910390f35b34801561027d57600080fd5b5061029860048036038101906102939190611a9a565b610681565b6040516102a59190611ac7565b60405180910390f35b3480156102ba57600080fd5b506102d560048036038101906102d091906118e4565b610699565b6040516102e291906118c9565b60405180910390f35b3480156102f757600080fd5b50610312600480360381019061030d91906118e4565b6106ab565b60405161031f9190611ac7565b60405180910390f35b34801561033457600080fd5b5061033d61076c565b60405161034a9190611ac7565b60405180910390f35b34801561035f57600080fd5b5061037a60048036038101906103759190611a9a565b6107b2565b005b60606103866108aa565b905090565b6103958282610a2c565b5050565b6103a1610b4f565b73ffffffffffffffffffffffffffffffffffffffff166103bf610657565b73ffffffffffffffffffffffffffffffffffffffff1614610415576040517f08c379a000000000000000000000000000000000000000000000000000000000815260040161040c90611b2e565b60405180910390fd5b61041d610b57565b565b6000600160149054906101000a900460ff16905090565b61043f81610bf9565b50565b6002602052816000526040600020818154811061045e57600080fd5b90600052602060002090600502016000915091505080600001805461048290611b7d565b80601f01602080910402602001604051908101604052809291908181526020018280546104ae90611b7d565b80156104fb5780601f106104d0576101008083540402835291602001916104fb565b820191906000526020600020905b8154815290600101906020018083116104de57829003601f168201915b5050505050908060010154908060020154908060030154908060040160009054906101000a900460ff16908060040160019054906101000a900460ff16905086565b610545610b4f565b73ffffffffffffffffffffffffffffffffffffffff16610563610657565b73ffffffffffffffffffffffffffffffffffffffff16146105b9576040517f08c379a00000000000000000000000000000000000000000000000000000000081526004016105b090611b2e565b60405180910390fd5b6105c36000610cc5565b565b6105cd610b4f565b73ffffffffffffffffffffffffffffffffffffffff166105eb610657565b73ffffffffffffffffffffffffffffffffffffffff1614610641576040517f08c379a000000000000000000000000000000000000000000000000000000000815260040161063890611b2e565b60405180910390fd5b610649610d8b565b565b61065481610e2d565b50565b6000600160009054906101000a900473ffffffffffffffffffffffffffffffffffffffff16905090565b60006020528060005260406000206000915090505481565b60006106a482610ef8565b9050919050565b6000816106b661076c565b10156106c157600080fd5b816000803373ffffffffffffffffffffffffffffffffffffffff1673ffffffffffffffffffffffffffffffffffffffff168152602001908152602001600020600082825461070f9190611bde565b925050819055503373ffffffffffffffffffffffffffffffffffffffff166108fc839081150290604051600060405180830381858888f1935050505015801561075c573d6000803e3d6000fd5b5061076561076c565b9050919050565b60008060003373ffffffffffffffffffffffffffffffffffffffff1673ffffffffffffffffffffffffffffffffffffffff16815260200190815260200160002054905090565b6107ba610b4f565b73ffffffffffffffffffffffffffffffffffffffff166107d8610657565b73ffffffffffffffffffffffffffffffffffffffff161461082e576040517f08c379a000000000000000000000000000000000000000000000000000000000815260040161082590611b2e565b60405180910390fd5b600073ffffffffffffffffffffffffffffffffffffffff168173ffffffffffffffffffffffffffffffffffffffff16141561089e576040517f08c379a000000000000000000000000000000000000000000000000000000000815260040161089590611c84565b60405180910390fd5b6108a781610cc5565b50565b6060600260003373ffffffffffffffffffffffffffffffffffffffff1673ffffffffffffffffffffffffffffffffffffffff168152602001908152602001600020805480602002602001604051908101604052809291908181526020016000905b82821015610a2357838290600052602060002090600502016040518060c001604052908160008201805461093e90611b7d565b80601f016020809104026020016040519081016040528092919081815260200182805461096a90611b7d565b80156109b75780601f1061098c576101008083540402835291602001916109b7565b820191906000526020600020905b81548152906001019060200180831161099a57829003601f168201915b505050505081526020016001820154815260200160028201548152602001600382015481526020016004820160009054906101000a900460ff161515151581526020016004820160019054906101000a900460ff1615151515815250508152602001906001019061090b565b50505050905090565b60006040518060c0016040528084815260200142815260200160008152602001838152602001600015158152602001600115158152509050600260003373ffffffffffffffffffffffffffffffffffffffff1673ffffffffffffffffffffffffffffffffffffffff1681526020019081526020016000208190806001815401808255809150506001900390600052602060002090600502016000909190919091506000820151816000019080519060200190610ae99291906113d2565b5060208201518160010155604082015181600201556060820151816003015560808201518160040160006101000a81548160ff02191690831515021790555060a08201518160040160016101000a81548160ff0219169083151502179055505050505050565b600033905090565b610b5f61041f565b610b9e576040517f08c379a0000000000000000000000000000000000000000000000000000000008152600401610b9590611cf0565b60405180910390fd5b6000600160146101000a81548160ff0219169083151502179055507f5db9ee0a495bf2e6ff9c91a7834c1ba4fdd244a5e8aa4e537bd38aeae4b073aa610be2610b4f565b604051610bef9190611a7f565b60405180910390a1565b806000610c0582610f79565b606001511415610c1457600080fd5b610c1c61041f565b15610c5c576040517f08c379a0000000000000000000000000000000000000000000000000000000008152600401610c5390611d5c565b60405180910390fd5b6000610c6783610f79565b90506000816040015114610c7a57600080fd5b610c8383611126565b15610c8d57600080fd5b8060a00151610c9b57600080fd5b3481604001818152505060008160a0019015159081151581525050610cc0838261115b565b505050565b6000600160009054906101000a900473ffffffffffffffffffffffffffffffffffffffff16905081600160006101000a81548173ffffffffffffffffffffffffffffffffffffffff021916908373ffffffffffffffffffffffffffffffffffffffff1602179055508173ffffffffffffffffffffffffffffffffffffffff168173ffffffffffffffffffffffffffffffffffffffff167f8be0079c531659141344cd1fd0a4f28419497f9722a3daafe3b4186f6b6457e060405160405180910390a35050565b610d9361041f565b15610dd3576040517f08c379a0000000000000000000000000000000000000000000000000000000008152600401610dca90611d5c565b60405180910390fd5b60018060146101000a81548160ff0219169083151502179055507f62e78cea01bee320cd4e420270b5ea74000d11b0c9f74754ebdbfc544b05a258610e16610b4f565b604051610e239190611a7f565b60405180910390a1565b80610e3781610f79565b6080015115610e4557600080fd5b6000610e5083610f79565b9050610e5b8361123d565b1580610e6d5750610e6b83611126565b155b15610e8e576001816080019015159081151581525050610e8d838261115b565b5b610e978361123d565b8015610ea557508060a00151155b15610ef357610eb383611271565b610ef25760018160a00190151590811515815250506001816080019015159081151581525050610ee3838261115b565b610ef13382604001516112b2565b5b5b505050565b600080610f0483610f79565b9050610f0f8361123d565b80610f1f5750610f1e83611271565b5b15610f2e576000915050610f74565b610f378361134b565b15610f6e5760018160a0019015159081151581525050610f5a8160400151611388565b610f64838261115b565b6001915050610f74565b60009150505b919050565b610f81611458565b81600260003373ffffffffffffffffffffffffffffffffffffffff1673ffffffffffffffffffffffffffffffffffffffff1681526020019081526020016000208054905011610fcf57600080fd5b600260003373ffffffffffffffffffffffffffffffffffffffff1673ffffffffffffffffffffffffffffffffffffffff16815260200190815260200160002082815481106110205761101f611d7c565b5b90600052602060002090600502016040518060c001604052908160008201805461104990611b7d565b80601f016020809104026020016040519081016040528092919081815260200182805461107590611b7d565b80156110c25780601f10611097576101008083540402835291602001916110c2565b820191906000526020600020905b8154815290600101906020018083116110a557829003601f168201915b505050505081526020016001820154815260200160028201548152602001600382015481526020016004820160009054906101000a900460ff161515151581526020016004820160019054906101000a900460ff1615151515815250509050919050565b60008061113283610f79565b905060008160600151141561114b576000915050611156565b428160600151109150505b919050565b80600260003373ffffffffffffffffffffffffffffffffffffffff1673ffffffffffffffffffffffffffffffffffffffff16815260200190815260200160002083815481106111ad576111ac611d7c565b5b906000526020600020906005020160008201518160000190805190602001906111d79291906113d2565b5060208201518160010155604082015181600201556060820151816003015560808201518160040160006101000a81548160ff02191690831515021790555060a08201518160040160016101000a81548160ff0219169083151502179055509050505050565b60008061124983610f79565b905060008160400151141561126257600091505061126c565b8060a00151159150505b919050565b600061127c8261123d565b61128957600090506112ad565b61129282611126565b156112a057600090506112ad565b6112a98261134b565b1590505b919050565b60008060008473ffffffffffffffffffffffffffffffffffffffff1673ffffffffffffffffffffffffffffffffffffffff16815260200190815260200160002054905081816113019190611dab565b9050806000808573ffffffffffffffffffffffffffffffffffffffff1673ffffffffffffffffffffffffffffffffffffffff16815260200190815260200160002081905550505050565b60008061135783610f79565b905062278d00816060015161136c9190611dab565b42111561137d576001915050611383565b60009150505b919050565b3373ffffffffffffffffffffffffffffffffffffffff166108fc829081150290604051600060405180830381858888f193505050501580156113ce573d6000803e3d6000fd5b5050565b8280546113de90611b7d565b90600052602060002090601f0160209004810192826114005760008555611447565b82601f1061141957805160ff1916838001178555611447565b82800160010185558215611447579182015b8281111561144657825182559160200191906001019061142b565b5b5090506114549190611492565b5090565b6040518060c00160405280606081526020016000815260200160008152602001600081526020016000151581526020016000151581525090565b5b808211156114ab576000816000905550600101611493565b5090565b600081519050919050565b600082825260208201905092915050565b6000819050602082019050919050565b600081519050919050565b600082825260208201905092915050565b60005b838110156115155780820151818401526020810190506114fa565b83811115611524576000848401525b50505050565b6000601f19601f8301169050919050565b6000611546826114db565b61155081856114e6565b93506115608185602086016114f7565b6115698161152a565b840191505092915050565b6000819050919050565b61158781611574565b82525050565b60008115159050919050565b6115a28161158d565b82525050565b600060c08301600083015184820360008601526115c5828261153b565b91505060208301516115da602086018261157e565b5060408301516115ed604086018261157e565b506060830151611600606086018261157e565b5060808301516116136080860182611599565b5060a083015161162660a0860182611599565b508091505092915050565b600061163d83836115a8565b905092915050565b6000602082019050919050565b600061165d826114af565b61166781856114ba565b935083602082028501611679856114cb565b8060005b858110156116b557848403895281516116968582611631565b94506116a183611645565b925060208a0199505060018101905061167d565b50829750879550505050505092915050565b600060208201905081810360008301526116e18184611652565b905092915050565b6000604051905090565b600080fd5b600080fd5b600080fd5b600080fd5b7f4e487b7100000000000000000000000000000000000000000000000000000000600052604160045260246000fd5b61173f8261152a565b810181811067ffffffffffffffff8211171561175e5761175d611707565b5b80604052505050565b60006117716116e9565b905061177d8282611736565b919050565b600067ffffffffffffffff82111561179d5761179c611707565b5b6117a68261152a565b9050602081019050919050565b82818337600083830152505050565b60006117d56117d084611782565b611767565b9050828152602081018484840111156117f1576117f0611702565b5b6117fc8482856117b3565b509392505050565b600082601f830112611819576118186116fd565b5b81356118298482602086016117c2565b91505092915050565b61183b81611574565b811461184657600080fd5b50565b60008135905061185881611832565b92915050565b60008060408385031215611875576118746116f3565b5b600083013567ffffffffffffffff811115611893576118926116f8565b5b61189f85828601611804565b92505060206118b085828601611849565b9150509250929050565b6118c38161158d565b82525050565b60006020820190506118de60008301846118ba565b92915050565b6000602082840312156118fa576118f96116f3565b5b600061190884828501611849565b91505092915050565b600073ffffffffffffffffffffffffffffffffffffffff82169050919050565b600061193c82611911565b9050919050565b61194c81611931565b811461195757600080fd5b50565b60008135905061196981611943565b92915050565b60008060408385031215611986576119856116f3565b5b60006119948582860161195a565b92505060206119a585828601611849565b9150509250929050565b600082825260208201905092915050565b60006119cb826114db565b6119d581856119af565b93506119e58185602086016114f7565b6119ee8161152a565b840191505092915050565b611a0281611574565b82525050565b600060c0820190508181036000830152611a2281896119c0565b9050611a3160208301886119f9565b611a3e60408301876119f9565b611a4b60608301866119f9565b611a5860808301856118ba565b611a6560a08301846118ba565b979650505050505050565b611a7981611931565b82525050565b6000602082019050611a946000830184611a70565b92915050565b600060208284031215611ab057611aaf6116f3565b5b6000611abe8482850161195a565b91505092915050565b6000602082019050611adc60008301846119f9565b92915050565b7f4f776e61626c653a2063616c6c6572206973206e6f7420746865206f776e6572600082015250565b6000611b186020836119af565b9150611b2382611ae2565b602082019050919050565b60006020820190508181036000830152611b4781611b0b565b9050919050565b7f4e487b7100000000000000000000000000000000000000000000000000000000600052602260045260246000fd5b60006002820490506001821680611b9557607f821691505b60208210811415611ba957611ba8611b4e565b5b50919050565b7f4e487b7100000000000000000000000000000000000000000000000000000000600052601160045260246000fd5b6000611be982611574565b9150611bf483611574565b925082821015611c0757611c06611baf565b5b828203905092915050565b7f4f776e61626c653a206e6577206f776e657220697320746865207a65726f206160008201527f6464726573730000000000000000000000000000000000000000000000000000602082015250565b6000611c6e6026836119af565b9150611c7982611c12565b604082019050919050565b60006020820190508181036000830152611c9d81611c61565b9050919050565b7f5061757361626c653a206e6f7420706175736564000000000000000000000000600082015250565b6000611cda6014836119af565b9150611ce582611ca4565b602082019050919050565b60006020820190508181036000830152611d0981611ccd565b9050919050565b7f5061757361626c653a2070617573656400000000000000000000000000000000600082015250565b6000611d466010836119af565b9150611d5182611d10565b602082019050919050565b60006020820190508181036000830152611d7581611d39565b9050919050565b7f4e487b7100000000000000000000000000000000000000000000000000000000600052603260045260246000fd5b6000611db682611574565b9150611dc183611574565b9250827fffffffffffffffffffffffffffffffffffffffffffffffffffffffffffffffff03821115611df657611df5611baf565b5b82820190509291505056fea2646970667358221220ff483dffdd617e0d3f77c0f55d52b733cb32535059c823ed6fae30ba26212e1e64736f6c634300080b0033",
  "immutableReferences": {},
  "source": "// SPDX-License-Identifier: MIT\npragma solidity >=0.8.0 <0.9.0;\n\nimport \"@openzeppelin/contracts/access/Ownable.sol\";\nimport \"./TaskFactory.sol\";\n\ncontract SmartLearn is Ownable, TaskFactory {\n  \n // Get user's all tasks\n  function getTasks() public view returns (Task[] memory) {\n    return _getTasks();\n  }\n  \n  // Add a new task\n  function add(string memory _description, uint _dueDate) public {\n    _add(_description, _dueDate);\n  }\n\n  // Set a task as completed\n  function setComplete(uint _id) public {\n    _setComplete(_id);\n  }\n\n  // Set prize for a task\n  function setPrize(uint _id) public payable {\n    _setPrize(_id);\n  }\n\n  // Clear a task\n  function clear(uint _id) public returns (bool) {\n    return _clear(_id);\n  }\n\n  /**\n   *pause() function is implemented to stop all deposits to the \n   *contract so that new users wouldn't loss their coins \n   *if there are any bugs in contract.\n   */\n\n    // Pause contract deposits\n  function pause() public onlyOwner() {\n    _pause();\n  }\n\n  // Unpause contract deposits\n  function unpause() public onlyOwner() {\n    _unpause();\n  }\n\n}\n  \n",
  "sourcePath": "/home/faman/smartlearn/smartcontract/contracts/SmartLearn.sol",
  "compiler": {
    "name": "solc",
    "version": "0.8.11+commit.d7f03943.Emscripten.clang"
  },
  "schemaVersion": "3.4.4",
  "updatedAt": "2022-05-07T11:09:38.191Z",
  "networkType": "ethereum",
  "devdoc": {
    "kind": "dev",
    "methods": {
      "owner()": {
        "details": "Returns the address of the current owner."
      },
      "paused()": {
        "details": "Returns true if the contract is paused, and false otherwise."
      },
      "renounceOwnership()": {
        "details": "Leaves the contract without owner. It will not be possible to call `onlyOwner` functions anymore. Can only be called by the current owner. NOTE: Renouncing ownership will leave the contract without an owner, thereby removing any functionality that is only available to the owner."
      },
      "transferOwnership(address)": {
        "details": "Transfers ownership of the contract to a new account (`newOwner`). Can only be called by the current owner."
      }
    },
    "version": 1
  },
  "userdoc": {
    "events": {
      "LogAdd(address,uint256)": {
        "notice": "Events"
      }
    },
    "kind": "user",
    "methods": {
      "pause()": {
        "notice": "pause() function is implemented to stop all deposits to the  contract so that new users wouldn't loss their coins  if there are any bugs in contract."
      }
    },
    "version": 1
  }
}