{
  "contractName": "SmartLearn",
  "abi": [
    {
      "inputs": [],
      "stateMutability": "nonpayable",
      "type": "constructor"
    },
    {
      "anonymous": false,
      "inputs": [
        {
          "indexed": false,
          "internalType": "address",
          "name": "userAddress",
          "type": "address"
        },
        {
          "indexed": false,
          "internalType": "uint256",
          "name": "taskID",
          "type": "uint256"
        }
      ],
      "name": "LogAdd",
      "type": "event"
    },
    {
      "inputs": [
        {
          "internalType": "address",
          "name": "",
          "type": "address"
        }
      ],
      "name": "credits",
      "outputs": [
        {
          "internalType": "uint256",
          "name": "",
          "type": "uint256"
        }
      ],
      "stateMutability": "view",
      "type": "function"
    },
    {
      "inputs": [
        {
          "internalType": "address",
          "name": "",
          "type": "address"
        }
      ],
      "name": "prizes",
      "outputs": [
        {
          "internalType": "uint256",
          "name": "",
          "type": "uint256"
        }
      ],
      "stateMutability": "view",
      "type": "function"
    },
    {
      "inputs": [
        {
          "internalType": "address",
          "name": "",
          "type": "address"
        },
        {
          "internalType": "uint256",
          "name": "",
          "type": "uint256"
        }
      ],
      "name": "tasks",
      "outputs": [
        {
          "internalType": "string",
          "name": "description",
          "type": "string"
        },
        {
          "internalType": "uint256",
          "name": "createdAt",
          "type": "uint256"
        },
        {
          "internalType": "uint256",
          "name": "value",
          "type": "uint256"
        },
        {
          "internalType": "uint256",
          "name": "dueDate",
          "type": "uint256"
        },
        {
          "internalType": "bool",
          "name": "completed",
          "type": "bool"
        },
        {
          "internalType": "bool",
          "name": "cleared",
          "type": "bool"
        }
      ],
      "stateMutability": "view",
      "type": "function"
    },
    {
      "inputs": [
        {
          "internalType": "string",
          "name": "_description",
          "type": "string"
        },
        {
          "internalType": "uint256",
          "name": "_dueDate",
          "type": "uint256"
        }
      ],
      "name": "add",
      "outputs": [],
      "stateMutability": "nonpayable",
      "type": "function"
    },
    {
      "inputs": [
        {
          "internalType": "uint256",
          "name": "_taskID",
          "type": "uint256"
        },
        {
          "internalType": "string",
          "name": "_description",
          "type": "string"
        },
        {
          "internalType": "uint256",
          "name": "_dueDate",
          "type": "uint256"
        }
      ],
      "name": "update",
      "outputs": [],
      "stateMutability": "nonpayable",
      "type": "function"
    },
    {
      "inputs": [
        {
          "internalType": "uint256",
          "name": "_id",
          "type": "uint256"
        }
      ],
      "name": "setComplete",
      "outputs": [],
      "stateMutability": "nonpayable",
      "type": "function"
    },
    {
      "inputs": [
        {
          "internalType": "uint256",
          "name": "_id",
          "type": "uint256"
        }
      ],
      "name": "setIncomplete",
      "outputs": [],
      "stateMutability": "nonpayable",
      "type": "function"
    },
    {
      "inputs": [],
      "name": "getTasks",
      "outputs": [
        {
          "components": [
            {
              "internalType": "string",
              "name": "description",
              "type": "string"
            },
            {
              "internalType": "uint256",
              "name": "createdAt",
              "type": "uint256"
            },
            {
              "internalType": "uint256",
              "name": "value",
              "type": "uint256"
            },
            {
              "internalType": "uint256",
              "name": "dueDate",
              "type": "uint256"
            },
            {
              "internalType": "bool",
              "name": "completed",
              "type": "bool"
            },
            {
              "internalType": "bool",
              "name": "cleared",
              "type": "bool"
            }
          ],
          "internalType": "struct SmartLearn.Task[]",
          "name": "",
          "type": "tuple[]"
        }
      ],
      "stateMutability": "view",
      "type": "function"
    },
    {
      "inputs": [
        {
          "internalType": "uint256",
          "name": "_id",
          "type": "uint256"
        }
      ],
      "name": "getTask",
      "outputs": [
        {
          "components": [
            {
              "internalType": "string",
              "name": "description",
              "type": "string"
            },
            {
              "internalType": "uint256",
              "name": "createdAt",
              "type": "uint256"
            },
            {
              "internalType": "uint256",
              "name": "value",
              "type": "uint256"
            },
            {
              "internalType": "uint256",
              "name": "dueDate",
              "type": "uint256"
            },
            {
              "internalType": "bool",
              "name": "completed",
              "type": "bool"
            },
            {
              "internalType": "bool",
              "name": "cleared",
              "type": "bool"
            }
          ],
          "internalType": "struct SmartLearn.Task",
          "name": "",
          "type": "tuple"
        }
      ],
      "stateMutability": "view",
      "type": "function"
    }
  ],
  "bytecode": "0x608060405234801561001057600080fd5b50336000806101000a81548173ffffffffffffffffffffffffffffffffffffffff021916908373ffffffffffffffffffffffffffffffffffffffff160217905550611340806100606000396000f3fe608060405234801561001057600080fd5b50600436106100935760003560e01c806389e8491f1161006657806389e8491f14610137578063ad841e0714610153578063b35d11bf1461016f578063e7a9d4061461019f578063fe5ff468146101bb57610093565b806304a87e38146100985780631d65e77e146100b657806336555b85146100e65780637149d2e414610102575b600080fd5b6100a06101eb565b6040516100ad9190610d8a565b60405180910390f35b6100d060048036038101906100cb9190610dec565b61036d565b6040516100dd9190610ea2565b60405180910390f35b61010060048036038101906100fb9190610ff9565b6104cc565b005b61011c600480360381019061011791906110b3565b6105ef565b60405161012e9695949392919061115b565b60405180910390f35b610151600480360381019061014c9190610dec565b6106ea565b005b61016d600480360381019061016891906111c3565b610750565b005b61018960048036038101906101849190611232565b6108dc565b604051610196919061125f565b60405180910390f35b6101b960048036038101906101b49190610dec565b6108f4565b005b6101d560048036038101906101d09190611232565b61094d565b6040516101e2919061125f565b60405180910390f35b6060600160003373ffffffffffffffffffffffffffffffffffffffff1673ffffffffffffffffffffffffffffffffffffffff168152602001908152602001600020805480602002602001604051908101604052809291908181526020016000905b8282101561036457838290600052602060002090600502016040518060c001604052908160008201805461027f906112a9565b80601f01602080910402602001604051908101604052809291908181526020018280546102ab906112a9565b80156102f85780601f106102cd576101008083540402835291602001916102f8565b820191906000526020600020905b8154815290600101906020018083116102db57829003601f168201915b505050505081526020016001820154815260200160028201548152602001600382015481526020016004820160009054906101000a900460ff161515151581526020016004820160019054906101000a900460ff1615151515815250508152602001906001019061024c565b50505050905090565b610375610a95565b600160003373ffffffffffffffffffffffffffffffffffffffff1673ffffffffffffffffffffffffffffffffffffffff16815260200190815260200160002082815481106103c6576103c56112db565b5b90600052602060002090600502016040518060c00160405290816000820180546103ef906112a9565b80601f016020809104026020016040519081016040528092919081815260200182805461041b906112a9565b80156104685780601f1061043d57610100808354040283529160200191610468565b820191906000526020600020905b81548152906001019060200180831161044b57829003601f168201915b505050505081526020016001820154815260200160028201548152602001600382015481526020016004820160009054906101000a900460ff161515151581526020016004820160019054906101000a900460ff1615151515815250509050919050565b60006040518060c0016040528084815260200142815260200160008152602001838152602001600015158152602001600115158152509050600160003373ffffffffffffffffffffffffffffffffffffffff1673ffffffffffffffffffffffffffffffffffffffff1681526020019081526020016000208190806001815401808255809150506001900390600052602060002090600502016000909190919091506000820151816000019080519060200190610589929190610acf565b5060208201518160010155604082015181600201556060820151816003015560808201518160040160006101000a81548160ff02191690831515021790555060a08201518160040160016101000a81548160ff0219169083151502179055505050505050565b6001602052816000526040600020818154811061060b57600080fd5b90600052602060002090600502016000915091505080600001805461062f906112a9565b80601f016020809104026020016040519081016040528092919081815260200182805461065b906112a9565b80156106a85780601f1061067d576101008083540402835291602001916106a8565b820191906000526020600020905b81548152906001019060200180831161068b57829003601f168201915b5050505050908060010154908060020154908060030154908060040160009054906101000a900460ff16908060040160019054906101000a900460ff16905086565b806106f48161036d565b608001511561070257600080fd5b600061070d8361036d565b905061071883610965565b158061072a57506107288361097e565b155b1561074b57600181608001901515908115158152505061074a83826109b3565b5b505050565b8261075a81610965565b1561076457600080fd5b6000600160003373ffffffffffffffffffffffffffffffffffffffff1673ffffffffffffffffffffffffffffffffffffffff16815260200190815260200160002085815481106107b7576107b66112db565b5b90600052602060002090600502016040518060c00160405290816000820180546107e0906112a9565b80601f016020809104026020016040519081016040528092919081815260200182805461080c906112a9565b80156108595780601f1061082e57610100808354040283529160200191610859565b820191906000526020600020905b81548152906001019060200180831161083c57829003601f168201915b505050505081526020016001820154815260200160028201548152602001600382015481526020016004820160009054906101000a900460ff161515151581526020016004820160019054906101000a900460ff1615151515815250509050838160000181905250828160600181815250506108d585826109b3565b5050505050565b60036020528060005260406000206000915090505481565b806108fe8161036d565b6080015161090b57600080fd5b8161091581610965565b1561091f57600080fd5b600061092a8461036d565b9050600081608001901515908115158152505061094784826109b3565b50505050565b60026020528060005260406000206000915090505481565b6000806109718361036d565b6040015114159050919050565b60008061098a8361036d565b90506000816060015114156109a35760009150506109ae565b428160600151109150505b919050565b80600160003373ffffffffffffffffffffffffffffffffffffffff1673ffffffffffffffffffffffffffffffffffffffff1681526020019081526020016000208381548110610a0557610a046112db565b5b90600052602060002090600502016000820151816000019080519060200190610a2f929190610acf565b5060208201518160010155604082015181600201556060820151816003015560808201518160040160006101000a81548160ff02191690831515021790555060a08201518160040160016101000a81548160ff0219169083151502179055509050505050565b6040518060c00160405280606081526020016000815260200160008152602001600081526020016000151581526020016000151581525090565b828054610adb906112a9565b90600052602060002090601f016020900481019282610afd5760008555610b44565b82601f10610b1657805160ff1916838001178555610b44565b82800160010185558215610b44579182015b82811115610b43578251825591602001919060010190610b28565b5b509050610b519190610b55565b5090565b5b80821115610b6e576000816000905550600101610b56565b5090565b600081519050919050565b600082825260208201905092915050565b6000819050602082019050919050565b600081519050919050565b600082825260208201905092915050565b60005b83811015610bd8578082015181840152602081019050610bbd565b83811115610be7576000848401525b50505050565b6000601f19601f8301169050919050565b6000610c0982610b9e565b610c138185610ba9565b9350610c23818560208601610bba565b610c2c81610bed565b840191505092915050565b6000819050919050565b610c4a81610c37565b82525050565b60008115159050919050565b610c6581610c50565b82525050565b600060c0830160008301518482036000860152610c888282610bfe565b9150506020830151610c9d6020860182610c41565b506040830151610cb06040860182610c41565b506060830151610cc36060860182610c41565b506080830151610cd66080860182610c5c565b5060a0830151610ce960a0860182610c5c565b508091505092915050565b6000610d008383610c6b565b905092915050565b6000602082019050919050565b6000610d2082610b72565b610d2a8185610b7d565b935083602082028501610d3c85610b8e565b8060005b85811015610d785784840389528151610d598582610cf4565b9450610d6483610d08565b925060208a01995050600181019050610d40565b50829750879550505050505092915050565b60006020820190508181036000830152610da48184610d15565b905092915050565b6000604051905090565b600080fd5b600080fd5b610dc981610c37565b8114610dd457600080fd5b50565b600081359050610de681610dc0565b92915050565b600060208284031215610e0257610e01610db6565b5b6000610e1084828501610dd7565b91505092915050565b600060c0830160008301518482036000860152610e368282610bfe565b9150506020830151610e4b6020860182610c41565b506040830151610e5e6040860182610c41565b506060830151610e716060860182610c41565b506080830151610e846080860182610c5c565b5060a0830151610e9760a0860182610c5c565b508091505092915050565b60006020820190508181036000830152610ebc8184610e19565b905092915050565b600080fd5b600080fd5b7f4e487b7100000000000000000000000000000000000000000000000000000000600052604160045260246000fd5b610f0682610bed565b810181811067ffffffffffffffff82111715610f2557610f24610ece565b5b80604052505050565b6000610f38610dac565b9050610f448282610efd565b919050565b600067ffffffffffffffff821115610f6457610f63610ece565b5b610f6d82610bed565b9050602081019050919050565b82818337600083830152505050565b6000610f9c610f9784610f49565b610f2e565b905082815260208101848484011115610fb857610fb7610ec9565b5b610fc3848285610f7a565b509392505050565b600082601f830112610fe057610fdf610ec4565b5b8135610ff0848260208601610f89565b91505092915050565b600080604083850312156110105761100f610db6565b5b600083013567ffffffffffffffff81111561102e5761102d610dbb565b5b61103a85828601610fcb565b925050602061104b85828601610dd7565b9150509250929050565b600073ffffffffffffffffffffffffffffffffffffffff82169050919050565b600061108082611055565b9050919050565b61109081611075565b811461109b57600080fd5b50565b6000813590506110ad81611087565b92915050565b600080604083850312156110ca576110c9610db6565b5b60006110d88582860161109e565b92505060206110e985828601610dd7565b9150509250929050565b600082825260208201905092915050565b600061110f82610b9e565b61111981856110f3565b9350611129818560208601610bba565b61113281610bed565b840191505092915050565b61114681610c37565b82525050565b61115581610c50565b82525050565b600060c08201905081810360008301526111758189611104565b9050611184602083018861113d565b611191604083018761113d565b61119e606083018661113d565b6111ab608083018561114c565b6111b860a083018461114c565b979650505050505050565b6000806000606084860312156111dc576111db610db6565b5b60006111ea86828701610dd7565b935050602084013567ffffffffffffffff81111561120b5761120a610dbb565b5b61121786828701610fcb565b925050604061122886828701610dd7565b9150509250925092565b60006020828403121561124857611247610db6565b5b60006112568482850161109e565b91505092915050565b6000602082019050611274600083018461113d565b92915050565b7f4e487b7100000000000000000000000000000000000000000000000000000000600052602260045260246000fd5b600060028204905060018216806112c157607f821691505b602082108114156112d5576112d461127a565b5b50919050565b7f4e487b7100000000000000000000000000000000000000000000000000000000600052603260045260246000fdfea264697066735822122088bac365ce2dd89d5908469109c11f9a1cc1bd65a5921f0dac4be9a97199099664736f6c634300080b0033",
  "immutableReferences": {},
  "source": "// SPDX-License-Identifier: MIT\npragma solidity >=0.8.0 <0.9.0;\n\ncontract SmartLearn {\n  /*\n   * Constant variables\n   */\n  \n  // Punishment period in seconds\n  uint constant PUNISHMENT_TIME = 30 days;\n\n  /*\n   * State variables\n   */\n  \n  // Contract owner\n  address owner;\n\n  struct Task {\n    string description;\n    uint createdAt;\n    uint value;\n    uint dueDate;\n    bool completed;\n    bool cleared;\n  }\n\n  // Tasks\n  mapping (address => Task[]) public tasks;\n\n  // Credits\n  mapping (address => uint) public credits;\n\n  // Prizes\n  mapping (address => uint) public prizes;\n\n  /* \n   * Events\n   */\n\n  // Task added event\n  event LogAdd (address userAddress, uint taskID); // TODO\n\n  /* \n   * Modifiers\n   */\n\n  modifier isOwner (address _address) {\n    require(msg.sender == owner);\n    _;\n  }\n\n  modifier validDueDate (uint _date) {\n    require(_date > block.timestamp);\n    _;\n  }\n\n  // If task has not any prize locked in it\n  modifier notPrized (uint _id) {\n    require(!hasPrize(_id));\n    _;\n  }\n\n  modifier completed (uint _id) {\n    require(getTask(_id).completed);\n    _;\n  }\n\n  modifier incompleted (uint _id) {\n    require(!getTask(_id).completed);\n    _;\n  }\n\n\n\n  constructor() {\n    owner = msg.sender;\n  }\n\n\n\n  // Add task\n  function add(string memory _description, uint _dueDate) public {\n    Task memory task = Task({\n      description: _description,\n      createdAt: block.timestamp,\n      value: 0,\n      dueDate: _dueDate,\n      completed: false,\n      cleared: true\n    });\n    tasks[msg.sender].push(task);\n  }\n\n\n  // Update task\n  function update(uint _taskID, string memory _description, uint _dueDate)\n  public notPrized(_taskID) {\n    Task memory task = tasks[msg.sender][_taskID];\n    task.description = _description;\n    task.dueDate = _dueDate;\n    replace(_taskID, task);\n  }\n  \n\n  // Set complete\n  function setComplete(uint _id) public incompleted(_id) {\n    Task memory task = getTask(_id);\n    if (!hasPrize(_id) || !isExpired(_id)) {\n      task.completed = true;\n      replace(_id, task);\n    }\n  }\n\n  // Set incomplete\n  function setIncomplete(uint _id) public completed(_id) notPrized(_id) {\n    Task memory task = getTask(_id);\n    task.completed = false;\n    replace(_id, task);\n  }\n\n  // Is task locked: Has no price locked in it\n  function hasPrize(uint _id) internal view returns (bool) {\n    return !(getTask(_id).value == 0);\n  }\n\n  // Is task overdue\n  function isExpired(uint _id) internal view returns (bool) {\n    Task memory task = getTask(_id);\n    if (task.dueDate == 0) {\n      return false;\n    }\n    return (task.dueDate < block.timestamp);\n  }\n\n  // Get current user tasks\n  function getTasks() public view returns(Task[] memory) {\n    return tasks[msg.sender];\n  }\n\n  // Get task\n  function getTask(uint _id) public view returns(Task memory) {\n    return tasks[msg.sender][_id];\n  }\n\n\n  // Replace task\n  function replace(uint _id, Task memory _task) internal {\n    tasks[msg.sender][_id] = _task;\n  }\n\n}\n",
  "sourcePath": "/home/faman/smartlearn/contracts/SmartLearn.sol",
  "compiler": {
    "name": "solc",
    "version": "0.8.11+commit.d7f03943.Emscripten.clang"
  },
  "schemaVersion": "3.4.4",
  "updatedAt": "2022-04-24T22:30:20.772Z",
  "devdoc": {
    "kind": "dev",
    "methods": {},
    "version": 1
  },
  "userdoc": {
    "kind": "user",
    "methods": {},
    "version": 1
  }
}