{
  "contractName": "SmartLearn",
  "abi": [
    {
      "anonymous": false,
      "inputs": [
        {
          "indexed": false,
          "internalType": "address",
          "name": "userAddress",
          "type": "address"
        },
        {
          "indexed": false,
          "internalType": "uint256",
          "name": "taskID",
          "type": "uint256"
        }
      ],
      "name": "LogAdd",
      "type": "event"
    },
    {
      "anonymous": false,
      "inputs": [
        {
          "indexed": true,
          "internalType": "address",
          "name": "previousOwner",
          "type": "address"
        },
        {
          "indexed": true,
          "internalType": "address",
          "name": "newOwner",
          "type": "address"
        }
      ],
      "name": "OwnershipTransferred",
      "type": "event"
    },
    {
      "inputs": [
        {
          "internalType": "address",
          "name": "",
          "type": "address"
        }
      ],
      "name": "credits",
      "outputs": [
        {
          "internalType": "uint256",
          "name": "",
          "type": "uint256"
        }
      ],
      "stateMutability": "view",
      "type": "function",
      "constant": true
    },
    {
      "inputs": [],
      "name": "owner",
      "outputs": [
        {
          "internalType": "address",
          "name": "",
          "type": "address"
        }
      ],
      "stateMutability": "view",
      "type": "function",
      "constant": true
    },
    {
      "inputs": [
        {
          "internalType": "address",
          "name": "",
          "type": "address"
        }
      ],
      "name": "prizes",
      "outputs": [
        {
          "internalType": "uint256",
          "name": "",
          "type": "uint256"
        }
      ],
      "stateMutability": "view",
      "type": "function",
      "constant": true
    },
    {
      "inputs": [],
      "name": "renounceOwnership",
      "outputs": [],
      "stateMutability": "nonpayable",
      "type": "function"
    },
    {
      "inputs": [
        {
          "internalType": "address",
          "name": "",
          "type": "address"
        },
        {
          "internalType": "uint256",
          "name": "",
          "type": "uint256"
        }
      ],
      "name": "tasks",
      "outputs": [
        {
          "internalType": "string",
          "name": "description",
          "type": "string"
        },
        {
          "internalType": "uint256",
          "name": "createdAt",
          "type": "uint256"
        },
        {
          "internalType": "uint256",
          "name": "value",
          "type": "uint256"
        },
        {
          "internalType": "uint256",
          "name": "dueDate",
          "type": "uint256"
        },
        {
          "internalType": "bool",
          "name": "completed",
          "type": "bool"
        },
        {
          "internalType": "bool",
          "name": "cleared",
          "type": "bool"
        }
      ],
      "stateMutability": "view",
      "type": "function",
      "constant": true
    },
    {
      "inputs": [
        {
          "internalType": "address",
          "name": "newOwner",
          "type": "address"
        }
      ],
      "name": "transferOwnership",
      "outputs": [],
      "stateMutability": "nonpayable",
      "type": "function"
    },
    {
      "inputs": [
        {
          "internalType": "string",
          "name": "_description",
          "type": "string"
        },
        {
          "internalType": "uint256",
          "name": "_dueDate",
          "type": "uint256"
        }
      ],
      "name": "add",
      "outputs": [],
      "stateMutability": "nonpayable",
      "type": "function"
    },
    {
      "inputs": [
        {
          "internalType": "uint256",
          "name": "_id",
          "type": "uint256"
        },
        {
          "internalType": "string",
          "name": "_description",
          "type": "string"
        },
        {
          "internalType": "uint256",
          "name": "_dueDate",
          "type": "uint256"
        }
      ],
      "name": "update",
      "outputs": [],
      "stateMutability": "nonpayable",
      "type": "function"
    },
    {
      "inputs": [
        {
          "internalType": "uint256",
          "name": "_id",
          "type": "uint256"
        }
      ],
      "name": "remove",
      "outputs": [],
      "stateMutability": "nonpayable",
      "type": "function"
    },
    {
      "inputs": [
        {
          "internalType": "uint256",
          "name": "_id",
          "type": "uint256"
        }
      ],
      "name": "setComplete",
      "outputs": [],
      "stateMutability": "nonpayable",
      "type": "function"
    },
    {
      "inputs": [
        {
          "internalType": "uint256",
          "name": "_id",
          "type": "uint256"
        }
      ],
      "name": "setIncomplete",
      "outputs": [],
      "stateMutability": "nonpayable",
      "type": "function"
    },
    {
      "inputs": [],
      "name": "getTasks",
      "outputs": [
        {
          "components": [
            {
              "internalType": "string",
              "name": "description",
              "type": "string"
            },
            {
              "internalType": "uint256",
              "name": "createdAt",
              "type": "uint256"
            },
            {
              "internalType": "uint256",
              "name": "value",
              "type": "uint256"
            },
            {
              "internalType": "uint256",
              "name": "dueDate",
              "type": "uint256"
            },
            {
              "internalType": "bool",
              "name": "completed",
              "type": "bool"
            },
            {
              "internalType": "bool",
              "name": "cleared",
              "type": "bool"
            }
          ],
          "internalType": "struct SmartLearn.Task[]",
          "name": "",
          "type": "tuple[]"
        }
      ],
      "stateMutability": "view",
      "type": "function",
      "constant": true
    },
    {
      "inputs": [
        {
          "internalType": "uint256",
          "name": "_id",
          "type": "uint256"
        }
      ],
      "name": "getTask",
      "outputs": [
        {
          "components": [
            {
              "internalType": "string",
              "name": "description",
              "type": "string"
            },
            {
              "internalType": "uint256",
              "name": "createdAt",
              "type": "uint256"
            },
            {
              "internalType": "uint256",
              "name": "value",
              "type": "uint256"
            },
            {
              "internalType": "uint256",
              "name": "dueDate",
              "type": "uint256"
            },
            {
              "internalType": "bool",
              "name": "completed",
              "type": "bool"
            },
            {
              "internalType": "bool",
              "name": "cleared",
              "type": "bool"
            }
          ],
          "internalType": "struct SmartLearn.Task",
          "name": "",
          "type": "tuple"
        }
      ],
      "stateMutability": "view",
      "type": "function",
      "constant": true
    }
  ],
  "bytecode": "0x608060405234801561001057600080fd5b5061002d61002261003260201b60201c565b61003a60201b60201c565b6100fe565b600033905090565b60008060009054906101000a900473ffffffffffffffffffffffffffffffffffffffff169050816000806101000a81548173ffffffffffffffffffffffffffffffffffffffff021916908373ffffffffffffffffffffffffffffffffffffffff1602179055508173ffffffffffffffffffffffffffffffffffffffff168173ffffffffffffffffffffffffffffffffffffffff167f8be0079c531659141344cd1fd0a4f28419497f9722a3daafe3b4186f6b6457e060405160405180910390a35050565b611bb78061010d6000396000f3fe608060405234801561001057600080fd5b50600436106100cf5760003560e01c806389e8491f1161008c578063b35d11bf11610066578063b35d11bf146101ef578063e7a9d4061461021f578063f2fde38b1461023b578063fe5ff46814610257576100cf565b806389e8491f146101995780638da5cb5b146101b5578063ad841e07146101d3576100cf565b806304a87e38146100d45780631d65e77e146100f257806336555b85146101225780634cc822151461013e5780637149d2e41461015a578063715018a61461018f575b600080fd5b6100dc610287565b6040516100e99190611447565b60405180910390f35b61010c600480360381019061010791906114a9565b610409565b604051610119919061155f565b60405180910390f35b61013c600480360381019061013791906116b6565b610568565b005b610158600480360381019061015391906114a9565b61068b565b005b610174600480360381019061016f9190611770565b61094f565b60405161018696959493929190611818565b60405180910390f35b610197610a4a565b005b6101b360048036038101906101ae91906114a9565b610ad2565b005b6101bd610b38565b6040516101ca919061188f565b60405180910390f35b6101ed60048036038101906101e891906118aa565b610b61565b005b61020960048036038101906102049190611919565b610ced565b6040516102169190611946565b60405180910390f35b610239600480360381019061023491906114a9565b610d05565b005b61025560048036038101906102509190611919565b610d5e565b005b610271600480360381019061026c9190611919565b610e56565b60405161027e9190611946565b60405180910390f35b6060600160003373ffffffffffffffffffffffffffffffffffffffff1673ffffffffffffffffffffffffffffffffffffffff168152602001908152602001600020805480602002602001604051908101604052809291908181526020016000905b8282101561040057838290600052602060002090600502016040518060c001604052908160008201805461031b90611990565b80601f016020809104026020016040519081016040528092919081815260200182805461034790611990565b80156103945780601f1061036957610100808354040283529160200191610394565b820191906000526020600020905b81548152906001019060200180831161037757829003601f168201915b505050505081526020016001820154815260200160028201548152602001600382015481526020016004820160009054906101000a900460ff161515151581526020016004820160019054906101000a900460ff161515151581525050815260200190600101906102e8565b50505050905090565b610411611085565b600160003373ffffffffffffffffffffffffffffffffffffffff1673ffffffffffffffffffffffffffffffffffffffff1681526020019081526020016000208281548110610462576104616119c2565b5b90600052602060002090600502016040518060c001604052908160008201805461048b90611990565b80601f01602080910402602001604051908101604052809291908181526020018280546104b790611990565b80156105045780601f106104d957610100808354040283529160200191610504565b820191906000526020600020905b8154815290600101906020018083116104e757829003601f168201915b505050505081526020016001820154815260200160028201548152602001600382015481526020016004820160009054906101000a900460ff161515151581526020016004820160019054906101000a900460ff1615151515815250509050919050565b60006040518060c0016040528084815260200142815260200160008152602001838152602001600015158152602001600115158152509050600160003373ffffffffffffffffffffffffffffffffffffffff1673ffffffffffffffffffffffffffffffffffffffff16815260200190815260200160002081908060018154018082558091505060019003906000526020600020906005020160009091909190915060008201518160000190805190602001906106259291906110bf565b5060208201518160010155604082015181600201556060820151816003015560808201518160040160006101000a81548160ff02191690831515021790555060a08201518160040160016101000a81548160ff0219169083151502179055505050505050565b8061069581610e6e565b1561069f57600080fd5b600160003373ffffffffffffffffffffffffffffffffffffffff1673ffffffffffffffffffffffffffffffffffffffff1681526020019081526020016000208054905082106106ed57600080fd5b600160003373ffffffffffffffffffffffffffffffffffffffff1673ffffffffffffffffffffffffffffffffffffffff16815260200190815260200160002060018060003373ffffffffffffffffffffffffffffffffffffffff1673ffffffffffffffffffffffffffffffffffffffff1681526020019081526020016000208054905061077a9190611a20565b8154811061078b5761078a6119c2565b5b9060005260206000209060050201600160003373ffffffffffffffffffffffffffffffffffffffff1673ffffffffffffffffffffffffffffffffffffffff16815260200190815260200160002083815481106107ea576107e96119c2565b5b9060005260206000209060050201600082018160000190805461080c90611990565b610817929190611145565b506001820154816001015560028201548160020155600382015481600301556004820160009054906101000a900460ff168160040160006101000a81548160ff0219169083151502179055506004820160019054906101000a900460ff168160040160016101000a81548160ff021916908315150217905550905050600160003373ffffffffffffffffffffffffffffffffffffffff1673ffffffffffffffffffffffffffffffffffffffff1681526020019081526020016000208054806108e2576108e1611a54565b5b60019003818190600052602060002090600502016000808201600061090791906111d2565b6001820160009055600282016000905560038201600090556004820160006101000a81549060ff02191690556004820160016101000a81549060ff0219169055505090555050565b6001602052816000526040600020818154811061096b57600080fd5b90600052602060002090600502016000915091505080600001805461098f90611990565b80601f01602080910402602001604051908101604052809291908181526020018280546109bb90611990565b8015610a085780601f106109dd57610100808354040283529160200191610a08565b820191906000526020600020905b8154815290600101906020018083116109eb57829003601f168201915b5050505050908060010154908060020154908060030154908060040160009054906101000a900460ff16908060040160019054906101000a900460ff16905086565b610a52610ea2565b73ffffffffffffffffffffffffffffffffffffffff16610a70610b38565b73ffffffffffffffffffffffffffffffffffffffff1614610ac6576040517f08c379a0000000000000000000000000000000000000000000000000000000008152600401610abd90611acf565b60405180910390fd5b610ad06000610eaa565b565b80610adc81610409565b6080015115610aea57600080fd5b6000610af583610409565b9050610b0083610e6e565b1580610b125750610b1083610f6e565b155b15610b33576001816080019015159081151581525050610b328382610fa3565b5b505050565b60008060009054906101000a900473ffffffffffffffffffffffffffffffffffffffff16905090565b82610b6b81610e6e565b15610b7557600080fd5b6000600160003373ffffffffffffffffffffffffffffffffffffffff1673ffffffffffffffffffffffffffffffffffffffff1681526020019081526020016000208581548110610bc857610bc76119c2565b5b90600052602060002090600502016040518060c0016040529081600082018054610bf190611990565b80601f0160208091040260200160405190810160405280929190818152602001828054610c1d90611990565b8015610c6a5780601f10610c3f57610100808354040283529160200191610c6a565b820191906000526020600020905b815481529060010190602001808311610c4d57829003601f168201915b505050505081526020016001820154815260200160028201548152602001600382015481526020016004820160009054906101000a900460ff161515151581526020016004820160019054906101000a900460ff161515151581525050905083816000018190525082816060018181525050610ce68582610fa3565b5050505050565b60036020528060005260406000206000915090505481565b80610d0f81610409565b60800151610d1c57600080fd5b81610d2681610e6e565b15610d3057600080fd5b6000610d3b84610409565b90506000816080019015159081151581525050610d588482610fa3565b50505050565b610d66610ea2565b73ffffffffffffffffffffffffffffffffffffffff16610d84610b38565b73ffffffffffffffffffffffffffffffffffffffff1614610dda576040517f08c379a0000000000000000000000000000000000000000000000000000000008152600401610dd190611acf565b60405180910390fd5b600073ffffffffffffffffffffffffffffffffffffffff168173ffffffffffffffffffffffffffffffffffffffff161415610e4a576040517f08c379a0000000000000000000000000000000000000000000000000000000008152600401610e4190611b61565b60405180910390fd5b610e5381610eaa565b50565b60026020528060005260406000206000915090505481565b600080610e7a83610409565b9050600081604001511415610e93576000915050610e9d565b8060a00151159150505b919050565b600033905090565b60008060009054906101000a900473ffffffffffffffffffffffffffffffffffffffff169050816000806101000a81548173ffffffffffffffffffffffffffffffffffffffff021916908373ffffffffffffffffffffffffffffffffffffffff1602179055508173ffffffffffffffffffffffffffffffffffffffff168173ffffffffffffffffffffffffffffffffffffffff167f8be0079c531659141344cd1fd0a4f28419497f9722a3daafe3b4186f6b6457e060405160405180910390a35050565b600080610f7a83610409565b9050600081606001511415610f93576000915050610f9e565b428160600151109150505b919050565b80600160003373ffffffffffffffffffffffffffffffffffffffff1673ffffffffffffffffffffffffffffffffffffffff1681526020019081526020016000208381548110610ff557610ff46119c2565b5b9060005260206000209060050201600082015181600001908051906020019061101f9291906110bf565b5060208201518160010155604082015181600201556060820151816003015560808201518160040160006101000a81548160ff02191690831515021790555060a08201518160040160016101000a81548160ff0219169083151502179055509050505050565b6040518060c00160405280606081526020016000815260200160008152602001600081526020016000151581526020016000151581525090565b8280546110cb90611990565b90600052602060002090601f0160209004810192826110ed5760008555611134565b82601f1061110657805160ff1916838001178555611134565b82800160010185558215611134579182015b82811115611133578251825591602001919060010190611118565b5b5090506111419190611212565b5090565b82805461115190611990565b90600052602060002090601f01602090048101928261117357600085556111c1565b82601f1061118457805485556111c1565b828001600101855582156111c157600052602060002091601f016020900482015b828111156111c05782548255916001019190600101906111a5565b5b5090506111ce9190611212565b5090565b5080546111de90611990565b6000825580601f106111f0575061120f565b601f01602090049060005260206000209081019061120e9190611212565b5b50565b5b8082111561122b576000816000905550600101611213565b5090565b600081519050919050565b600082825260208201905092915050565b6000819050602082019050919050565b600081519050919050565b600082825260208201905092915050565b60005b8381101561129557808201518184015260208101905061127a565b838111156112a4576000848401525b50505050565b6000601f19601f8301169050919050565b60006112c68261125b565b6112d08185611266565b93506112e0818560208601611277565b6112e9816112aa565b840191505092915050565b6000819050919050565b611307816112f4565b82525050565b60008115159050919050565b6113228161130d565b82525050565b600060c083016000830151848203600086015261134582826112bb565b915050602083015161135a60208601826112fe565b50604083015161136d60408601826112fe565b50606083015161138060608601826112fe565b5060808301516113936080860182611319565b5060a08301516113a660a0860182611319565b508091505092915050565b60006113bd8383611328565b905092915050565b6000602082019050919050565b60006113dd8261122f565b6113e7818561123a565b9350836020820285016113f98561124b565b8060005b85811015611435578484038952815161141685826113b1565b9450611421836113c5565b925060208a019950506001810190506113fd565b50829750879550505050505092915050565b6000602082019050818103600083015261146181846113d2565b905092915050565b6000604051905090565b600080fd5b600080fd5b611486816112f4565b811461149157600080fd5b50565b6000813590506114a38161147d565b92915050565b6000602082840312156114bf576114be611473565b5b60006114cd84828501611494565b91505092915050565b600060c08301600083015184820360008601526114f382826112bb565b915050602083015161150860208601826112fe565b50604083015161151b60408601826112fe565b50606083015161152e60608601826112fe565b5060808301516115416080860182611319565b5060a083015161155460a0860182611319565b508091505092915050565b6000602082019050818103600083015261157981846114d6565b905092915050565b600080fd5b600080fd5b7f4e487b7100000000000000000000000000000000000000000000000000000000600052604160045260246000fd5b6115c3826112aa565b810181811067ffffffffffffffff821117156115e2576115e161158b565b5b80604052505050565b60006115f5611469565b905061160182826115ba565b919050565b600067ffffffffffffffff8211156116215761162061158b565b5b61162a826112aa565b9050602081019050919050565b82818337600083830152505050565b600061165961165484611606565b6115eb565b90508281526020810184848401111561167557611674611586565b5b611680848285611637565b509392505050565b600082601f83011261169d5761169c611581565b5b81356116ad848260208601611646565b91505092915050565b600080604083850312156116cd576116cc611473565b5b600083013567ffffffffffffffff8111156116eb576116ea611478565b5b6116f785828601611688565b925050602061170885828601611494565b9150509250929050565b600073ffffffffffffffffffffffffffffffffffffffff82169050919050565b600061173d82611712565b9050919050565b61174d81611732565b811461175857600080fd5b50565b60008135905061176a81611744565b92915050565b6000806040838503121561178757611786611473565b5b60006117958582860161175b565b92505060206117a685828601611494565b9150509250929050565b600082825260208201905092915050565b60006117cc8261125b565b6117d681856117b0565b93506117e6818560208601611277565b6117ef816112aa565b840191505092915050565b611803816112f4565b82525050565b6118128161130d565b82525050565b600060c082019050818103600083015261183281896117c1565b905061184160208301886117fa565b61184e60408301876117fa565b61185b60608301866117fa565b6118686080830185611809565b61187560a0830184611809565b979650505050505050565b61188981611732565b82525050565b60006020820190506118a46000830184611880565b92915050565b6000806000606084860312156118c3576118c2611473565b5b60006118d186828701611494565b935050602084013567ffffffffffffffff8111156118f2576118f1611478565b5b6118fe86828701611688565b925050604061190f86828701611494565b9150509250925092565b60006020828403121561192f5761192e611473565b5b600061193d8482850161175b565b91505092915050565b600060208201905061195b60008301846117fa565b92915050565b7f4e487b7100000000000000000000000000000000000000000000000000000000600052602260045260246000fd5b600060028204905060018216806119a857607f821691505b602082108114156119bc576119bb611961565b5b50919050565b7f4e487b7100000000000000000000000000000000000000000000000000000000600052603260045260246000fd5b7f4e487b7100000000000000000000000000000000000000000000000000000000600052601160045260246000fd5b6000611a2b826112f4565b9150611a36836112f4565b925082821015611a4957611a486119f1565b5b828203905092915050565b7f4e487b7100000000000000000000000000000000000000000000000000000000600052603160045260246000fd5b7f4f776e61626c653a2063616c6c6572206973206e6f7420746865206f776e6572600082015250565b6000611ab96020836117b0565b9150611ac482611a83565b602082019050919050565b60006020820190508181036000830152611ae881611aac565b9050919050565b7f4f776e61626c653a206e6577206f776e657220697320746865207a65726f206160008201527f6464726573730000000000000000000000000000000000000000000000000000602082015250565b6000611b4b6026836117b0565b9150611b5682611aef565b604082019050919050565b60006020820190508181036000830152611b7a81611b3e565b905091905056fea264697066735822122063fa33b4fb9be6f72ad10b08fce8fa5b9f21db1bf144a0c6ff28e3b1ca062e9964736f6c634300080b0033",
  "immutableReferences": {},
  "source": "// SPDX-License-Identifier: MIT\npragma solidity >=0.8.0 <0.9.0;\n\nimport \"@openzeppelin/contracts/access/Ownable.sol\";\n\ncontract SmartLearn is Ownable{\n  /*\n   * Constant variables\n   */\n  \n  // Punishment period in seconds\n  uint constant PUNISHMENT_TIME = 30 days;\n\n  /*\n   * State variables\n   */\n\n  struct Task {\n    string description;\n    uint createdAt;\n    uint value;\n    uint dueDate;\n    bool completed;\n    bool cleared;\n  }\n\n  // Tasks\n  mapping (address => Task[]) public tasks;\n\n  // Credits\n  mapping (address => uint) public credits;\n\n  // Prizes\n  mapping (address => uint) public prizes;\n\n  /* \n   * Events\n   */\n\n  // Task added event\n  event LogAdd (address userAddress, uint taskID); // TODO\n\n  /* \n   * Modifiers\n   */\n\n  modifier validDueDate (uint _date) {\n    require(_date > block.timestamp);\n    _;\n  }\n\n  // If task has not any prize locked in it\n  modifier notPrized (uint _id) {\n    require(!hasPrize(_id));\n    _;\n  }\n\n  modifier completed (uint _id) {\n    require(getTask(_id).completed);\n    _;\n  }\n\n  modifier incomplete (uint _id) {\n    require(!getTask(_id).completed);\n    _;\n  }\n\n\n\n  /* \n   * Functions\n   */\n\n  // Add task\n  function add(string memory _description, uint _dueDate) public {\n    Task memory task = Task({\n      description: _description,\n      createdAt: block.timestamp,\n      value: 0,\n      dueDate: _dueDate,\n      completed: false,\n      cleared: true\n    });\n    tasks[msg.sender].push(task);\n  }\n\n\n  // Update task\n  function update(uint _id, string memory _description, uint _dueDate)\n  public notPrized(_id) {\n    Task memory task = tasks[msg.sender][_id];\n    task.description = _description;\n    task.dueDate = _dueDate;\n    replace(_id, task);\n  }\n\n  // Remove task\n  function remove(uint _id) public notPrized(_id) {\n    require(_id < tasks[msg.sender].length);\n\n    tasks[msg.sender][_id] = tasks[msg.sender][tasks[msg.sender].length - 1];\n    tasks[msg.sender].pop();\n  }\n  \n\n  // Set complete\n  function setComplete(uint _id) public incomplete(_id) {\n    Task memory task = getTask(_id);\n    if (!hasPrize(_id) || !isExpired(_id)) {\n      task.completed = true;\n      replace(_id, task);\n    }\n  }\n\n  // Set incomplete\n  function setIncomplete(uint _id) public completed(_id) notPrized(_id) {\n    Task memory task = getTask(_id);\n    task.completed = false;\n    replace(_id, task);\n  }\n\n  // Is task locked: Has no price locked in it\n  function hasPrize(uint _id) internal view returns (bool) {\n    Task memory task = getTask(_id);\n    if (task.value == 0)\n      return false;\n    return !task.cleared;\n  }\n\n  // Is task overdue\n  function isExpired(uint _id) internal view returns (bool) {\n    Task memory task = getTask(_id);\n    if (task.dueDate == 0) {\n      return false;\n    }\n    return (task.dueDate < block.timestamp);\n  }\n\n  // Get current user tasks\n  function getTasks() public view returns(Task[] memory) {\n    return tasks[msg.sender];\n  }\n\n  // Get task\n  function getTask(uint _id) public view returns(Task memory) {\n    return tasks[msg.sender][_id];\n  }\n\n\n  // Replace task\n  function replace(uint _id, Task memory _task) internal {\n    tasks[msg.sender][_id] = _task;\n  }\n\n}\n",
  "sourcePath": "/home/faman/smartlearn/contracts/SmartLearn.sol",
  "compiler": {
    "name": "solc",
    "version": "0.8.11+commit.d7f03943.Emscripten.clang"
  },
  "schemaVersion": "3.4.4",
  "updatedAt": "2022-04-25T13:45:53.229Z",
  "networkType": "ethereum",
  "devdoc": {
    "kind": "dev",
    "methods": {
      "owner()": {
        "details": "Returns the address of the current owner."
      },
      "renounceOwnership()": {
        "details": "Leaves the contract without owner. It will not be possible to call `onlyOwner` functions anymore. Can only be called by the current owner. NOTE: Renouncing ownership will leave the contract without an owner, thereby removing any functionality that is only available to the owner."
      },
      "transferOwnership(address)": {
        "details": "Transfers ownership of the contract to a new account (`newOwner`). Can only be called by the current owner."
      }
    },
    "version": 1
  },
  "userdoc": {
    "kind": "user",
    "methods": {},
    "version": 1
  }
}